:10000000020003758151120148E582600302006F0E
:10001000780079007A007B007C007D00EC4D601C4C
:1000200088828983E493A3A882A9838A828B83F040
:10003000A3AA82AB831CBCFFE31D80E07582007520
:1000400083007C007D00EC4D600AE4F0A31CBCFF43
:10005000F51D80F27582007583007C007D00EC4DFB
:10006000600AE4F0A31CBCFFF51D80F212014712E8
:1000700005EA80FE436F6D6D616E643A2025730062
:10008000526573706F6E73653A2025730D0A000D0B
:100090000A4A44592D343020746573740D0A0041A6
:1000A000542B44564944393934340D0A0041542BF9
:1000B0005645520D0A0041542B424155440D0A0049
:1000C00041542B524649440D0A0041542B44564991
:1000D000440D0A0041542B5246430D0A0041542B53
:1000E000504F57450D0A0041542B434C53530D0AB2
:1000F000000D0A507265737320616E6420686F6C26
:10010000642074686520424F4F5420627574746F88
:100110006E20746F207472616E736D69742E0D0A97
:10012000004A4459343020746573742025640D0AE4
:1001300000467265713A2025730D0A003C4E4F202F
:10014000464C4F41543E002275A7007597DE7597C7
:10015000AD75FF8075EF0675A71075C12075A700F6
:1001600075A90075A900E5A930E7FB75A90375A974
:1001700003E5A930E7FB43A41143A60175E101752E
:10018000E20075E341759810758DE6858D8B538976
:100190000F438920D28ED2997582002275A700C2A2
:1001A000EF75B28075BC2075B91E75E80075DF3F2C
:1001B00075B300D2EF22AA82438E407592B8759330
:1001C000FF8592948593957591047B00C3EB9A50BB
:1001D0000BE59130E7FB53917F0B80F07591002286
:1001E0005389F0438901C28C22AA82AB837C007DB3
:1001F00000C3EC9AED9B502B7E00BE0400501D7591
:1002000082FAC002C003C004C005C0061201B6D005
:1002100006D005D004D003D0020E80DE0CBC00D185
:100220000D80CE22AA828518F005F0740180022587
:10023000E0D5F0FBFB75A720BA0002800ABA0102E4
:10024000800FBA021E8014EBF4FA52F1EB42D48014
:1002500012EBF4FA52F2EB42D58008EBF4FA52F3C7
:10026000EB42CC75A700228582BBC2EDD2EC30ED0B
:10027000FD85BD8285BE8322C2EDD2EC30EDFD85C9
:10028000BD8285BE83221202671207DEAA82AB837B
:10029000ACF0FDC002C003C004C00590333375F05C
:1002A0009B744012081AAA82AB83ACF0FDE581244E
:1002B000FCF581E4C0E074FCC0E0747FC0E07446EB
:1002C000C0E08A828B838CF0ED120BDAAA82AB83BA
:1002D000ACF0FDE58124FCF5818A828B838CF0ED06
:1002E00022AA82AB83ACF0FD75A72075930C75C86C
:1002F000107594008A188B198C1A8D1B90A20075AA
:10030000F04A7404120779AA82AB83ACF0FD751829
:1003100018E4F519F51AF51B8A828B838CF0ED121F
:100320000779AA82AB83ACF0FDE4C39AFAE49BFBA5
:1003300074019CE49D8A958B96D2C943944075A71D
:100340000022AA8275A72010C90280FB8A9275A795
:100350000022AA82AB83ACF08A828B838CF01207D6
:100360005DFD60188D82C002C003C004120342D03C
:1003700004D003D0020ABA00DF0B80DC2275A7206C
:1003800010C80280FB53C83F85928275A700227572
:10039000A7207A007B0020C82675A700758214C0AC
:1003A00002C0031201B6D003D00275A7200ABA001A
:1003B000010BBAA8E1BB61DE75A70075820A22C2F3
:1003C000C853C83F85928275A70022AA82AB83AC2E
:1003D000F0C002C003C00412038FAD82D004D0036A
:1003E000D002BD0A0A8A828B838CF0E4020B178A42
:1003F000828B838CF0ED120B17A3AA82AB8380D182
:1004000075A720A2C875A70022AA82AB837C007DB5
:1004100000C3EC9AED9B50477E00BE04005039C0EB
:1004200002C003C004C005C006120400E433D006B5
:10043000D005D004D003D0026001227582FAC00238
:10044000C003C004C005C0061201B6D006D005D056
:1004500004D003D0020E80C20CBC00B50D80B222C5
:10046000AA82AB83ACF0C002C003C004C002C003C8
:10047000C0047474C0E07400C0E07480C0E0120A6C
:10048000F6E58124FAF581C2B09000051201E9D0A9
:1004900004D003D0028A828B838CF0120352900026
:1004A0003875F0401203CB90000A1201E9D2B07403
:1004B00038C0E07400C0E07440C0E07480C0E074F4
:1004C00000C0E07480C0E0120AF6E58124FAF581EC
:1004D00022D2A07582281201B6C2A022AA828AE086
:1004E000A2E79290A2E69291A2E59292A2E4929360
:1004F000C0021204D17582281201B6D0028AE0A28D
:10050000E39290A2E29291A2E19292A2E0929302EF
:1005100004D1AA82D2978A821204DC9000020201DE
:10052000E9AA82C2978A821204DC9000050201E9DE
:10053000C2A09000141201E9758233120521758260
:100540003312052175823212052175822812052188
:1005500075820C120521758201120521900014028A
:1005600001E9AA82AB83ACF07402B509047DC080B6
:10057000027D808D82C002C003C00412052190005C
:10058000051201E9D004D003D0027D007E00ED2ADF
:10059000FFEE3BF88C018F82888389F012075DFFA4
:1005A00060208F82C002C003C004C005C0061205CF
:1005B00012D006D005D004D003D0020DBD00CF0E5E
:1005C00080CC3000248D028E03C3EA9410EB64804B
:1005D00094805015758220C002C003120512D0030A
:1005E000D0020ABA00E30B80E02212019C9001F4D1
:1005F0001201E9748FC0E07400C0E07480C0E012A2
:100600000AF6158115811581902580E4F5F0120216
:10061000E1751804758202120224751805758202AC
:1006200012022490009F75F0801204609000AD7556
:10063000F0801204609000B675F0801204609000A3
:10064000C075F0801204609000CA75F080120460DA
:100650009000D475F0801204609000DD75F0801277
:1006600004609000E775F08012046074F1C0E074DB
:1006700000C0E07480C0E0120AF615811581158172
:100680007A007B0075820AC002C00312028675825E
:100690000B120286D003D00220B74B8A048B050AC6
:1006A000BA00010BC002C003C004C0057421C0E041
:1006B0007401C0E07480C0E07438C0E07400C0E031
:1006C0007440C0E0120B7FE58124F8F5819000387A
:1006D00075F04012035275822E120BC59000C8129D
:1006E0000409D003D002C002C003120400D003D01A
:1006F00002509190003875F040C002C0031203CB45
:100700007438C0E07400C0E07440C0E07431C0E0F0
:100710007401C0E07480C0E0120AF6E58124FAF5A5
:100720008190003875F0401208BDAC82AD83AEF008
:10073000FFE4C0E07440C0E0741CC0E07445C0E059
:100740008C828D838EF0EF1207EAAC82E58124FC67
:10075000F581D003D002EC60030206842220F71456
:1007600030F6148883A88220F507E6A883758300F5
:1007700022E280F7E49322E022FB7A20E4FCFDFEF3
:10078000FFE5822582F582E58333F583E5F033F5D5
:10079000F0EB33FB4017DAE98042E5822582F582EF
:1007A000E58333F583E5F033F5F0EB33FBEC33FC15
:1007B000ED33FDEE33FEEF33FFEC9518ED9519EEBA
:1007C000951AEF951B4013EC9518FCED9519FDEE6D
:1007D000951AFEEF951BFF438201DABEEB22E4ACD3
:1007E00083AB82FAF9748E020D02FFA881181812E9
:1007F0000D2AD2D133E6400730E70B758200222064
:10080000E70675820122C2D1120D0CE97003F58250
:100810002220D101B3E433F58222120DD7BC0003AC
:10082000020D76EF60FA30D502B2D1E583B4FF0352
:10083000020D8CE582B4FF03020D8C258340072452
:1008400082400B020D762483145003020D8CF58236
:10085000EA8DF0A4A8F0EA8EF0A428F8E435F0F9C7
:10086000EB8DF0A428E935F0F9E433CA8FF0A42920
:10087000F9EA35F0FAEBF88EF0A429F9EA35F0FA46
:10088000E433FBEC8DF0A429F9EA35F0FAE43BFB04
:10089000E88FF0A42AFAEB35F0FBE433CCFD8EF0C0
:1008A000A42AFAEB35F0FBE43CFCED8FF0A42BFB23
:1008B000EC35F0FC20E703120DA4020D55AA82AB23
:1008C00083ACF0751600751700C2038A058B068C81
:1008D000078D828E838FF012075DF8B820028003A7
:1008E000B809070DBD00EA0E80E78D028E038F0464
:1008F000B82D0DD20174012DFAE43EFB8F04800E59
:10090000C201B82B0974012DFAE43EFB8F04751265
:10091000007513007514007515008A058B068C0789
:100920008D828E838FF012075DF8F9B93000400593
:10093000E824C650128D828E838FF012075DF8B8BE
:100940002E0280030209F28D828E838FF012075DE2
:10095000F9B92E05D2030209EAC005C006C007C0D6
:1009600005C006C007C001C012C013C014C0159056
:10097000000075F020744112081A858212858313D5
:1009800085F014F515E58124FCF581D001D007D060
:1009900006D005E93395E0FDE924D0F582ED34FF7A
:1009A000F583120E5EAD82AE83AFF0F9C005C006CE
:1009B000C007C005C006C007C00185128285138329
:1009C0008514F0E515120E0585821285831385F0D6
:1009D00014F515E58124FCF581D007D006D005D0AB
:1009E00007D006D00530030215160DBD00010E021A
:1009F00009205300DF8D828E838FF0E8120B17B829
:100A0000456274012DFAE43EFB8F048A828B838C4D
:100A1000F012075DFDBD2D09D2020ABA000D0B8050
:100A20000AC202BD2B050ABA00010B7517008A82A3
:100A30008B838CF012075DFDFEBE3000401D8D06DD
:100A4000EE24C64016E51775F00AA4F517ED24D07C
:100A50002517F5170ABA00D60B80D3300206C3E477
:100A60009517F517E5162517F517E5176055E517DE
:100A700030E728C012C013C014C01590CCCD75F05B
:100A8000CC743D12081A85821285831385F014F503
:100A900015E58124FCF581051780CFC012C013C075
:100AA00014C01590000075F020744112081A858258
:100AB0001285831385F014F515E58124FCF5811565
:100AC0001780A730010F851212851313851414E5C2
:100AD00015B2E7F5158512828513838514F0E515A7
:100AE00022020BC585823185833285F0338511342E
:100AF000900AE1020EF4C008858108E50824FBF5A0
:100B000034E50824FBF88631088632088633900ADB
:100B1000E1120EF4D0082220F71030F6118883A8D5
:100B20008220F507F6A88375830022F280F7F02271
:100B3000AA82AB0AAC0BAD0C8B828C838DF0EA12CF
:100B40000B17050AE4B50A02050B2285820A858384
:100B50000B85F00C850D31850E32850F33851034F1
:100B6000900B30120EF4AA82AB83AC0AAD0BAE0C24
:100B70008C828D838EF0E4120B178A828B8322C0C5
:100B800008858108E50824F8F534E50824FBF88693
:100B90000A08860B08860CE50824F8F886310886D2
:100BA00032088633900B30120EF4AA82AB83AC0A63
:100BB000AD0BAE0C8C828D838EF0E4120B178A8203
:100BC0008B83D00822AA82BA0A0810990280FB758A
:100BD000990D10990280FB8A9922120DD730D50207
:100BE000B2D1BF0009BC0003020D99020D8CBC00FC
:100BF00003020D76E583B4FF0BE582B4FF03020D1B
:100C000099020D76E582B4FF03020D8CC3958350E3
:100C100007247F400B020D762480145003020D8CB4
:100C2000C0E0E4CCCBCAF98D188E198F1AEF54F0BE
:100C3000C4F51B758306851BF0EB84F582E9C4F9C6
:100C4000EAC4FAEBC4FBEC540FC47803D6FC18EBEF
:100C5000D6FB18EAD6FA8582F0EDA4A8F0FD8582CD
:100C6000F0EEA428FEE435F0F88582F0EFA428FF2A
:100C7000E435F0F8E99DF9EA9EFAEB9FFBEC98FC6D
:100C8000AD18AE19AF1A30E7101582E92DF9EA3E1A
:100C9000FAEB3FFBE43CFC80EDC082D58398C3E9CE
:100CA00033F9EA33FAEB33FBEC33FCC3E99DEA9EFC
:100CB000EB9FEC9400B3E413F9D002D0E0C44AFAFD
:100CC000D003D0E0C44BFBD004D0E0F5F0540FC407
:100CD0004CFCD082158230F40FD3EC13FCEB13FBE9
:100CE000EA13FAE913F90582E930E70A74012AFAEE
:100CF000E43BFBE43CFC020D6DFCABF0AA83A98253
:100D0000749EC2D1F582120DA4020D557901AA82FA
:100D1000E68F82B5821318E6B5F00E18E6B58309A2
:100D200018E68A82B58202790022B4800FE5F0705D
:100D30000AE5837006E58270027F00EFB680151821
:100D4000B6001018B6000B18B600060808087600A2
:100D50002208080822B98003EA13B34010EA2401EC
:100D6000FAE43BFBE43CFC50047C800582BC000EB2
:100D7000BB000BBA0008E4F5F0F583F58222A2D19E
:100D8000E582138CF092F78B838A8222E4F583F557
:100D90008275F080F4A2D11322E4F583F58275F018
:100DA000C0747F227804EC7011E58224F8500AF5B3
:100DB00082E4C9CACBFCD8EF22EC7820058220E778
:100DC00013D5820122C3E933F9EA33FAEB33FBECA2
:100DD00033FCD8EA158222AA82AB83A2F73392D1E0
:100DE0006002D2F7F582ACF0E58124F9F8E6FD085F
:100DF000E6FE0886F008E6A2F73392D56002D2F745
:100E0000F583AFF022120DD77900E583B582028019
:100E10000D500312148BE583C395821214A5E5D0FF
:100E2000C465D020E117EA2DFAEB3EFBEC3FFC5005
:100E30000974011214A5EC4480FC020D55C3EA9D0F
:100E4000FAEB9EFBEC9FFC500FC3E499F9E49AFA8D
:100E5000E49BFBE49CFCB2D1120DA4020D55AC83C3
:100E6000AB827A007900748E0214F1AA82747CC07D
:100E7000E0740EC0E0C023C0248A8222052AE4B5B3
:100E80002A02052B22AA8274302AFA24C6500A7438
:100E9000072AFA3004034302208A82020E6BE5829D
:100EA000FAC4540FF582C002120E85D002740F5A94
:100EB000F582020E85AA25AB26AC27AD28AE297592
:100EC0003020EE2EFEED235401FF4206EA2AFAEB13
:100ED00033FBEC33FCED33FDC3EE952C4008EEC341
:100EE000952CFE430201D530D98A258B268C278D7F
:100EF000288E2922858223858324E4F52AF52BAACE
:100F000031AB32AC338A828B838CF012075DFD7477
:100F1000012AF531E43BF5328C33EDFA700302140B
:100F200084BA2502800302147CC208C209C20AC224
:100F30000BC20CC20DC20EC20FC205C206C207759B
:100F40002C00752D00752EFFAB31AC32AD338B828A
:100F50008C838DF012075DFAA3AB82AC838B318C4E
:100F6000328D33BA25078A82120E6B80928A06BEB2
:100F70003000402E8A06EE24C6402774FFB52E139B
:100F8000E52D75F00AA4FEEA24D02EF52D70BFD20F
:100F90000980BBE52E75F00AA4FEEA24D02EF52EBA
:100FA00080ACBA2E0A74FFB52EA4752E00809F8ADD
:100FB00006BE6100400E8A06EE248540075302DF1C
:100FC000D2048002C204BA20028075BA2303021040
:100FD0004FBA2A03021054BA2B02805FBA2D028046
:100FE00055BA4202805FBA4303021099BA44030221
:100FF00011D4BA45030211EEBA46030211EABA4708
:10100000030211F2BA49030211D4BA4C02803BBA6E
:101010004E030211F6BA4F030211DBBA500302115C
:101020006DBA53030210BDBA55030211E0BA58035A
:101030000211E5021220D208020F4ED20A020F4E10
:10104000D20B020F4ED20D020F4ED20E020F4ED215
:101050000F020F4E74FFB52E20300D0BE53414F83F
:101060008834862D020F4EE53424FEF88834860637
:10107000088607188E2D020F4E300D0BE53414F83C
:101080008834862E020F4EE53424FEF88834860616
:10109000088607188E2E020F4E300D0AE53414F81C
:1010A00088348602800FE53424FEF88834860308ED
:1010B0008604188B028A82120E6B021225E53424F4
:1010C000FDF88834860308860408860518188B25E1
:1010D0008C268D278B828C838DF0121515AB82ACFC
:1010E000838B2F74FFB52E03852F2E20081DC3E59B
:1010F0002F952D5016E52DC3952FF52DAB2D152DC4
:10110000EB6008758220120E6B80F18525828526A2
:10111000838527F012075DFBFA6029AB2E152EC3DD
:10112000E464808BF063F08095F050188A82120E90
:101130006BAB25AC26AD270BBB00010C8B258C2699
:101140008D2780C7200803021225C3E52F952D4067
:1011500003021225E52DC3952FF52DAB2D152DEB93
:101160007003021225758220120E6B80EEE5342486
:10117000FDF88834860308860408860518188B2530
:101180008C268D27E527FB30E7047A438013EB5448
:101190006060047A50800AEB30E6047A4980027A73
:1011A000588A82C002120E6B75823A120E6B7582DB
:1011B00030120E6B758278120E6BD002BA49028023
:1011C0000BBA50028006852682120E9E8525821259
:1011D0000E9E8051D20C752C0A804A752C088045D1
:1011E000752C0A8040752C10803BD2058037D206C2
:1011F0008033D207802FE53424FDF8883486030835
:10120000860408860518188B258C268D278B828CE2
:10121000838DF0E52A120B17A3E52B120B1780051F
:101220008A82120E6B20050620060330075AE53429
:1012300024FCF88834860308860408860508860698
:101240001818188B258C268D278E2875253C752619
:101250000175278085253585263685273774012534
:1012600035FEE43536FFAB378E258F268B27853547
:10127000828536838537F012075DFBFA7003020E14
:10128000FF8A82120E6B80CCE52C7003020EFF7B6E
:1012900051300D2BE53414F88834E6FC3395E0FD2D
:1012A000FEFF8C258D268E278F28200C5EAC257D99
:1012B000007E007F008C258D268E278F28804C3065
:1012C0000E1FE53424FCF888348604088605088659
:1012D000060886071818188C258D268E278F2880DB
:1012E0002AE53424FEF88834860408860518ED3390
:1012F00095E0FEFF8C258D268E278F28200C0CACC8
:1013000025AD267E007F008E278F28300F43E525F0
:1013100045264527452860397408B52C0C75823060
:10132000C003120E6BD00380287410B52C23758275
:1013300030C003120E6BD00330040C758278C003EA
:10134000120E6BD003800A758258C003120E6BD048
:1013500003300C25AC25AD26AE27E528FF30E71776
:10136000C3E49CFCE49DFDE49EFEE49FFF8C258D80
:10137000268E278F288002C20C752F00D2108B007A
:10138000752900C000120EB5D00020100DE529C44B
:10139000FCE6FD4CF61888038002A629052FB21042
:1013A000E52545264527452870D68803E52D700399
:1013B000752D0120091A200817E52F04FCC3952D6F
:1013C000500E758220C003120E6BD003152D80E9DC
:1013D000300C0E75822DC003120E6BD003152D80BC
:1013E00024E52F6020300A0E75822BC003120E6B8D
:1013F000D003152D800F300B0C758220C003120E08
:101400006BD003152D20081EAC2D152DC3E52F9C88
:1014100050273009047C3080027C208C82C003126B
:101420000E6BD00380E2C3E52F952D5009E52DC347
:10143000952FF52D8003752D008B00AB2F152FEB0D
:101440006022B21020100A08E6C4540FFB8B2980DA
:10145000078603740F5BF529852982C000120E856B
:10146000D00080D7200803020EFFAB2D152DEB70A6
:1014700003020EFF758220120E6B80EE8A82120E1E
:101480006B020EFF852A82852B8322E582C583F5B8
:1014900082A2D133A2D592D11392D5ECCFFCEBCE60
:1014A000FBEACDFA226040F82582500274FFF582F3
:1014B000E824F8501ECCCBCAF9E4CC24F85014CB65
:1014C000CAF9E4CB24F8500BCAF9E4CA24F8500353
:1014D00079002224086010F8C3EC13FCEB13FBEA3C
:1014E00013FAE913F9D8F122FCABF0AA83A98274AC
:1014F0009EF582C2D1EC30E716D2D1E9F42401F98D
:10150000EAF43400FAEBF43400FBECF43400FC129F
:101510000DA4020D55AA82AB83ACF07D007E008A3B
:10152000828B838CF012075DFFA3AA82AB83EF60EE
:10153000070DBD00EA0E80E78D828E832200000039
:00000001FF
