:1000000002000375815012014AE582600302006F0D
:10001000780079007A007B007C007D00EC4D601C4C
:1000200088828983E493A3A882A9838A828B83F040
:10003000A3AA82AB831CBCFFE31D80E07582007520
:1000400083007C007D00EC4D600AE4F0A31CBCFF43
:10005000F51D80F27582007583007C007D00EC4DFB
:10006000600AE4F0A31CBCFFF51D80F212014912E6
:10007000060A80FE436F6D6D616E643A2025730041
:10008000526573706F6E73653A2025730D0A000D0B
:100090000A4A44592D343020746573740D0A0041A6
:1000A000542B44564944393934340D0A0041542BF9
:1000B0005645520D0A0041542B424155440D0A0049
:1000C00041542B524649440D0A0041542B44564991
:1000D000440D0A0041542B5246430D0A0041542B53
:1000E000504F57450D0A0041542B434C53530D0AB2
:1000F000000D0A507265737320616E6420686F6C26
:10010000642074686520424F4F5420627574746F88
:100110006E20746F207472616E736D69742E0D0A97
:100120000025642C25640D0A004A4459343020749B
:100130006573742025640D0A0025730D0A003C4E7A
:100140004F20464C4F41543E002275A7007597DE64
:100150007597AD75FF8075EF0675A71075C1207591
:10016000A70075A90075A900E5A930E7FB75A903EB
:1001700075A903E5A930E7FB43A41143A60175E186
:100180000175E20075E341759810758DE6858D8BDC
:1001900053890F438920D28ED2997582002275A788
:1001A00000C2EF75B28075BC2075B91E75E8007588
:1001B000DF3F75B300D2EF22AA82438E407592B81A
:1001C0007593FF8592948593957591047B00C3EB9D
:1001D0009A500BE59130E7FB53917F0B80F07591BE
:1001E00000225389F0438901C28C2275C800438ED6
:1001F0001075CAEE75CBF675CEFF75CFFFD2ADD2B6
:10020000CAD2AF22C2CFB2B322AA82AB837C007D16
:1002100000C3EC9AED9B502B7E00BE0400501D7570
:1002200082FAC002C003C004C005C0061201B8D0E3
:1002300006D005D004D003D0020E80DE0CBC00D165
:100240000D80CE22AA828516F005F0740180022569
:10025000E0D5F0FBFB75A720BA0002800ABA0102C4
:10026000800FBA021E8014EBF4FA52F1EB42D480F4
:1002700012EBF4FA52F2EB42D58008EBF4FA52F3A7
:10028000EB42CC75A700228582BBC2EDD2EC30EDEB
:10029000FD85BD8285BE8322C2EDD2EC30EDFD85A9
:1002A000BD8285BE83221202871208B3AA82AB8365
:1002B000ACF0FDC002C003C004C00590333375F03C
:1002C0009B74401208F3AA82AB83ACF0FDE5812455
:1002D000FCF581E4C0E074FCC0E0747FC0E07446CB
:1002E000C0E08A828B838CF0ED120A8FAA82AB83E6
:1002F000ACF0FDE58124FCF5818A828B838CF0EDE6
:1003000022AA82AB83ACF0FD75A72075930C75C84B
:10031000107594008A168B178C188D1990A2007591
:10032000F04A740412084EAA82AB83ACF0FD751635
:1003300018E4F517F518F5198A828B838CF0ED1205
:10034000084EAA82AB83ACF0FDE4C39AFAE49BFBAF
:1003500074019CE49D8A958B96D2C943944075A7FD
:100360000022AA8275A72010C90280FB8A9275A775
:100370000022AA82AB83ACF08A828B838CF01208B5
:1003800032FD60188D82C002C003C004120362D027
:1003900004D003D0020ABA00DF0B80DC2275A7204C
:1003A00010C80280FB53C83F85928275A700227552
:1003B000A7207A007B0020C82675A700758214C08C
:1003C00002C0031201B8D003D00275A7200ABA00F8
:1003D000010BBAA8E1BB61DE75A70075820A22C2D3
:1003E000C853C83F85928275A70022AA82AB83AC0E
:1003F000F0C002C003C0041203AFAD82D004D0032A
:10040000D002BD0A0A8A828B838CF0E40209CC8A6E
:10041000828B838CF0ED1209CCA3AA82AB8380D1AE
:1004200075A720A2C875A70022AA82AB837C007D95
:1004300000C3EC9AED9B50477E00BE04005039C0CB
:1004400002C003C004C005C006120420E433D00675
:10045000D005D004D003D0026001227582FAC00218
:10046000C003C004C005C0061201B8D006D005D034
:1004700004D003D0020E80C20CBC00B50D80B222A5
:10048000AA82AB83ACF0C002C003C004C002C003A8
:10049000C0047474C0E07400C0E07480C0E012094D
:1004A000ABE58124FAF581C2B0900005120209D0B3
:1004B00004D003D0028A828B838CF01203729000E6
:1004C0003775F0401203EB90000A120209D2B074A3
:1004D00037C0E07400C0E07440C0E07480C0E074D5
:1004E00000C0E07480C0E01209ABE58124FAF58118
:1004F00022D2A07582281201B8C2A022AA828AE064
:10050000A2E79290A2E69291A2E59292A2E492933F
:10051000C0021204F17582281201B8D0028AE0A24A
:10052000E39290A2E29291A2E19292A2E0929302CF
:1005300004F1AA82D2978A821204FC90000202027D
:1005400009AA82C2978A821204FC9000050202095D
:10055000C2A09000141202097582331205417582FF
:100560003312054175823212054175822812054108
:1005700075820C120541758201120541900014022A
:100580000209AA82AB83ACF07402B509047DC08075
:10059000027D808D82C002C003C00412054190001C
:1005A00005120209D004D003D0027D007E00ED2A9E
:1005B000FFEE3BF88C018F82888389F0120832FFAE
:1005C00060208F82C002C003C004C005C0061205AF
:1005D00032D006D005D004D003D0020DBD00CF0E1E
:1005E00080CC3000248D028E03C3EA9410EB64802B
:1005F00094805015758220C002C003120532D003CA
:10060000D0020ABA00E30B80E02212019E9001F4AE
:10061000120209748FC0E07400C0E07480C0E01260
:1006200009AB158115811581902580E4F5F0120341
:100630000175160475820112024475160575820152
:1006400012024490009F75F0801204809000AD75F6
:10065000F0801204809000B675F080120480900043
:10066000C075F0801204809000CA75F0801204807A
:100670009000D475F0801204809000DD75F0801237
:1006800004809000E775F08012048074F1C0E0747B
:1006900000C0E07480C0E01209AB1581158115819E
:1006A0007A007B0075820AC002C0031202A6AC82E7
:1006B000AD83AEF0FFC004C005C006C007900000C7
:1006C00075F02074411208F3AC82AD83AEF0FFE503
:1006D0008124FCF5818C828D838EF0EF1208BF851A
:1006E000820C85830D75820B1202A6AE82AF83AC9D
:1006F000F0FDC006C007C004C00590000075F020E2
:1007000074411208F3AC82AD83AEF0FFE58124FCA6
:10071000F5818C828D838EF0EF1208BFAC82AD83A1
:10072000C004C005C00CC00D7421C0E07401C0E05D
:100730007480C0E07437C0E07400C0E07440C0E072
:10074000120A34E58124F6F58190003775F04012E5
:1007500003729000C8120429D003D002AC0AAD0B7A
:10076000C002C003C004C005120420E433D005D089
:1007700004D003D0027024758264C002C003C00498
:10078000C0051201B8D005D004D003D0020CBC00C3
:10079000010DC3EC94E8ED940340C58C0A8D0B2049
:1007A000B74B8A048B050ABA00010BC002C003C014
:1007B00004C0057429C0E07401C0E07480C0E07416
:1007C00037C0E07400C0E07440C0E0120A34E58134
:1007D00024F8F58190003775F04012037275822E6F
:1007E000120A7A9000C8120429D003D002C002C0B5
:1007F00003120420D003D00240030206A490003765
:1008000075F040C002C0031203EB7437C0E07400FF
:10081000C0E07440C0E07439C0E07401C0E074808E
:10082000C0E01209ABE58124FAF581D003D00202C1
:1008300006A420F71430F6148883A88220F507E672
:10084000A88375830022E280F7E49322E022FB7AFA
:1008500020E4FCFDFEFFE5822582F582E58333F589
:1008600083E5F033F5F0EB33FB4017DAE98042E53E
:10087000822582F582E58333F583E5F033F5F0EBED
:1008800033FBEC33FCED33FDEE33FEEF33FFEC9541
:1008900016ED9517EE9518EF95194013EC9516FC8B
:1008A000ED9517FDEE9518FEEF9519FF438201DADD
:1008B000BEEB22E4AC83AB82FAF9748E020BB71262
:1008C0000BC1700AE582458345F0700122E430D106
:1008D00012F4700BE5F0F47006E58330E701229026
:1008E000800022700AE5F07006E58320E70122907F
:1008F0007FFF22120C9EBC0003020C3DEF60FA3019
:10090000D502B2D1E583B4FF03020C53E582B4FFF4
:1009100003020C53258340072482400B020C3D2424
:1009200083145003020C53F582EA8DF0A4A8F0EA78
:100930008EF0A428F8E435F0F9EB8DF0A428E93521
:10094000F0F9E433CA8FF0A429F9EA35F0FAEBF8AC
:100950008EF0A429F9EA35F0FAE433FBEC8DF0A42B
:1009600029F9EA35F0FAE43BFBE88FF0A42AFAEB28
:1009700035F0FBE433CCFD8EF0A42AFAEB35F0FB26
:10098000E43CFCED8FF0A42BFBEC35F0FC20E703FE
:10099000120C6B020C1C020A7A8582308583318529
:1009A000F032851533900996020D55C008858108EF
:1009B000E50824FBF533E50824FBF886300886318A
:1009C000088632900996120D55D0082220F7103073
:1009D000F6118883A88220F507F6A8837583002284
:1009E000F280F7F022AA82AB0EAC0FAD108B828C96
:1009F000838DF0EA1209CC050EE4B50E02050F2234
:100A000085820E85830F85F0108511308512318522
:100A100013328514339009E5120D55AA82AB83ACCD
:100A20000EAD0FAE108C828D838EF0E41209CC8A4D
:100A3000828B8322C008858108E50824F8F533E518
:100A40000824FBF8860E08860F088610E50824F8AF
:100A5000F886300886310886329009E5120D55AACD
:100A600082AB83AC0EAD0FAE108C828D838EF0E422
:100A70001209CC8A828B83D00822AA82BA0A081073
:100A8000990280FB75990D10990280FB8A992212B8
:100A90000C9E30D502B2D1BF0009BC0003020C602D
:100AA000020C53BC0003020C3DE583B4FF0BE5824E
:100AB000B4FF03020C60020C3DE582B4FF03020C9C
:100AC00053C395835007247F400B020C3D248014B0
:100AD0005003020C53C0E0E4CCCBCAF98D168E173C
:100AE0008F18EF54F0C4F5197583068519F0EB845F
:100AF000F582E9C4F9EAC4FAEBC4FBEC540FC478FC
:100B000003D6FC18EBD6FB18EAD6FA8582F0EDA4E2
:100B1000A8F0FD8582F0EEA428FEE435F0F8858289
:100B2000F0EFA428FFE435F0F8E99DF9EA9EFAEB2E
:100B30009FFBEC98FCAD16AE17AF1830E71015828E
:100B4000E92DF9EA3EFAEB3FFBE43CFC80EDC08284
:100B5000D58398C3E933F9EA33FAEB33FBEC33FC82
:100B6000C3E99DEA9EEB9FEC9400B3E413F9D00235
:100B7000D0E0C44AFAD003D0E0C44BFBD004D0E0AC
:100B8000F5F0540FC44CFCD082158230F40FD3EC36
:100B900013FCEB13FBEA13FAE913F90582E930E7DA
:100BA0000A74012AFAE43BFBE43CFC020C34FCAB83
:100BB000F0AA83A982749EC2D1F582120C6B020C3A
:100BC0001C1212ECC3749E9582403979001212FEF9
:100BD00030D126E9F42401F582EAF43400F583EB00
:100BE000F43400F5F0ECF43400700AE582458345F6
:100BF000F0700122E430E70F22EC20E71489828AAA
:100C0000838BF02230D10AE4F582F583F5F074800D
:100C10002274FFF582F583F5F0747F22B98003EA30
:100C200013B34010EA2401FAE43BFBE43CFC50041B
:100C30007C800582BC000EBB000BBA0008E4F5F016
:100C4000F583F58222A2D1E582138CF092F78B8393
:100C50008A8222E4F583F58275F080F4A2D1132212
:100C6000E4F583F58275F0C0747F227804EC70118E
:100C7000E58224F8500AF582E4C9CACBFCD8EF22F9
:100C8000EC7820058220E713D5820122C3E933F9ED
:100C9000EA33FAEB33FBEC33FCD8EA158222AA8262
:100CA000AB83A2F73392D16002D2F7F582ACF0E5C4
:100CB0008124F9F8E6FD08E6FE0886F008E6A2F7CA
:100CC0003392D56002D2F7F583AFF022AA8274DDA9
:100CD000C0E0740CC0E0C022C0238A82220529E44F
:100CE000B52902052A22AA8274302AFA24C6500A9B
:100CF00074072AFA3001034302208A82020CCCE5F1
:100D000082FAC4540FF582C002120CE6D002740FAE
:100D10005AF582020CE6AA24AB25AC26AD27AE28F4
:100D2000752F20EE2EFEED235401FF4206EA2AFA2B
:100D3000EB33FBEC33FCED33FDC3EE952B4008EEBB
:100D4000C3952BFE430201D52FD98A248B258C26EF
:100D50008D278E2822858222858323E4F529F52A92
:100D6000AA30AB31AC328A828B838CF0120832FD10
:100D700074012AF530E43BF5318C32EDFA70030250
:100D800012E5BA250280030212DDC205C206C207BF
:100D9000C208C209C20AC20BC20CC202C203C20408
:100DA000752B00752C00752DFFAB30AC31AD328B3F
:100DB000828C838DF0120832FAA3AB82AC838B3025
:100DC0008C318D32BA25078A82120CCC80928A0629
:100DD000BE3000402E8A06EE24C6402774FFB52D93
:100DE00013E52C75F00AA4FEEA24D02EF52C70BF72
:100DF000D20680BBE52D75F00AA4FEEA24D02EF5BC
:100E00002D80ACBA2E0A74FFB52DA4752D00809FDD
:100E10008A06BE6100400E8A06EE24854007530212
:100E2000DFD2018002C201BA20028075BA23030218
:100E30000EB0BA2A03020EB5BA2B02805FBA2D0299
:100E40008055BA4202805FBA4303020EFABA4403E5
:100E5000021035BA450302104FBA460302104BBACE
:100E60004703021053BA4903021035BA4C02803BC3
:100E7000BA4E03021057BA4F0302103CBA50030295
:100E80000FCEBA5303020F1EBA5503021041BA58CF
:100E900003021046021081D205020DAFD207020DE7
:100EA000AFD208020DAFD20A020DAFD20B020DAFC6
:100EB000D20C020DAF74FFB52D20300A0BE53314B0
:100EC000F88833862C020DAFE53324FEF88833868C
:100ED00006088607188E2C020DAF300A0BE5331476
:100EE000F88833862D020DAFE53324FEF88833866B
:100EF00006088607188E2D020DAF300A0AE5331456
:100F0000F888338602800FE53324FEF888338603A1
:100F1000088604188B028A82120CCC021086E533F4
:100F200024FDF88833860308860408860518188B84
:100F3000248C258D268B828C838DF0121341AB82FD
:100F4000AC838B2E74FFB52D03852E2D20051DC37C
:100F5000E52E952C5016E52CC3952EF52CAB2C15B3
:100F60002CEB6008758220120CCC80F185248285E0
:100F700025838526F0120832FBFA6029AB2D152D4A
:100F8000C3E464808BF063F08095F050188A82127D
:100F90000CCCAB24AC25AD260BBB00010C8B248CF8
:100FA000258D2680C7200503021086C3E52E952CCB
:100FB0004003021086E52CC3952EF52CAB2C152C86
:100FC000EB7003021086758220120CCC80EEE533A4
:100FD00024FDF88833860308860408860518188BD4
:100FE000248C258D26E526FB30E7047A438013EB1D
:100FF000546060047A50800AEB30E6047A4980023B
:101000007A588A82C002120CCC75823A120CCC75C6
:101010008230120CCC758278120CCCD002BA490204
:10102000800BBA50028006852582120CFF8524822F
:10103000120CFF8051D209752B0A804A752B08804B
:1010400045752B0A8040752B10803BD2028037D229
:10105000038033D204802FE53324FDF888338603E0
:1010600008860408860518188B248C258D268B820B
:101070008C838DF0E5291209CCA3E52A1209CC80D6
:10108000058A82120CCC20020620030330045AE5A4
:101090003324FCF88833860308860408860508860E
:1010A000061818188B248C258D268E2775243E75DE
:1010B00025017526808524348525358526367401DD
:1010C0002534FEE43535FFAB368E248F258B2685FF
:1010D00034828535838536F0120832FBFA700302BC
:1010E0000D608A82120CCC80CCE52B7003020D605F
:1010F0007B50300A2BE53314F88833E6FC3395E057
:10110000FDFEFF8C248D258E268F2720095EAC24C2
:101110007D007E007F008C248D258E268F27804CBD
:10112000300B1FE53324FCF8883386040886050855
:1011300086060886071818188C248D258E268F277A
:10114000802AE53324FEF88833860408860518EDE6
:101150003395E0FEFF8C248D258E268F2720090CE9
:10116000AC24AD257E007F008E268F27300C43E512
:101170002445254526452760397408B52B0C758212
:1011800030C003120CCCD00380287410B52B23750B
:101190008230C003120CCCD00330010C758278C0B1
:1011A00003120CCCD003800A758258C003120CCCF9
:1011B000D003300925AC24AD25AE26E527FF30E766
:1011C00017C3E49CFCE49DFDE49EFEE49FFF8C2499
:1011D0008D258E268F278002C209752E00D20D8B99
:1011E00000752800C000120D16D000200D0DE52856
:1011F000C4FCE6FD4CF61888038002A628052EB232
:101200000DE52445254526452770D68803E52C7035
:1012100003752C0120061A200517E52E04FCC39542
:101220002C500E758220C003120CCCD003152C80DC
:10123000E930090E75822DC003120CCCD003152C99
:101240008024E52E602030070E75822BC003120C1F
:10125000CCD003152C800F30080C758220C00312EF
:101260000CCCD003152C20051EAC2C152CC3E52E60
:101270009C50273006047C3080027C208C82C00386
:10128000120CCCD00380E2C3E52E952C5009E52C3E
:10129000C3952EF52C8003752C008B00AB2E152EDC
:1012A000EB6022B20D200D0A08E6C4540FFB8B2818
:1012B00080078603740F5BF528852882C000120C16
:1012C000E6D00080D7200503020D60AB2C152CEB77
:1012D0007003020D60758220120CCC80EE8A82129F
:1012E0000CCC020D60852982852A8322AA82AB83D9
:1012F000A2F73392D16002D2F7F582ACF0226040BF
:10130000F82582500274FFF582E824F8501ECCCBF9
:10131000CAF9E4CC24F85014CBCAF9E4CB24F85031
:101320000BCAF9E4CA24F85003790022240860109B
:10133000F8C3EC13FCEB13FBEA13FAE913F9D8F149
:1013400022AA82AB83ACF07D007E008A828B838CE4
:10135000F0120832FFA3AA82AB83EF60070DBD0035
:10136000EA0E80E78D828E832200000000000000DC
:00000001FF
