:10000000020003758150120146E582600302006F11
:10001000780079007A007B007C007D00EC4D601C4C
:1000200088828983E493A3A882A9838A828B83F040
:10003000A3AA82AB831CBCFFE31D80E07582007520
:1000400083007C007D00EC4D600AE4F0A31CBCFF43
:10005000F51D80F27582007583007C007D00EC4DFB
:10006000600AE4F0A31CBCFFF51D80F212014512EA
:1000700003EF80FE436F6D6D616E643A202573005F
:10008000526573706F6E73653A2025730D0A000D0B
:100090000A4A44592D343020746573740D0A0041A6
:1000A000542B44564944393934340D0A0041542BF9
:1000B0005645520D0A0041542B424155440D0A0049
:1000C00041542B524649440D0A0041542B44564991
:1000D000440D0A0041542B5246430D0A0041542B53
:1000E000504F57450D0A0041542B434C53530D0AB2
:1000F000000D0A507265737320616E6420686F6C26
:10010000642074686520424F4F5420627574746F88
:100110006E20746F207472616E736D69742E0D0A97
:10012000004A4459343020746573742025640D0AE4
:100130000052583A2025730D0A003C4E4F20464C81
:100140004F41543E002275A7007597DE7597AD7537
:10015000FF8075EF0675A71075C12075A70075A9FA
:100160000075A900E5A930E7FB75A90375A903E5AA
:10017000A930E7FB43A41143A60175E10175E20034
:1001800075E341759810758DE6858D8B53890F4306
:100190008920D28ED29975820022AA82438E407520
:1001A00092B87593FF8592948593957591047B0021
:1001B000C3EB9A500BE59130E7FB53917F0B80F036
:1001C00075910022AA82AB837C007D00C3EC9AED7E
:1001D0009B502B7E00BE0400501D7582FAC002C0E9
:1001E00003C004C005C00612019AD006D005D00491
:1001F000D003D0020E80DE0CBC00D10D80CE22AA2E
:1002000082AB83ACF0FD75A72075930C75C8107593
:1002100094008A118B128C138D1490A20075F04AF1
:100220007404120522AA82AB83ACF0FD751118E4A8
:10023000F512F513F5148A828B838CF0ED120522EA
:10024000AA82AB83ACF0FDE4C39AFAE49BFB740191
:100250009CE49D8A958B96D2C943944075A7002251
:10026000AA8275A72010C90280FB8A9275A7002276
:10027000AA82AB83ACF08A828B838CF0120506FDD8
:1002800060188D82C002C003C004120260D004D086
:1002900003D0020ABA00DF0B80DC2275A72010C849
:1002A0000280FB53C83F85928275A7002275A72064
:1002B0007A007B0020C82675A700758214C002C092
:1002C0000312019AD003D00275A7200ABA00010BCD
:1002D000BAA8E1BB61DE75A70075820A22C2C853C5
:1002E000C83F85928275A70022AA82AB83ACF0C07A
:1002F00002C003C0041202ADAD82D004D003D0020C
:10030000BD0A0A8A828B838CF0E40205BD8A828B47
:10031000838CF0ED1205BDA3AA82AB8380D175A7B3
:1003200020A2C875A70022AA82AB837C007D00C3EF
:10033000EC9AED9B50477E00BE04005039C002C0CD
:1003400003C004C005C00612031EE433D006D00566
:10035000D004D003D0026001227582FAC002C0032B
:10036000C004C005C00612019AD006D005D004D042
:1003700003D0020E80C20CBC00B50D80B222AA824E
:10038000AB83ACF0C002C003C004C002C003C00411
:100390007474C0E07400C0E07480C0E012059CE595
:1003A0008124FAF581C2B09000051201C4D004D0B6
:1003B00003D0028A828B838CF01202709000377512
:1003C000F0401202E990000A1201C4D2B07437C0A2
:1003D000E07400C0E07440C0E07480C0E07400C00D
:1003E000E07480C0E012059CE58124FAF58122903A
:1003F00001F41201C4748FC0E07400C0E07480C0C6
:10040000E012059C158115811581902580E4F5F099
:100410001201FF90009F75F08012037E9000AD7571
:10042000F08012037E9000B675F08012037E90007B
:10043000C075F08012037E9000CA75F08012037EB2
:100440009000D475F08012037E9000DD75F080126C
:10045000037E9000E775F08012037E74F1C0E074B3
:1004600000C0E07480C0E012059C158115811581E3
:100470007A007B0020B74B8A048B050ABA00010B77
:10048000C002C003C004C0057421C0E07401C0E014
:100490007480C0E07437C0E07400C0E07440C0E015
:1004A000120625E58124F8F58190003775F0401299
:1004B000027075822E12066B9000C8120327D003BB
:1004C000D002C002C00312031EE433D003D0026086
:1004D000A390003775F040C002C0031202E97437E0
:1004E000C0E07400C0E07440C0E07431C0E074014A
:1004F000C0E07480C0E012059CE58124FAF581D04B
:1005000003D00202047420F71430F6148883A88202
:1005100020F507E6A88375830022E280F7E49322A2
:10052000E022FB7A20E4FCFDFEFFE5822582F582D5
:10053000E58333F583E5F033F5F0EB33FB4017DA71
:10054000E98042E5822582F582E58333F583E5F093
:1005500033F5F0EB33FBEC33FCED33FDEE33FEEF24
:1005600033FFEC9511ED9512EE9513EF95144013B2
:10057000EC9511FCED9512FDEE9513FEEF9514FF31
:10058000438201DABEEB2202066B8582308583311D
:1005900085F032851033900587020709C0088581F0
:1005A00008E50824FBF533E50824FBF886300886C7
:1005B00031088632900587120709D0082220F710EB
:1005C00030F6118883A88220F507F6A8837583008A
:1005D00022F280F7F022AA82AB09AC0AAD0B8B8223
:1005E0008C838DF0EA1205BD0509E4B50902050A00
:1005F0002285820985830A85F00B850C30850D31B3
:10060000850E32850F339005D6120709AA82AB8377
:10061000AC09AD0AAE0B8C828D838EF0E41205BD61
:100620008A828B8322C008858108E50824F8F53387
:10063000E50824FBF8860908860A08860BE50824E5
:10064000F8F886300886310886329005D6120709F8
:10065000AA82AB83AC09AD0AAE0B8C828D838EF07F
:10066000E41205BD8A828B83D00822AA82BA0A08C6
:1006700010990280FB75990D10990280FB8A9922CE
:10068000AA827491C0E07406C0E0C022C0238A82AE
:10069000220529E4B52902052A22AA8274302AFA01
:1006A00024C6500A74072AFA3000034302208A82C3
:1006B000020680E582FAC4540FF582C00212069A3F
:1006C000D002740F5AF58202069AAA24AB25AC26F2
:1006D000AD27AE28752F20EE2EFEED235401FF42EC
:1006E00006EA2AFAEB33FBEC33FCED33FDC3EE955F
:1006F0002B4008EEC3952BFE430201D52FD98A2447
:100700008B258C268D278E2822858222858323E4C3
:10071000F529F52AAA30AB31AC328A828B838CF072
:10072000120506FD74012AF530E43BF5318C32EDFB
:10073000FA7003020C99BA25028003020C91C204DC
:10074000C205C206C207C208C209C20AC20BC20160
:10075000C202C203752B00752C00752DFFAB30ACA7
:1007600031AD328B828C838DF0120506FAA3AB82F9
:10077000AC838B308C318D32BA25078A8212068089
:1007800080928A06BE3000402E8A06EE24C640279C
:1007900074FFB52D13E52C75F00AA4FEEA24D02EC3
:1007A000F52C70BFD20580BBE52D75F00AA4FEEADA
:1007B00024D02EF52D80ACBA2E0A74FFB52DA47569
:1007C0002D00809F8A06BE6100400E8A06EE2485B9
:1007D00040075302DFD2008002C200BA20028075B7
:1007E000BA2303020864BA2A03020869BA2B0280FA
:1007F0005FBA2D028055BA4202805FBA43030208F5
:10080000AEBA44030209E9BA4503020A03BA460331
:100810000209FFBA4703020A07BA49030209E9BA03
:100820004C02803BBA4E03020A0BBA4F030209F096
:10083000BA5003020982BA53030208D2BA5503021E
:1008400009F5BA58030209FA020A35D2040207630D
:10085000D206020763D207020763D209020763D2F6
:100860000A020763D20B02076374FFB52D2030091B
:100870000BE53314F88833862C020763E53324FE36
:10088000F888338606088607188E2C02076330091D
:100890000BE53314F88833862D020763E53324FE15
:1008A000F888338606088607188E2D0207633009FC
:1008B0000AE53314F888338602800FE53324FEF806
:1008C00088338603088604188B028A821206800207
:1008D0000A3AE53324FDF88833860308860408863F
:1008E0000518188B248C258D268B828C838DF01215
:1008F0000CA0AB82AC838B2E74FFB52D03852E2DFF
:1009000020041DC3E52E952C5016E52CC3952EF51D
:100910002CAB2C152CEB600875822012068080F120
:100920008524828525838526F0120506FBFA602939
:10093000AB2D152DC3E464808BF063F08095F050EF
:10094000188A82120680AB24AC25AD260BBB0001B1
:100950000C8B248C258D2680C7200403020A3AC301
:10096000E52E952C4003020A3AE52CC3952EF52C72
:10097000AB2C152CEB7003020A3A7582201206800C
:1009800080EEE53324FDF888338603088604088664
:100990000518188B248C258D26E526FB30E7047A74
:1009A000438013EB546060047A50800AEB30E60415
:1009B0007A4980027A588A82C00212068075823A89
:1009C000120680758230120680758278120680D0F9
:1009D00002BA4902800BBA500280068525821206AF
:1009E000B38524821206B38051D208752B0A804A3F
:1009F000752B088045752B0A8040752B10803BD2E3
:100A0000018037D2028033D203802FE53324FDF8F2
:100A10008833860308860408860518188B248C25DD
:100A20008D268B828C838DF0E5291205BDA3E52AE6
:100A30001205BD80058A821206802001062002036D
:100A400030035AE53324FCF888338603088604080B
:100A500086050886061818188B248C258D268E2767
:100A600075243A75250175268085243485253585BC
:100A7000263674012534FEE43535FFAB368E248FDF
:100A8000258B268534828535838536F0120506FB55
:100A9000FA70030207148A8212068080CCE52B705C
:100AA000030207147B5030092BE53314F88833E632
:100AB000FC3395E0FDFEFF8C248D258E268F2720AC
:100AC000085EAC247D007E007F008C248D258E2660
:100AD0008F27804C300A1FE53324FCF888338604C6
:100AE0000886050886060886071818188C248D25A0
:100AF0008E268F27802AE53324FEF8883386040863
:100B0000860518ED3395E0FEFF8C248D258E268F0B
:100B10002720080CAC24AD257E007F008E268F2771
:100B2000300B43E52445254526452760397408B533
:100B30002B0C758230C003120680D00380287410FD
:100B4000B52B23758230C003120680D00330000C11
:100B5000758278C003120680D003800A758258C05F
:100B600003120680D003300825AC24AD25AE26E55F
:100B700027FF30E717C3E49CFCE49DFDE49EFEE400
:100B80009FFF8C248D258E268F278002C208752E0C
:100B900000D20C8B00752800C0001206CAD00020BD
:100BA0000C0DE528C4FCE6FD4CF61888038002A66F
:100BB00028052EB20CE52445254526452770D68804
:100BC00003E52C7003752C0120051A200417E52E6F
:100BD00004FCC3952C500E758220C003120680D0F1
:100BE00003152C80E930080E75822DC00312068093
:100BF000D003152C8024E52E602030060E75822B44
:100C0000C003120680D003152C800F30070C7582AC
:100C100020C003120680D003152C20041EAC2C1516
:100C20002CC3E52E9C50273005047C3080027C20AC
:100C30008C82C003120680D00380E2C3E52E952C7F
:100C40005009E52CC3952EF52C8003752C008B00E4
:100C5000AB2E152EEB6022B20C200C0A08E6C45411
:100C60000FFB8B2880078603740F5BF5288528828D
:100C7000C00012069AD00080D7200403020714ABEC
:100C80002C152CEB7003020714758220120680804D
:100C9000EE8A82120680020714852982852A832221
:100CA000AA82AB83ACF07D007E008A828B838CF0BD
:100CB000120506FFA3AA82AB83EF60070DBD00EA11
:100CC0000E80E78D828E832200000000000000006D
:00000001FF
