:1000000002008E436F6D6D616E643A20257300525D
:100010006573706F6E73653A2025730D0A003C4E50
:100020004F20464C4F41543E00220000000000008B
:100050000000000000000000000000020175000028
:10008000000000000000000000000002016D75810A
:10009000501200FFE58260030200FA780079007ACE
:1000A000007B007C007D00EC4D601C88828983E42D
:1000B00093A3A882A9838A828B83F0A3AA82AB83AD
:1000C0001CBCFFE31D80E07582007583007C007D11
:1000D00000EC4D600AE4F0A31CBCFFF51D80F27536
:1000E00082007583007C007D00EC4D600AE4F0A383
:1000F0001CBCFFF51D80F212002912087480FE75E9
:10010000A7007597DE7597AD75FF8075EF0675A72B
:100110001075C12075A70075A90075A900E5A93063
:10012000E7FB75A90375A903E5A930E7FB43A41113
:1001300085A6A675E10175E20075E3417598107515
:100140008DE6858D8B53890F438920D28ED2997588
:10015000A71075980043A60175A2E075A3E375A4E6
:10016000FF75A5FF43F304D29A7582002275A7108C
:10017000C29FB2B232C0E0C002C003C004C005C01A
:10018000D075D00075A70030DC2FAB857A00AC8429
:100190007D00EC2AFAED3BFB3395E0FCFD74C82AA8
:1001A000FA740C3BFBE43CE43D8A047D008C848BB8
:1001B000027B008A85C2DCB286C2DFD0D0D005D0F7
:1001C00004D003D002D0E03275A700C2EF75B28030
:1001D00075BC2075B91E75E80075DF3F75B300D298
:1001E000EF22AA82438E407592B87593FF85929450
:1001F0008593957591047B00C3EB9A500BE5913084
:10020000E7FB53917F0B80F0759100225389F043F7
:100210008901C28C2275A700C2CFB2B322AA82ABD9
:10022000837C007D00C3EC9AED9B502B7E00BE04C6
:1002300000501D7582FAC002C003C004C005C0068C
:100240001201E2D006D005D004D003D0020E80DE29
:100250000CBC00D10D80CE22AA828516F005F07468
:1002600001800225E0D5F0FBFB75A720BA000280D3
:100270000ABA0102800FBA021E8014EBF4FA52F19E
:10028000EB42D48012EBF4FA52F2EB42D58008EB49
:10029000F4FA52F3EB42CC75A700228582BBC2ED83
:1002A000D2EC30EDFD85BD8285BE8322C2EDD2EC5D
:1002B00030EDFD85BD8285BE832212029B1208F6B9
:1002C000AA82AB83ACF0FDC002C003C004C005909D
:1002D000333375F09B744012094FAA82AB83ACF0A4
:1002E000FDE58124FCF581E4C0E074FCC0E0747F8E
:1002F000C0E07446C0E08A828B838CF0ED120AAFB6
:10030000AA82AB83ACF0FDE58124FCF5818A828B67
:10031000838CF0ED22AA82AB83ACF0FD75A720752B
:10032000930C75C8107594008A168B178C188D194C
:1003300090A20075F04A7404120891AA82AB83ACB3
:10034000F0FD751618E4F517F518F5198A828B83F8
:100350008CF0ED120891AA82AB83ACF0FDE4C39A55
:10036000FAE49BFB74019CE49D8A958B96D2C94369
:10037000944075A70022AA8275A72010C90280FBAD
:100380008A9275A70022AA82AB83ACF08A828B8303
:100390008CF0120875FD60188D82C002C003C00485
:1003A000120376D004D003D0020ABA00DF0B80DC3F
:1003B0002275A72010C80280FB53C83F8592827522
:1003C000A7002275A7207A007B0020C82675A70009
:1003D000758214C002C0031201E2D003D00275A7D7
:1003E000200ABA00010BBAA8E1BB61DE75A700754F
:1003F000820A22C2C853C83F85928275A70022AAEA
:1004000082AB83ACF0C002C003C0041203C3AD8250
:10041000D004D003D002BD0A0A8A828B838CF0E418
:10042000020A5E8A828B838CF0ED120A5EA3AA8296
:10043000AB8380D175A720A2C875A70022AA82AB82
:10044000837C007D00C3EC9AED9B50477E00BE0488
:10045000005039C002C003C004C005C006120434F5
:10046000E433D006D005D004D003D0026001227559
:1004700082FAC002C003C004C005C0061201E2D067
:1004800006D005D004D003D0020E80C20CBC00B54B
:100490000D80B222AA82AB83ACF0C002C003C004BC
:1004A000C002C003C0047403C0E07400C0E07480E4
:1004B000C0E0120A07E58124FAF581C2B090000578
:1004C00012021DD004D003D0028A828B838CF012DA
:1004D000038690003775F0401203FF90000A120265
:1004E0001DD2B07437C0E07400C0E07440C0E07446
:1004F0000FC0E07400C0E07480C0E0120A07E5811C
:1005000024FAF58122D2A07582281201E2C2A0222B
:10051000AA828AE0A2E79290A2E69291A2E5929244
:10052000A2E49293C0021205057582281201E2D05E
:10053000028AE0A2E39290A2E29291A2E19292A2B8
:10054000E09293020505C2B490000A12021DD2B4D3
:1005500022AA82D2978A8212051090000202021DFE
:10056000AA82C2978A8212051090000502021DC25B
:10057000A090001412021D7582331205607582333B
:100580001205607582321205607582281205607549
:10059000820C12056075820112056090001402023F
:1005A0001DAA82AB83ACF07402B509047DC0800241
:1005B0007D808D82C002C003C004120560900005DA
:1005C00012021DD004D003D0027D007E00ED2AFF70
:1005D000EE3BF88C018F82888389F0120875FF60EA
:1005E000208F82C002C003C004C005C0061205519E
:1005F000D006D005D004D003D0020DBD00CF0E80B0
:10060000CC3000248D028E03C3EA9410EB648094F6
:10061000805015758220C002C003120551D003D04E
:10062000020ABA00E30B80E022AA82AB83ACF0742A
:1006300002B50A0774C0450BFD80057480450BFDAB
:100640008D82C002C003C004120560D004D003D064
:10065000027D007E00ED2AFFEE3BF88C018F828840
:100660008389F0120875FF60208F82C002C003C02A
:1006700004C005C006120551D006D005D004D00331
:10068000D0020DBD00CF0E80CC2285821185831251
:10069000E50F250CFCE510350DFDAE0E8C828D832B
:1006A0008EF0E4120A5E751303E4F514C3E49513A7
:1006B000E464808514F063F08095F05072E50F24B7
:1006C000FFFEE51034FFFFEE250CF8EF350DF9AC19
:1006D0000E75160AE4F517851182851283C004C0D1
:1006E00006C007C000C001120A28AD82D001D000A8
:1006F000D007D006D00474302D888289838CF01204
:100700000A5E75160AE4F517851182851283C00604
:10071000C007120A77858211858312D007D0068E12
:100720000F8F10151374FFB5130215140206AC22B7
:1007300075824812056075821F120551758210126C
:100740000551758213120551758217120551758274
:100750001712055175821312055175821012055139
:1007600075821F02055175825012056075821F1235
:10077000055175820112055175821D120551758250
:100780001D12055175821D12055175821D120551EC
:1007900075820112055175821F020551758258122A
:1007A000056075821F120551758200120551758210
:1007B0001F12055175821F12055175821F120551B6
:1007C00075821F12055175820012055175821F0234
:1007D000055175826012056075821F120551758280
:1007E00010120551758210120551758210120551B3
:1007F0007582101205517582101205517582101202
:10080000055175821F020551758268120560758257
:100810001F12055175821012055175820012055183
:100820007582001205517582001205517582001201
:10083000055175820012055175821F02055175829E
:100840007012056075821F120551758201120551E3
:1008500075820112055175820112055175820112CE
:10086000055175820112055175820112055175827B
:100870001F0205512220F71430F6148883A8822025
:10088000F507E6A88375830022E280F7E49322E06F
:1008900022FB7A20E4FCFDFEFFE5822582F582E55D
:1008A0008333F583E5F033F5F0EB33FB4017DAE9FA
:1008B0008042E5822582F582E58333F583E5F033D6
:1008C000F5F0EB33FBEC33FCED33FDEE33FEEF33B1
:1008D000FFEC9516ED9517EE9518EF95194013EC72
:1008E0009516FCED9517FDEE9518FEEF9519FF4353
:1008F0008201DABEEB22E4AC83AB82FAF9748E0299
:100900000C00E516451760467A01E51625E0F51658
:10091000E517334012F517E5829516E583951740E4
:10092000030A80E6C3E51713F517E51613F516C39A
:10093000E5829516F5F0E58395174005F58385F07A
:1009400082C3E51713F517E51613F516DAE122123F
:100950000C8CBC0003020C2BEF60FA30D502B2D134
:10096000E583B4FF03020C41E582B4FF03020C41AE
:10097000258340072482400B020C2B248314500350
:10098000020C41F582EA8DF0A4A8F0EA8EF0A428CA
:10099000F8E435F0F9EB8DF0A428E935F0F9E4330B
:1009A000CA8FF0A429F9EA35F0FAEBF88EF0A42901
:1009B000F9EA35F0FAE433FBEC8DF0A429F9EA35D5
:1009C000F0FAE43BFBE88FF0A42AFAEB35F0FBE405
:1009D00033CCFD8EF0A42AFAEB35F0FBE43CFCEDC1
:1009E0008FF0A42BFBEC35F0FC20E703120C59022E
:1009F0000C0A0212DA85823085833185F032851542
:100A0000339009F2020D43C008858108E50824FBF4
:100A1000F533E50824FBF8863008863108863290E5
:100A200009F2120D43D00822C2D5E58330E70DD27A
:100A3000D5E4C39582F582E49583F583E51730E725
:100A40000BE4C39516F516E49517F5171209023055
:100A5000D50BE4C39582F582E49583F5832220F7D4
:100A60001030F6118883A88220F507F6A8837583D5
:100A70000022F280F7F022C2D5E58330E70DD2D50F
:100A8000E4C39582F582E49583F583E51730E70D9D
:100A9000B2D5E4C39516F516E49517F517120BCEEB
:100AA00030D50BE4C39582F582E49583F583221259
:100AB0000C8C30D502B2D1BF0009BC0003020C4E31
:100AC000020C41BC0003020C2BE583B4FF0BE58252
:100AD000B4FF03020C4E020C2BE582B4FF03020CA0
:100AE00041C395835007247F400B020C2B248014B4
:100AF0005003020C41C0E0E4CCCBCAF98D168E172E
:100B00008F18EF54F0C4F5197583068519F0EB843E
:100B1000F582E9C4F9EAC4FAEBC4FBEC540FC478DB
:100B200003D6FC18EBD6FB18EAD6FA8582F0EDA4C2
:100B3000A8F0FD8582F0EEA428FEE435F0F8858269
:100B4000F0EFA428FFE435F0F8E99DF9EA9EFAEB0E
:100B50009FFBEC98FCAD16AE17AF1830E71015826E
:100B6000E92DF9EA3EFAEB3FFBE43CFC80EDC08264
:100B7000D58398C3E933F9EA33FAEB33FBEC33FC62
:100B8000C3E99DEA9EEB9FEC9400B3E413F9D00215
:100B9000D0E0C44AFAD003D0E0C44BFBD004D0E08C
:100BA000F5F0540FC44CFCD082158230F40FD3EC16
:100BB00013FCEB13FBEA13FAE913F90582E930E7BA
:100BC0000A74012AFAE43BFBE43CFC020C227A1092
:100BD000E4FBFCE58225E0F582E58333F583EB3326
:100BE000FBEC33FCEB9516F5F0EC95174006FCABEF
:100BF000F0438201DADD22FCABF0AA83A982749E65
:100C0000C2D1F582120C59020C0AB98003EA13B35F
:100C10004010EA2401FAE43BFBE43CFC50047C80F5
:100C20000582BC000EBB000BBA0008E4F5F0F583AA
:100C3000F58222A2D1E582138CF092F78B838A820F
:100C400022E4F583F58275F080F4A2D11322E4F555
:100C500083F58275F0C0747F227804EC7011E58210
:100C600024F8500AF582E4C9CACBFCD8EF22EC780C
:100C700020058220E713D5820122C3E933F9EA3344
:100C8000FAEB33FBEC33FCD8EA158222AA82AB8361
:100C9000A2F73392D16002D2F7F582ACF0E581245D
:100CA000F9F8E6FD08E6FE0886F008E6A2F73392BA
:100CB000D56002D2F7F583AFF022AA8274CBC0E0F0
:100CC000740CC0E0C022C0238A82220529E4B52921
:100CD00002052A22AA8274302AFA24C6500A74070E
:100CE0002AFA3001034302208A82020CBAE582FA12
:100CF000C4540FF582C002120CD4D002740F5AF5FE
:100D000082020CD4AA24AB25AC26AD27AE28752FC1
:100D100020EE2EFEED235401FF4206EA2AFAEB33C1
:100D2000FBEC33FCED33FDC3EE952B4008EEC39591
:100D30002BFE430201D52FD98A248B258C268D27A3
:100D40008E2822858222858323E4F529F52AAA307C
:100D5000AB31AC328A828B838CF0120875FD740142
:100D60002AF530E43BF5318C32EDFA70030212D3F0
:100D7000BA250280030212CBC205C206C207C2080E
:100D8000C209C20AC20BC20CC202C203C204752B42
:100D900000752C00752DFFAB30AC31AD328B828CE1
:100DA000838DF0120875FAA3AB82AC838B308C3143
:100DB0008D32BA25078A82120CBA80928A06BE301A
:100DC00000402E8A06EE24C6402774FFB52D13E599
:100DD0002C75F00AA4FEEA24D02EF52C70BFD206A2
:100DE00080BBE52D75F00AA4FEEA24D02EF52D80F7
:100DF000ACBA2E0A74FFB52DA4752D00809F8A060B
:100E0000BE6100400E8A06EE248540075302DFD201
:100E1000018002C201BA20028075BA2303020E9E2D
:100E2000BA2A03020EA3BA2B02805FBA2D028055A4
:100E3000BA4202805FBA4303020EE8BA44030210CA
:100E400023BA450302103DBA4603021039BA4703DC
:100E5000021041BA4903021023BA4C02803BBA4E39
:100E600003021045BA4F0302102ABA5003020FBC06
:100E7000BA5303020F0CBA550302102FBA580302DB
:100E8000103402106FD205020D9DD207020D9DD2C3
:100E900008020D9DD20A020D9DD20B020D9DD20CAF
:100EA000020D9D74FFB52D20300A0BE53314F88830
:100EB00033862C020D9DE53324FEF8883386060820
:100EC0008607188E2C020D9D300A0BE53314F88826
:100ED00033862D020D9DE53324FEF88833860608FF
:100EE0008607188E2D020D9D300A0AE53314F88806
:100EF000338602800FE53324FEF8883386030886A4
:100F000004188B028A82120CBA021074E53324FD95
:100F1000F88833860308860408860518188B248C05
:100F2000258D268B828C838DF01212EFAB82AC83E1
:100F30008B2E74FFB52D03852E2D20051DC3E52EA8
:100F4000952C5016E52CC3952EF52CAB2C152CEBBF
:100F50006008758220120CBA80F185248285258371
:100F60008526F0120875FBFA6029AB2D152DC3E418
:100F700064808BF063F08095F050188A82120CBA6E
:100F8000AB24AC25AD260BBB00010C8B248C258D2E
:100F90002680C7200503021074C3E52E952C40035C
:100FA000021074E52CC3952EF52CAB2C152CEB7090
:100FB00003021074758220120CBA80EEE53324FD12
:100FC000F88833860308860408860518188B248C55
:100FD000258D26E526FB30E7047A438013EB546029
:100FE00060047A50800AEB30E6047A4980027A582D
:100FF0008A82C002120CBA75823A120CBA7582301B
:10100000120CBA758278120CBAD002BA4902800B5F
:10101000BA50028006852582120CED852482120CBE
:10102000ED8051D209752B0A804A752B08804575D1
:101030002B0A8040752B10803BD2028037D2038070
:1010400033D204802FE53324FDF8883386030886E5
:101050000408860518188B248C258D268B828C839A
:101060008DF0E529120A5EA3E52A120A5E80058A40
:1010700082120CBA20020620030330045AE53324FE
:10108000FCF8883386030886040886050886061857
:1010900018188B248C258D268E2775241E75250007
:1010A00075268085243485253585263674012534BA
:1010B000FEE43535FFAB368E248F258B26853482B2
:1010C0008535838536F0120875FBFA7003020D4EE4
:1010D0008A82120CBA80CCE52B7003020D4E7B5035
:1010E000300A2BE53314F88833E6FC3395E0FDFE37
:1010F000FF8C248D258E268F2720095EAC247D0051
:101100007E007F008C248D258E268F27804C300B0F
:101110001FE53324FCF88833860408860508860614
:101120000886071818188C248D258E268F27802A6C
:10113000E53324FEF88833860408860518ED3395D8
:10114000E0FEFF8C248D258E268F2720090CAC24F1
:10115000AD257E007F008E268F27300C43E5244589
:10116000254526452760397408B52B0C758230C09B
:1011700003120CBAD00380287410B52B237582306B
:10118000C003120CBAD00330010C758278C0031270
:101190000CBAD003800A758258C003120CBAD0036F
:1011A000300925AC24AD25AE26E527FF30E717C36F
:1011B000E49CFCE49DFDE49EFEE49FFF8C248D25D1
:1011C0008E268F278002C209752E00D20D8B0075E6
:1011D0002800C000120D04D000200D0DE528C4FC2D
:1011E000E6FD4CF61888038002A628052EB20DE510
:1011F0002445254526452770D68803E52C700375C0
:101200002C0120061A200517E52E04FCC3952C504E
:101210000E758220C003120CBAD003152C80E93061
:10122000090E75822DC003120CBAD003152C802430
:10123000E52E602030070E75822BC003120CBAD049
:1012400003152C800F30080C758220C003120CBAD5
:10125000D003152C20051EAC2C152CC3E52E9C505C
:10126000273006047C3080027C208C82C003120C64
:10127000BAD00380E2C3E52E952C5009E52CC39526
:101280002EF52C8003752C008B00AB2E152EEB60F9
:1012900022B20D200D0A08E6C4540FFB8B288007EC
:1012A0008603740F5BF528852882C000120CD4D009
:1012B0000080D7200503020D4EAB2C152CEB7003DC
:1012C000020D4E758220120CBA80EE8A82120CBA80
:1012D000020D4E852982852A8322AA82BA0A081025
:1012E000990280FB75990D10990280FB8A9922AAB8
:1012F00082AB83ACF07D007E008A828B838CF012FF
:101300000875FFA3AA82AB83EF60070DBD00EA0E4C
:1013100080E78D828E832200000000000000000024
:00000001FF
