:1000000002000375815012015DE582600302006FFA
:10001000780079007A007B007C007D00EC4D601C4C
:1000200088828983E493A3A882A9838A828B83F040
:10003000A3AA82AB831CBCFFE31D80E07582007520
:1000400083007C007D00EC4D600AE4F0A31CBCFF43
:10005000F51D80F27582007583007C007D00EC4DFB
:10006000600AE4F0A31CBCFFF51D80F212015C12D3
:10007000061D80FE436F6D6D616E643A202573002E
:10008000526573706F6E73653A2025730D0A000D0B
:100090000A4A44592D343020746573740D0A0041A6
:1000A000542B44564944393934340D0A0041542BF9
:1000B00052464944323537360D0A0041542B5645D5
:1000C000520D0A0041542B424155440D0A0041543F
:1000D0002B524649440D0A0041542B445649440DC5
:1000E0000A0041542B5246430D0A0041542B504FF5
:1000F00057450D0A0041542B434C53530D0A000D34
:100100000A507265737320616E6420686F6C64209E
:1001100074686520424F4F5420627574746F6E206E
:10012000746F207472616E736D69742E0D0A00789D
:100130003A2025640D0A00793A2025640D0A00252D
:100140003033647C253033640D0A00256C640D0A5D
:10015000003C4E4F20464C4F41543E002275A700B4
:100160007597DE7597AD75FF8075EF0675A71075ED
:10017000C12075A70075A90075A900E5A930E7FBA6
:1001800075A90375A903E5A930E7FB43A41143A6AC
:100190000175E10175E20075E341759810758DE612
:1001A000858D8B53890F438920D28ED29975820019
:1001B0002275A700C2EF75B28075BC2075B91E7597
:1001C000E80075DF3F75B300D2EF22AA82438E406C
:1001D0007592B87593FF8592948593957591047B7C
:1001E00000C3EB9A500BE59130E7FB53917F0B80F6
:1001F000F0759100225389F0438901C28C2275C8A1
:1002000000438E1075CAEE75CBF675CEFF75CFFF25
:10021000D2ADD2CAD2AF22C2CFB2B322AA82AB83AE
:100220007C007D00C3EC9AED9B502B7E00BE040049
:10023000501D7582FAC002C003C004C005C006127A
:1002400001CBD006D005D004D003D0020E80DE0C46
:10025000BC00D10D80CE22AA828512F005F0740177
:10026000800225E0D5F0FBFB75A720BA0002800ACA
:10027000BA0102800FBA021E8014EBF4FA52F1EBBD
:1002800042D48012EBF4FA52F2EB42D58008EBF440
:10029000FA52F3EB42CC75A700228582BBC2EDD2A5
:1002A000EC30EDFD85BD8285BE8322C2EDD2EC30FF
:1002B000EDFD85BD8285BE832212029A1208C9AA6D
:1002C00082AB83ACF0FDC002C003C004C005903314
:1002D0003375F09B7440120909AA82AB83ACF0FD20
:1002E000E58124FCF581E4C0E074FCC0E0747FC0CB
:1002F000E07446C0E08A828B838CF0ED120BABAACF
:1003000082AB83ACF0FDE58124FCF5818A828B838E
:100310008CF0ED22AA82AB83ACF0FD75A72075931B
:100320000C75C8107594008A128B138C148D15905F
:10033000A20075F04A7404120864AA82AB83ACF080
:10034000FD751218E4F513F514F5158A828B838C6C
:10035000F0ED120864AA82AB83ACF0FDE4C39AFA14
:10036000E49BFB74019CE49D8A958B96D2C94394CF
:100370004075A70022AA8275A72010C90280FB8AB7
:100380009275A70022AA82AB83ACF08A828B838C01
:10039000F0120848FD60188D82C002C003C004122C
:1003A0000375D004D003D0020ABA00DF0B80DC2230
:1003B00075A72010C80280FB53C83F85928275A79D
:1003C000002275A7207A007B0020C82675A700753B
:1003D0008214C002C0031201CBD003D00275A72043
:1003E0000ABA00010BBAA8E1BB61DE75A7007582ED
:1003F0000A22C2C853C83F85928275A70022AA82EA
:10040000AB83ACF0C002C003C0041203C2AD82D003
:1004100004D003D002BD0A0A8A828B838CF0E402E6
:100420000AFD8A828B838CF0ED120AFDA3AA82ABAF
:100430008380D175A720A2C875A70022AA82AB83AA
:100440007C007D00C3EC9AED9B50477E00BE04000B
:100450005039C002C003C004C005C006120433E412
:1004600033D006D005D004D003D0026001227582BB
:10047000FAC002C003C004C005C0061201CBD006FA
:10048000D005D004D003D0020E80C20CBC00B50D44
:1004900080B222AA82AB83ACF0C002C003C004C009
:1004A00002C003C0047474C0E07400C0E07480C073
:1004B000E0120ADCE58124FAF581C2B09000051251
:1004C000021CD004D003D0028A828B838CF01203EA
:1004D0008590003775F0401203FE90000A12021C4E
:1004E000D2B07437C0E07400C0E07440C0E07480E3
:1004F000C0E07400C0E07480C0E0120ADCE5812432
:10050000FAF58122D2A07582281201CBC2A022AABC
:10051000828AE0A2E79290A2E69291A2E59292A24C
:10052000E49293C0021205047582281201CBD00216
:100530008AE0A2E39290A2E29291A2E19292A2E0DA
:100540009293020504AA82D2978A8212050F900024
:100550000202021CAA82C2978A8212050F9000052D
:1005600002021CC2A090001412021C7582331205F4
:1005700054758233120554758232120554758228DF
:1005800012055475820C120554758201120554909F
:10059000001402021CAA82AB83ACF07402B50904F9
:1005A0007DC080027D808D82C002C003C004120520
:1005B0005490000512021CD004D003D0027D007EAE
:1005C00000ED2AFFEE3BF88C018F82888389F012C0
:1005D0000848FF60208F82C002C003C004C005C06D
:1005E00006120545D006D005D004D003D0020DBDBB
:1005F00000CF0E80CC3000248D028E03C3EA94100D
:10060000EB648094805015758220C002C0031205EF
:1006100045D003D0020ABA00E30B80E0221201B1F8
:100620009001F412021C748FC0E07400C0E074806A
:10063000C0E0120ADC158115811581902580E4F552
:10064000F012031475120475820112025775120517
:1006500075820112025790009F75F08012049390EA
:1006600000AD75F0801204939000BB75F080120409
:10067000939000C475F0801204939000CE75F080C2
:100680001204939000D875F0801204939000E275E4
:10069000F0801204939000EB75F0801204939000A8
:1006A000F575F08012049374FFC0E07400C0E0742C
:1006B00080C0E0120ADC15811581158175824D120A
:1006C000037590000512021C75820A1202B9AA82F3
:1006D000AB83ACF0FDC002C003C004C005900000B5
:1006E00075F0C87442120909AA82AB83ACF0FDE52B
:1006F0008124FCF5818A828B838CF0ED1208D5AAC7
:1007000082AB8375820BC002C0031202B9AC82AD0A
:1007100083AEF0FFC004C005C006C007900000759E
:10072000F0C87442120909AC82AD83AEF0FFE581D6
:1007300024FCF5818C828D838EF0EF1208D5AC827B
:10074000AD83D003D002C002C003C004C005C00204
:10075000C003742FC0E07401C0E07480C0E0120ACE
:10076000DCE58124FBF581D005D004C004C005C0C0
:1007700004C0057437C0E07401C0E07480C0E012AA
:100780000ADCE58124FBF581D005D004D003D0023A
:10079000C004C005C002C003743FC0E07401C0E0E3
:1007A0007480C0E07437C0E07400C0E07440C0E002
:1007B000120B65E58124F6F58190003775F0401243
:1007C00003857A007B00C002C003120433D003D03B
:1007D00002401C758264C002C0031201CBD003D05A
:1007E000020ABA00010BC3EA9464EB940040D712EA
:1007F000043340030206BC90003775F0401203FE3C
:1008000090003775F040120CCAAA82AB83BA060575
:10081000BB000280030206BC90003775F04012094D
:10082000ACAA82AB83ACF0FDC002C003C004C0051B
:10083000744BC0E07401C0E07480C0E0120ADCE5D3
:100840008124F9F5810206BC20F71430F614888360
:10085000A88220F507E6A88375830022E280F7E4EA
:100860009322E022FB7A20E4FCFDFEFFE582258254
:10087000F582E58333F583E5F033F5F0EB33FB40A8
:1008800017DAE98042E5822582F582E58333F58334
:10089000E5F033F5F0EB33FBEC33FCED33FDEE33F9
:1008A000FEEF33FFEC9512ED9513EE9514EF9515D1
:1008B0004013EC9512FCED9513FDEE9514FEEF95AB
:1008C00015FF438201DABEEB22E4AC83AB82FAF976
:1008D000748E020CFB120D05700AE582458345F00B
:1008E000700122E430D112F4700BE5F0F47006E5EB
:1008F0008330E7012290800022700AE5F07006E55F
:100900008320E70122907FFF22120DE2BC00030248
:100910000D81EF60FA30D502B2D1E583B4FF030256
:100920000D97E582B4FF03020D97258340072482CB
:10093000400B020D812483145003020D97F582EAC7
:100940008DF0A4A8F0EA8EF0A428F8E435F0F9EBD5
:100950008DF0A428E935F0F9E433CA8FF0A429F921
:10096000EA35F0FAEBF88EF0A429F9EA35F0FAE46A
:1009700033FBEC8DF0A429F9EA35F0FAE43BFBE80F
:100980008FF0A42AFAEB35F0FBE433CCFD8EF0A413
:100990002AFAEB35F0FBE43CFCED8FF0A42BFBECEA
:1009A00035F0FC20E703120DAF020D60AA82AB8385
:1009B000ACF0E4F522F523F524F5258A058B068CA9
:1009C000078D828E838FF0120848F8602EC374B9A9
:1009D00088F063F08095F04007E8648094B0501B85
:1009E0008D828E838FF0120848F8B82D02800CB8E3
:1009F0002B0280070DBD00C90E80C68D028E038FAD
:100A0000048D828E838FF0120848FDBD2D03D380A4
:100A100001C39201BD2D028003BD2B050ABA00015E
:100A20000B8A828B838CF0120848FD7003020AA1A6
:100A3000C3ED648094B0406974B98DF063F0809523
:100A4000F0405E8522128523138524148525159098
:100A5000000AE4F5F0C002C003C004C005120E1085
:100A600085822285832385F024F525D005D004D006
:100A700003D002ED3395E0FEED24D0FDEE34FFFE11
:100A80003395E0FFF8ED2522F522EE3523F523EF2F
:100A90003524F524E83525F5250ABA00010B020AAC
:100AA00021300113C3E49522FAE49523FBE4952455
:100AB000FCE49525FD8008AA22AB23AC24AD258A51
:100AC000828B838CF0ED2202149E858230858331E7
:100AD00085F032851133900AC7020F07C00885815F
:100AE00008E50824FBF533E50824FBF88630088682
:100AF00031088632900AC7120F07D0082220F7105B
:100B000030F6118883A88220F507F6A88375830044
:100B100022F280F7F022AA82AB0AAC0BAD0C8B82DA
:100B20008C838DF0EA120AFD050AE4B50A02050B72
:100B30002285820A85830B85F00C850D30850E3168
:100B4000850F32851033900B16120F07AA82AB83E4
:100B5000AC0AAD0BAE0C8C828D838EF0E4120AFDD4
:100B60008A828B8322C008858108E50824F8F53342
:100B7000E50824FBF8860A08860B08860CE508249D
:100B8000F8F88630088631088632900B16120F0767
:100B9000AA82AB83AC0AAD0BAE0C8C828D838EF037
:100BA000E4120AFD8A828B83D00822120DE230D52E
:100BB00002B2D1BF0009BC0003020DA4020D97BC14
:100BC0000003020D81E583B4FF0BE582B4FF03024D
:100BD0000DA4020D81E582B4FF03020D97C3958336
:100BE0005007247F400B020D812480145003020D16
:100BF00097C0E0E4CCCBCAF98D128E138F14EF545A
:100C0000F0C4F5157583068515F0EB84F582E9C40B
:100C1000F9EAC4FAEBC4FBEC540FC47803D6FC1811
:100C2000EBD6FB18EAD6FA8582F0EDA4A8F0FD8594
:100C300082F0EEA428FEE435F0F88582F0EFA428D7
:100C4000FFE435F0F8E99DF9EA9EFAEB9FFBEC989A
:100C5000FCAD12AE13AF1430E7101582E92DF9EA9E
:100C60003EFAEB3FFBE43CFC80EDC082D58398C3A9
:100C7000E933F9EA33FAEB33FBEC33FCC3E99DEAE1
:100C80009EEB9FEC9400B3E413F9D002D0E0C44A89
:100C9000FAD003D0E0C44BFBD004D0E0F5F0540F01
:100CA000C44CFCD082158230F40FD3EC13FCEB1350
:100CB000FBEA13FAE913F90582E930E70A74012A1D
:100CC000FAE43BFBE43CFC020D78AA82AB83ACF077
:100CD0007D007E008A828B838CF0120848FFA3AAD5
:100CE00082AB83EF60070DBD00EA0E80E78D828E38
:100CF0008322FCABF0AA83A982749EC2D1F5821232
:100D00000DAF020D601214B3C3749E958240397901
:100D1000001214C530D126E9F42401F582EAF43436
:100D200000F583EBF43400F5F0ECF43400700AE5E0
:100D300082458345F0700122E430E70F22EC20E782
:100D40001489828A838BF02230D10AE4F582F583FC
:100D5000F5F074802274FFF582F583F5F0747F223C
:100D6000B98003EA13B34010EA2401FAE43BFBE440
:100D70003CFC50047C800582BC000EBB000BBA001A
:100D800008E4F5F0F583F58222A2D1E582138CF018
:100D900092F78B838A8222E4F583F58275F080F4E2
:100DA000A2D11322E4F583F58275F0C0747F227816
:100DB00004EC7011E58224F8500AF582E4C9CACB2C
:100DC000FCD8EF22EC7820058220E713D58201229F
:100DD000C3E933F9EA33FAEB33FBEC33FCD8EA1519
:100DE0008222AA82AB83A2F73392D16002D2F7F5B6
:100DF00082ACF0E58124F9F8E6FD08E6FE0886F00D
:100E000008E6A2F73392D56002D2F7F583AFF0225D
:100E1000AAF0FBE5828512F0A4FCADF0E583851213
:100E2000F0A42DFDE435F0FEE5828513F0A42DFD40
:100E3000E5F03EFEE433FFEA8512F0A42EFEE5F075
:100E40003FFFE5838513F0A42EFEE5F03FFFE5822A
:100E50008514F0A42EFEE5F03FFFEB8512F0A42FE1
:100E6000FFEA8513F0A42FFFE5838514F0A42FFF7C
:100E7000E5828515F0A42F8EF08D838C8222AA82C4
:100E8000748FC0E0740EC0E0C022C0238A822205A5
:100E900029E4B52902052A22AA8274302AFA24C636
:100EA000500A74072AFA3002034302208A82020E93
:100EB0007EE582FAC4540FF582C002120E98D00269
:100EC000740F5AF582020E98AA24AB25AC26AD27E2
:100ED000AE28752F20EE2EFEED235401FF4206EAC8
:100EE0002AFAEB33FBEC33FCED33FDC3EE952B40DC
:100EF00008EEC3952BFE430201D52FD98A248B25FA
:100F00008C268D278E2822858222858323E4F5294D
:100F1000F52AAA30AB31AC328A828B838CF012086E
:100F200048FD74012AF530E43BF5318C32EDFA705E
:100F300003021497BA2502800302148FC206C20767
:100F4000C208C209C20AC20BC20CC20DC203C2044B
:100F5000C205752B00752C00752DFFAB30AC31AD83
:100F6000328B828C838DF0120848FAA3AB82AC835B
:100F70008B308C318D32BA25078A82120E7E809298
:100F80008A06BE3000402E8A06EE24C6402774FF33
:100F9000B52D13E52C75F00AA4FEEA24D02EF52C0D
:100FA00070BFD20780BBE52D75F00AA4FEEA24D0FD
:100FB0002EF52D80ACBA2E0A74FFB52DA4752D0028
:100FC000809F8A06BE6100400E8A06EE2485400797
:100FD0005302DFD2028002C202BA20028075BA2315
:100FE00003021062BA2A03021067BA2B02805FBAAA
:100FF0002D028055BA4202805FBA43030210ACBA98
:1010000044030211E7BA4503021201BA4603021172
:10101000FDBA4703021205BA49030211E7BA4C02AE
:10102000803BBA4E03021209BA4F030211EEBA50C6
:1010300003021180BA53030210D0BA55030211F310
:10104000BA58030211F8021233D206020F61D20815
:10105000020F61D209020F61D20B020F61D20C02A2
:101060000F61D20D020F6174FFB52D20300B0BE51F
:101070003314F88833862C020F61E53324FEF88898
:10108000338606088607188E2C020F61300B0BE59D
:101090003314F88833862D020F61E53324FEF88877
:1010A000338606088607188E2D020F61300B0AE57D
:1010B0003314F888338602800FE53324FEF8883332
:1010C0008603088604188B028A82120E7E0212386A
:1010D000E53324FDF888338603088604088605185E
:1010E000188B248C258D268B828C838DF0120CCA54
:1010F000AB82AC838B2E74FFB52D03852E2D20067D
:101100001DC3E52E952C5016E52CC3952EF52CAB62
:101110002C152CEB6008758220120E7E80F1852440
:10112000828525838526F0120848FBFA6029AB2DBD
:10113000152DC3E464808BF063F08095F050188A1D
:1011400082120E7EAB24AC25AD260BBB00010C8BAE
:10115000248C258D2680C7200603021238C3E52E75
:10116000952C4003021238E52CC3952EF52CAB2CA0
:10117000152CEB7003021238758220120E7E80EE61
:10118000E53324FDF88833860308860408860518AD
:10119000188B248C258D26E526FB30E7047A4380C6
:1011A00013EB546060047A50800AEB30E6047A490D
:1011B00080027A588A82C002120E7E75823A120E1E
:1011C0007E758230120E7E758278120E7ED002BA43
:1011D0004902800BBA50028006852582120EB18525
:1011E0002482120EB18051D20A752B0A804A752BC7
:1011F000088045752B0A8040752B10803BD20380F8
:1012000037D2048033D205802FE53324FDF88833AC
:10121000860308860408860518188B248C258D26DD
:101220008B828C838DF0E529120AFDA3E52A120A30
:10123000FD80058A82120E7E2003062004033005FD
:101240005AE53324FCF888338603088604088605AB
:101250000886061818188B248C258D268E27752451
:1012600051752501752680852434852535852636DA
:1012700074012534FEE43535FFAB368E248F258B83
:10128000268534828535838536F0120848FBFA704E
:1012900003020F128A82120E7E80CCE52B700302AD
:1012A0000F127B50300B2BE53314F88833E6FC33F8
:1012B00095E0FDFEFF8C248D258E268F27200A5E6B
:1012C000AC247D007E007F008C248D258E268F2708
:1012D000804C300C1FE53324FCF8883386040886E4
:1012E000050886060886071818188C248D258E2672
:1012F0008F27802AE53324FEF88833860408860584
:1013000018ED3395E0FEFF8C248D258E268F272047
:101310000A0CAC24AD257E007F008E268F27300D71
:1013200043E52445254526452760397408B52B0C2F
:10133000758230C003120E7ED00380287410B52B46
:1013400023758230C003120E7ED00330020C7582EA
:1013500078C003120E7ED003800A758258C0031233
:101360000E7ED003300A25AC24AD25AE26E527FF3E
:1013700030E717C3E49CFCE49DFDE49EFEE49FFF80
:101380008C248D258E268F278002C20A752E00D2CE
:101390000E8B00752800C000120EC8D000200E0D64
:1013A000E528C4FCE6FD4CF61888038002A6280553
:1013B0002EB20EE52445254526452770D68803E53F
:1013C0002C7003752C0120071A200617E52E04FC4B
:1013D000C3952C500E758220C003120E7ED00315CB
:1013E0002C80E9300A0E75822DC003120E7ED003C8
:1013F000152C8024E52E602030080E75822BC0034A
:10140000120E7ED003152C800F30090C758220C07F
:1014100003120E7ED003152C20061EAC2C152CC3F7
:10142000E52E9C50273007047C3080027C208C8283
:10143000C003120E7ED00380E2C3E52E952C500926
:10144000E52CC3952EF52C8003752C008B00AB2E5C
:10145000152EEB6022B20E200E0A08E6C4540FFBD4
:101460008B2880078603740F5BF528852882C000CF
:10147000120E98D00080D7200603020F12AB2C1555
:101480002CEB7003020F12758220120E7E80EE8A02
:1014900082120E7E020F12852982852A8322AA8259
:1014A000BA0A0810990280FB75990D10990280FB09
:1014B0008A9922AA82AB83A2F73392D16002D2F733
:1014C000F582ACF0226040F82582500274FFF5826C
:1014D000E824F8501ECCCBCAF9E4CC24F85014CB45
:1014E000CAF9E4CB24F8500BCAF9E4CA24F8500333
:1014F00079002224086010F8C3EC13FCEB13FBEA1C
:1015000013FAE913F9D8F1220000000000000000EE
:00000001FF
