:10000000020003758158120145E582600302006F0A
:10001000780079007A007B007C007D00EC4D601C4C
:1000200088828983E493A3A882A9838A828B83F040
:10003000A3AA82AB831CBCFFE31D80E07582007520
:1000400083007C007D00EC4D600AE4F0A31CBCFF43
:10005000F51D80F27582007583007C007D00EC4DFB
:10006000600AE4F0A31CBCFFF51D80F212014412EB
:10007000060580FE436F6D6D616E643A2025730046
:10008000526573706F6E73653A2025730D0A000D0B
:100090000A4A44592D343020746573740D0A0041A6
:1000A000542B44564944393934340D0A0041542BF9
:1000B0005645520D0A0041542B424155440D0A0049
:1000C00041542B524649440D0A0041542B44564991
:1000D000440D0A0041542B5246430D0A0041542B53
:1000E000504F57450D0A0041542B434C53530D0AB2
:1000F000000D0A507265737320616E6420686F6C26
:10010000642074686520424F4F5420627574746F88
:100110006E20746F207472616E736D69742E0D0A97
:100120000025662025660D0A004A445934302074A3
:100130006573742025640D0A00467265713A2025A6
:10014000730D0A002275A7007597DE7597AD75FFD0
:100150008075EF0675A71075C12075A70075A900F9
:1001600075A900E5A930E7FB75A90375A903E5A901
:1001700030E7FB43A41143A60175E10175E2007568
:10018000E341759810758DE6858D8B53890F4389F2
:1001900020D28ED2997582002275A700C2EF75B267
:1001A0008075BC2075B91E75E80075DF3F75B3001A
:1001B000D2EF22AA82438E407592B87593FF859242
:1001C000948593957591047B00C3EB9A500BE59150
:1001D00030E7FB53917F0B80F0759100225389F03B
:1001E000438901C28C2275C800438E1075CAEE7512
:1001F000CBF675CEFF75CFFFD2ADD2CAD2AF22C239
:10020000CFB2B322AA82AB837C007D00C3EC9AED0F
:100210009B502B7E00BE0400501D7582FAC002C0A8
:1002200003C004C005C0061201B3D006D005D00437
:10023000D003D0020E80DE0CBC00D10D80CE22AAED
:1002400082851CF005F07401800225E0D5F0FBFBEF
:1002500075A720BA0002800ABA0102800FBA021EF6
:100260008014EBF4FA52F1EB42D48012EBF4FA5220
:10027000F2EB42D58008EBF4FA52F3EB42CC75A7CF
:1002800000228582BBC2EDD2EC30EDFD85BD8285BA
:10029000BE8322C2EDD2EC30EDFD85BD8285BE83EA
:1002A0002212028212084EAA82AB83ACF0FDC00279
:1002B000C003C004C00590333375F09B744012082E
:1002C0008AAA82AB83ACF0FDE58124FCF581E4C011
:1002D000E074FCC0E0747FC0E07446C0E08A828BAA
:1002E000838CF0ED120C4AAA82AB83ACF0FDE58161
:1002F00024FCF5818A828B838CF0ED22AA82AB8369
:10030000ACF0FD75A72075930C75C8107594008A24
:100310001C8B1D8C1E8D1F90A20075F04A74041258
:1003200007E9AA82AB83ACF0FD751C18E4F51DF556
:100330001EF51F8A828B838CF0ED1207E9AA82AB2F
:1003400083ACF0FDE4C39AFAE49BFB74019CE49D4A
:100350008A958B96D2C943944075A70022AA8275CC
:10036000A72010C90280FB8A9275A70022AA82AB3F
:1003700083ACF08A828B838CF01207CDFD60188DE0
:1003800082C002C003C00412035DD004D003D002B7
:100390000ABA00DF0B80DC2275A72010C80280FBA0
:1003A00053C83F85928275A7002275A7207A007BEB
:1003B0000020C82675A700758214C002C003120170
:1003C000B3D003D00275A7200ABA00010BBAA8E186
:1003D000BB61DE75A70075820A22C2C853C83F857B
:1003E000928275A70022AA82AB83ACF0C002C00340
:1003F000C0041203AAAD82D004D003D002BD0A0A01
:100400008A828B838CF0E4020B878A828B838CF048
:10041000ED120B87A3AA82AB8380D175A720A2C857
:1004200075A70022AA82AB837C007D00C3EC9AED05
:100430009B50477E00BE04005039C002C003C00478
:10044000C005C00612041BE433D006D005D004D08A
:1004500003D0026001227582FAC002C003C004C04A
:1004600005C0061201B3D006D005D004D003D002D7
:100470000E80C20CBC00B50D80B222AA82AB83AC48
:10048000F0C002C003C004C002C003C0047474C042
:10049000E07400C0E07480C0E0120B66E58124FACD
:1004A000F581C2B0900005120204D004D003D0023E
:1004B0008A828B838CF012036D90003575F04012A8
:1004C00003E690000A120204D2B07435C0E0740052
:1004D000C0E07440C0E07480C0E07400C0E074808C
:1004E000C0E0120B66E58124FAF58122D2A0758264
:1004F000281201B3C2A022AA828AE0A2E79290A2A7
:10050000E69291A2E59292A2E49293C0021204ECC8
:100510007582281201B3D0028AE0A2E39290A2E28F
:100520009291A2E19292A2E092930204ECAA82D26A
:10053000978A821204F7900002020204AA82C297EC
:100540008A821204F7900005020204C2A0900014EF
:1005500012020475823312053C75823312053C7514
:10056000823212053C75822812053C75820C1205F8
:100570003C75820112053C900014020204AA82AB71
:1005800083ACF07402B509047DC080027D808D8249
:10059000C002C003C00412053C900005120204D042
:1005A00004D003D0027D007E00ED2AFFEE3BF88CE4
:1005B000018F82888389F01207CDFF60208F82C06F
:1005C00002C003C004C005C00612052DD006D00528
:1005D000D004D003D0020DBD00CF0E80CC3000245B
:1005E0008D028E03C3EA9410EB64809480501575DD
:1005F0008220C002C00312052DD003D0020ABA0027
:10060000E30B80E0221201999001F4120204748F2E
:10061000C0E07400C0E07480C0E0120B6615811564
:10062000811581902580E4F5F01202FC751C04759B
:10063000820212023F751C0575820212023F900071
:100640009F75F08012047B9000AD75F08012047BE2
:100650009000B675F08012047B9000C075F0801297
:10066000047B9000CA75F08012047B9000D475F072
:100670008012047B9000DD75F08012047B9000E70F
:1006800075F08012047B74F1C0E07400C0E07480E7
:10069000C0E0120B661581158115817A007B00750B
:1006A000820AC002C0031202A185820A85830B85DB
:1006B000F00CF50D75820B1202A1AC82AD83AEF089
:1006C000FFC004C005C006C007C00AC00BC00CC0F4
:1006D0000D7421C0E07401C0E07480C0E07435C0C6
:1006E000E07400C0E07440C0E0120BEFE58124F23A
:1006F000F58190003575F04012036D9000C812042A
:1007000024D003D00220B74B8A048B050ABA00011B
:100710000BC002C003C004C0057429C0E07401C04E
:10072000E07480C0E07435C0E07400C0E07440C084
:10073000E0120BEFE58124F8F58190003575F0406B
:1007400012036D75822E120C359000C8120424D04D
:1007500003D002C002C00312041BD003D002400326
:1007600002069F90003575F040C002C0031203E6F8
:100770007435C0E07400C0E07440C0E07439C0E07B
:100780007401C0E07480C0E0120B66E58124FAF5C4
:100790008190003575F04012092DAC82AD83AEF02A
:1007A000FFE4C0E07440C0E0741CC0E07445C0E0E9
:1007B0008C828D838EF0EF12085AAC82E58124FC86
:1007C000F581D003D002EC600302069F2220F714CB
:1007D00030F6148883A88220F507E6A88375830085
:1007E00022E280F7E49322E022FB7A20E4FCFDFE83
:1007F000FFE5822582F582E58333F583E5F033F565
:10080000F0EB33FB4017DAE98042E5822582F5827E
:10081000E58333F583E5F033F5F0EB33FBEC33FCA4
:10082000ED33FDEE33FEEF33FFEC951CED951DEE41
:10083000951EEF951F4013EC951CFCED951DFDEEEC
:10084000951EFEEF951FFF438201DABEEB22E4AC5A
:1008500083AB82FAF9748E020D72FFA88118181208
:100860000D9AD2D133E6400730E70B758200222083
:10087000E70675820122C2D1120D7CE97003F58270
:100880002220D101B3E433F58222120E47BC0003CB
:10089000020DE6EF60FA30D502B2D1E583B4FF0372
:1008A000020DFCE582B4FF03020DFC258340072402
:1008B00082400B020DE62483145003020DFCF582E6
:1008C000EA8DF0A4A8F0EA8EF0A428F8E435F0F957
:1008D000EB8DF0A428E935F0F9E433CA8FF0A429B0
:1008E000F9EA35F0FAEBF88EF0A429F9EA35F0FAD6
:1008F000E433FBEC8DF0A429F9EA35F0FAE43BFB94
:10090000E88FF0A42AFAEB35F0FBE433CCFD8EF04F
:10091000A42AFAEB35F0FBE43CFCED8FF0A42BFBB2
:10092000EC35F0FC20E703120E14020DC5AA82ABD1
:1009300083ACF0751A00751B00C2038A058B068C08
:10094000078D828E838FF01207CDF8B820028003C6
:10095000B809070DBD00EA0E80E78D028E038F04F3
:10096000B82D0DD20174012DFAE43EFB8F04800EE8
:10097000C201B82B0974012DFAE43EFB8F047516F1
:10098000007517007518007519008A058B068C070D
:100990008D828E838FF01207CDF8F9B930004005B3
:1009A000E824C650128D828E838FF01207CDF8B8DE
:1009B0002E028003020A628D828E838FF01207CD91
:1009C000F9B92E05D203020A5AC005C006C007C0F5
:1009D00005C006C007C001C016C017C018C01990D6
:1009E000000075F020744112088A858216858317ED
:1009F00085F018F519E58124FCF581D001D007D0E8
:100A000006D005E93395E0FDE924D0F582ED34FF09
:100A1000F583120ECEAD82AE83AFF0F9C005C006ED
:100A2000C007C005C006C007C001851682851783B0
:100A30008518F0E519120E7585821685831785F0E5
:100A400018F519E58124FCF581D007D006D005D032
:100A500007D006D005300302151A0DBD00010E02A5
:100A600009905300DF8D828E838FF0E8120B87B8D8
:100A7000456274012DFAE43EFB8F048A828B838CDD
:100A8000F01207CDFDBD2D09D2020ABA000D0B8070
:100A90000AC202BD2B050ABA00010B751B008A822F
:100AA0008B838CF01207CDFDFEBE3000401D8D06FD
:100AB000EE24C64016E51B75F00AA4F51BED24D004
:100AC000251BF51B0ABA00D60B80D3300206C3E4FF
:100AD000951BF51BE51A251BF51BE51B6055E51B52
:100AE00030E728C016C017C018C01990CCCD75F0DB
:100AF000CC743D12088A85821685831785F018F517
:100B000019E58124FCF581051B80CFC016C017C0F4
:100B100018C01990000075F020744112088A85826F
:100B20001685831785F018F519E58124FCF58115E4
:100B30001B80A730010F851616851717851818E535
:100B400019B2E7F5198516828517838518F0E5191E
:100B500022020C3585823185833285F03385153448
:100B6000900B510212BAC008858108E50824FBF5F4
:100B700034E50824FBF88631088632088633900B6A
:100B8000511212BAD0082220F71030F6118883A82B
:100B90008220F507F6A88375830022F280F7F02201
:100BA000AA82AB0EAC0FAD108B828C838DF0EA1253
:100BB0000B87050EE4B50E02050F2285820E858394
:100BC0000F85F01085113185123285133385143469
:100BD000900BA01212BAAA82AB83AC0EAD0FAE106E
:100BE0008C828D838EF0E4120B878A828B8322C0E5
:100BF00008858108E50824F8F534E50824FBF88623
:100C00000E08860F088610E50824F8F88631088655
:100C100032088633900BA01212BAAA82AB83AC0EB4
:100C2000AD0FAE108C828D838EF0E4120B878A821A
:100C30008B83D00822AA82BA0A0810990280FB7519
:100C4000990D10990280FB8A9922120E4730D50225
:100C5000B2D1BF0009BC0003020E09020DFCBC00AA
:100C600003020DE6E583B4FF0BE582B4FF03020E39
:100C700009020DE6E582B4FF03020DFCC395835023
:100C800007247F400B020DE62480145003020DFC64
:100C9000C0E0E4CCCBCAF98D1C8E1D8F1EEF54F042
:100CA000C4F51F758306851FF0EB84F582E9C4F94E
:100CB000EAC4FAEBC4FBEC540FC47803D6FC18EB7F
:100CC000D6FB18EAD6FA8582F0EDA4A8F0FD85825D
:100CD000F0EEA428FEE435F0F88582F0EFA428FFBA
:100CE000E435F0F8E99DF9EA9EFAEB9FFBEC98FCFD
:100CF000AD1CAE1DAF1E30E7101582E92DF9EA3E9E
:100D0000FAEB3FFBE43CFC80EDC082D58398C3E95D
:100D100033F9EA33FAEB33FBEC33FCC3E99DEA9E8B
:100D2000EB9FEC9400B3E413F9D002D0E0C44AFA8C
:100D3000D003D0E0C44BFBD004D0E0F5F0540FC496
:100D40004CFCD082158230F40FD3EC13FCEB13FB78
:100D5000EA13FAE913F90582E930E70A74012AFA7D
:100D6000E43BFBE43CFC020DDDFCABF0AA83A98272
:100D7000749EC2D1F582120E14020DC57901AA82A9
:100D8000E68F82B5821318E6B5F00E18E6B5830932
:100D900018E68A82B58202790022B4800FE5F070ED
:100DA0000AE5837006E58270027F00EFB6801518B1
:100DB000B6001018B6000B18B60006080808760032
:100DC0002208080822B98003EA13B34010EA24017C
:100DD000FAE43BFBE43CFC50047C800582BC000E42
:100DE000BB000BBA0008E4F5F0F583F58222A2D12E
:100DF000E582138CF092F78B838A8222E4F583F5E7
:100E00008275F080F4A2D11322E4F583F58275F0A7
:100E1000C0747F227804EC7011E58224F8500AF542
:100E200082E4C9CACBFCD8EF22EC7820058220E707
:100E300013D5820122C3E933F9EA33FAEB33FBEC31
:100E400033FCD8EA158222AA82AB83A2F73392D16F
:100E50006002D2F7F582ACF0E58124F9F8E6FD08EE
:100E6000E6FE0886F008E6A2F73392D56002D2F7D4
:100E7000F583AFF022120E477900E583B582028038
:100E80000D5003121867E583C39582121881E5D0CF
:100E9000C465D020E117EA2DFAEB3EFBEC3FFC5095
:100EA000097401121881EC4480FC020DC5C3EA9D4F
:100EB000FAEB9EFBEC9FFC500FC3E499F9E49AFA1D
:100EC000E49BFBE49CFCB2D1120E14020DC5AC8372
:100ED000AB827A007900748E0218CDAA8274ECC0BD
:100EE000E0740EC0E0C023C0248A8222052AE4B543
:100EF0002A02052B22AA8274302AFA24C6500A74C8
:100F0000072AFA3004034302208A82020EDBE582BC
:100F1000FAC4540FF582C002120EF5D002740F5AB3
:100F2000F582020EF5AA25AB26AC27AD28AE2975B1
:100F30003020EE2EFEED235401FF4206EA2AFAEBA2
:100F400033FBEC33FCED33FDC3EE952C4008EEC3D0
:100F5000952CFE430201D530D98A258B268C278D0E
:100F6000288E29227855E624D075F00AA4FA7856FE
:100F7000E624D02AFA78548603BB2D04C3E49AFAF7
:100F8000752C01C3E464808AF063F08095F05029E9
:100F90007530038A0374F62530401C052CE53014A7
:100FA0002449F8E5302449F98704A604772E1BEB81
:100FB000FA6004053080DE8B02EA30E70D784A865D
:100FC00003784BA603784A762E0AE52E600AE52EB2
:100FD00004FB252CF52C8005300F02052C78498662
:100FE00003E4BB2D0104FB7006200A03300B02054D
:100FF0002C3008030210AB300957EB600C75822DC2
:10100000C002120EDBD002801C300A0C75822BC08D
:1010100002120EDBD002800D300B0A758220C00256
:10102000120EDBD002784A8604BC2E0C758230C0CA
:1010300002120EDBD002152DAC2D152DC3E52C9C14
:1010400040030210EF758230C002120EDBD0028026
:10105000E7AC2D152DC3E52C9C500C758220C002E9
:10106000120EDBD00280EA78498604BC2D0C758212
:101070002DC002120EDBD002801C300A0C75822BB0
:10108000C002120EDBD002800D300B0A758220C028
:1010900002120EDBD002784A8604BC2E52758230D2
:1010A000C002120EDBD002152D8044EB600E75825B
:1010B0002DC002120EDBD002152D8020300A0E75D5
:1010C000822BC002120EDBD002152D800F300B0CCC
:1010D000758220C002120EDBD002152D784A8603DD
:1010E000BB2E0C758230C002120EDBD002152D759E
:1010F0003001C211E5302449F88603BB45030211D3
:10110000ACBB2E348A03C3E464808BF063F080951B
:10111000F0500F758230C003120EDBD0031B8B0220
:1011200080E48B02D211E52E7038200F030211AC3F
:1011300075822E120EDB80743011278A03EB30E7A4
:101140001FC3E46480852EF063F08095F0500C7529
:101150008230C003120EDBD003152E0B8B0280DD14
:101160008B0230110EC3E46480852EF063F080950D
:10117000F05021E5302449F886038B82C002120E1C
:10118000DBD00230110EE5302449F88603BB2E0275
:101190008002152E152DC3E46480852EF063F08047
:1011A00095F0400320110505300210F4C3E464807B
:1011B000852EF063F08095F0500A758230120EDBB8
:1011C000152E80E830080FAA2D152DEA60087582CB
:1011D00020120EDB80F122E52E7003300F0D740714
:1011E000252EFAE52DC39AF52D8006E52D24FAF576
:1011F0002D75300078498602BA2B0F200A0C7849E9
:101200007620200B05753001052D200819AA2DC365
:10121000E464808AF063F08095F0500A75822012B1
:101220000EDB152D80E7C211E5302449F88602BA9D
:1012300000028069BA451F3004027665C3E4648009
:10124000852EF063F08095F0500A758230120EDB27
:10125000152E80E8D211C3E5309402E433FA7014FD
:10126000EA700EC3E46480852EF063F08095F04050
:1012700003301116E5302449F886028A82120EDB0B
:10128000E53024FD5012152E800E7402B530093061
:101290000F0675822E120EDB053002122830081957
:1012A000AA2DC3E464808AF063F08095F0500A753B
:1012B0008220120EDB152D80E72285822385832470
:1012C000E4F52AF52BAA31AB32AC338A828B838CBE
:1012D000F01207CDFD74012AF531E43BF5328C3371
:1012E000EDFA7003021860BA25028003021858C292
:1012F00008C209C20AC20BC20CC20DC20EC20FC282
:1013000005C206C207752C00752D00752EFFAB3186
:10131000AC32AD338B828C838DF01207CDFAA3AB48
:1013200082AC838B318C328D33BA25078A82120EC0
:10133000DB80928A06BE3000402E8A06EE24C6402C
:101340002774FFB52E13E52D75F00AA4FEEA24D00C
:101350002EF52D70BFD20980BBE52E75F00AA4FED4
:10136000EA24D02EF52E80ACBA2E0A74FFB52EA436
:10137000752E00809F8A06BE6100400E8A06EE240C
:101380008540075302DFD2048002C204BA200280E3
:1013900075BA2303021415BA2A0302141ABA2B02CF
:1013A000805FBA2D028055BA4202805FBA430302C1
:1013B000145FBA440302159ABA45030215B4BA463B
:1013C000030215B0BA47030215B8BA490302159AC9
:1013D000BA4C02803BBA4E030215BCBA4F03021549
:1013E000A1BA5003021533BA5303021483BA55034A
:1013F0000215A6BA58030215AB0215E6D20802136D
:1014000014D20A021314D20B021314D20D021314B5
:10141000D20E021314D20F02131474FFB52E203013
:101420000D0BE53414F88834862D021314E53424AA
:10143000FEF888348606088607188E2D02131430AD
:101440000D0BE53414F88834862E021314E5342489
:10145000FEF888348606088607188E2E021314308C
:101460000D0AE53414F888348602800FE53424FE32
:10147000F888348603088604188B028A82120EDBF1
:101480000215EBE53424FDF8883486030886040849
:10149000860518188B258C268D278B828C838DF0E2
:1014A000121A10AB82AC838B2F74FFB52E03852FDD
:1014B0002E20081DC3E52F952D5016E52DC3952F21
:1014C000F52DAB2D152DEB6008758220120EDB80FB
:1014D000F18525828526838527F01207CDFBFA60EA
:1014E00029AB2E152EC3E464808BF063F08095F059
:1014F00050188A82120EDBAB25AC26AD270BBB0041
:10150000010C8B258C268D2780C72008030215EB44
:10151000C3E52F952D40030215EBE52DC3952FF55F
:101520002DAB2D152DEB70030215EB758220120EDD
:10153000DB80EEE53424FDF8883486030886040851
:10154000860518188B258C268D27E527FB30E704A8
:101550007A438013EB546060047A50800AEB30E6E3
:10156000047A4980027A588A82C002120EDB7582A0
:101570003A120EDB758230120EDB758278120EDBAA
:10158000D002BA4902800BBA500280068526821228
:101590000F0E852582120F0E8051D20C752C0A80F9
:1015A0004A752C088045752C0A8040752C10803BAC
:1015B000D2058037D2068033D207802FE53424FD50
:1015C000F88834860308860408860518188B258C4D
:1015D000268D278B828C838DF0E52A120B87A3E55D
:1015E0002B120B8780058A82120EDB20050620064F
:1015F00003300770E53424FCF88834860308860439
:101600000886050886061818188B258C268D278EC7
:1016100028E525E526E527E5288B828C838DF0EEED
:101620001218F174FFB52E03752E06300727747F4C
:101630005528FB8B29E529EB2BFB8B29E52730E788
:101640000674014529F529E5292468400674992581
:10165000294002D2063006061211D70212C5120F17
:10166000640212C5E52C70030212C57B4E300D2BAF
:10167000E53414F88834E6FC3395E0FDFEFF8C2554
:101680008D268E278F28200C5EAC257D007E007F66
:10169000008C258D268E278F28804C300E1FE53438
:1016A00024FCF88834860408860508860608860720
:1016B0001818188C258D268E278F28802AE534242B
:1016C000FEF88834860408860518ED3395E0FEFFA1
:1016D0008C258D268E278F28200C0CAC25AD267EE0
:1016E000007F008E278F28300F43E52545264527AC
:1016F000452860397408B52C0C758230C003120E71
:10170000DBD00380287410B52C23758230C00312FF
:101710000EDBD00330040C758278C003120EDBD0D0
:1017200003800A758258C003120EDBD003300C25EB
:10173000AC25AD26AE27E528FF30E717C3E49CFCB7
:10174000E49DFDE49EFEE49FFF8C258D268E278F71
:10175000288002C20C752F00D2108B00752900C0A2
:1017600000120F25D00020100DE529C4FCE6FD4C29
:10177000F61888038002A629052FB210E525452614
:101780004527452870D68803E52D7003752D012067
:10179000091A200817E52F04FCC3952D500E7582F9
:1017A00020C003120EDBD003152D80E9300C0E751E
:1017B000822DC003120EDBD003152D8024E52F608F
:1017C00020300A0E75822BC003120EDBD003152DBC
:1017D000800F300B0C758220C003120EDBD0031576
:1017E0002D20081EAC2D152DC3E52F9C5027300948
:1017F000047C3080027C208C82C003120EDBD0037C
:1018000080E2C3E52F952D5009E52DC3952FF52DC9
:101810008003752D008B00AB2F152FEB6022B210CB
:1018200020100A08E6C4540FFB8B29800786037436
:101830000F5BF529852982C000120EF5D00080D7F4
:101840002008030212C5AB2D152DEB70030212C543
:10185000758220120EDB80EE8A82120EDB0212C528
:10186000852A82852B8322E582C583F582A2D13326
:10187000A2D592D11392D5ECCFFCEBCEFBEACDFAF8
:10188000226040F82582500274FFF582E824F85067
:101890001ECCCBCAF9E4CC24F85014CBCAF9E4CB63
:1018A00024F8500BCAF9E4CA24F850037900222422
:1018B000086010F8C3EC13FCEB13FBEA13FAE9130E
:1018C000F9D8F122FCABF0AA83A982749EF582C2FA
:1018D000D1EC30E716D2D1E9F42401F9EAF434006E
:1018E000FAEBF43400FBECF43400FC120E14020D9D
:1018F000C5C0E0F84582458345F07009F5F0FBFC72
:10190000FDFE0219BFE823A2F792E0F8A982AA839C
:10191000D2F7ABF07C007E07C3749798404074FF09
:101920002EFE740A89F0A4F985F082740A8AF0A464
:10193000FA85F083740A8BF0A4FB740529F9EA3563
:1019400082FAEB3583FB740035F0FCC3EC13FCEB3F
:1019500013FBEA13FAE913F908EC70EF80BAE8C355
:10196000947FF88B838EF0E4FBFCFDFEFF08C3E957
:1019700033F9EA33FAE58333F583EB3BD4FBEC3CF4
:10198000D4FCED3DD4FDEE3ED4FEEF3FD4FF602D00
:1019900005F074052BD4FBE43CD4FCE43DD4FDE419
:1019A0003ED4FEE43FD4FF758204C3EF13FFEE1371
:1019B000FEED13FDEC13FCEB13FBD582EDD8AF78F5
:1019C00049D0E020E704762B8002762D087906E7DF
:1019D000C4540F4430F608B90603762E08E7540FB6
:1019E0004430F60819B902E7764508E5F020E70427
:1019F000762B8004762DF4040875F00A844430F6C2
:101A000008E5F04430F608E4F690004975F040220D
:101A1000AA82AB83ACF07D007E008A828B838CF03F
:101A20001207CDFFA3AA82AB83EF60070DBD00EACA
:101A30000E80E78D828E83220000000000000000EF
:00000001FF
