:10000000020003758150120145E582600302006F12
:10001000780079007A007B007C007D00EC4D601C4C
:1000200088828983E493A3A882A9838A828B83F040
:10003000A3AA82AB831CBCFFE31D80E07582007520
:1000400083007C007D00EC4D600AE4F0A31CBCFF43
:10005000F51D80F27582007583007C007D00EC4DFB
:10006000600AE4F0A31CBCFFF51D80F212014412EB
:1000700003EE80FE436F6D6D616E643A2025730060
:10008000526573706F6E73653A2025730D0A000D0B
:100090000A4A44592D343020746573740D0A0041A6
:1000A000542B44564944393934340D0A0041542BF9
:1000B0005645520D0A0041542B424155440D0A0049
:1000C00041542B524649440D0A0041542B44564991
:1000D000440D0A0041542B5246430D0A0041542B53
:1000E000504F57450D0A0041542B434C53530D0AB2
:1000F000000D507265737320616E6420686F6C64CC
:100100002074686520424F4F5420627574746F6E7E
:1001100020746F207472616E736D69742E0D0A0005
:100120004A4459343020746573742025640D0A00E4
:1001300052583A2025730D0A003C4E4F20464C4F32
:1001400041543E002275A7007597DE7597AD75FF87
:100150008075EF0675A71075C12075A70075A900F9
:1001600075A900E5A930E7FB75A90375A903E5A901
:1001700030E7FB43A41143A60175E10175E2007568
:10018000E341759810758DE6858D8B53890F4389F2
:1001900020D28ED29975820022AA82438E40759217
:1001A000B87593FF8592948593957591047B00C3F0
:1001B000EB9A500BE59130E7FB53917F0B80F07584
:1001C000910022AA82AB837C007D00C3EC9AED9B58
:1001D000502B7E00BE0400501D7582FAC002C00381
:1001E000C004C005C006120199D006D005D004D0C5
:1001F00003D0020E80DE0CBC00D10D80CE22AA827C
:10020000AB83ACF0FD75A72075930C75C810759481
:10021000008A118B128C138D1490A20075F04A7411
:1002200004120521AA82AB83ACF0FD751118E4F528
:1002300012F513F5148A828B838CF0ED120521AA36
:1002400082AB83ACF0FDE4C39AFAE49BFB74019C9F
:10025000E49D8A958B96D2C943944075A70022AA43
:100260008275A72010C90280FB8A9275A70022AA76
:1002700082AB83ACF08A828B838CF0120505FD6023
:10028000188D82C002C003C00412025FD004D003E4
:10029000D0020ABA00DF0B80DC2275A72010C8024A
:1002A00080FB53C83F85928275A7002275A7207AEC
:1002B000007B0020C82675A700758214C002C00309
:1002C000120199D003D00275A7200ABA00010BBA17
:1002D000A8E1BB61DE75A70075820A22C2C853C8B7
:1002E0003F85928275A70022AA82AB83ACF0C00240
:1002F000C003C0041202ACAD82D004D003D002BD52
:100300000A0A8A828B838CF0E40205BC8A828B8382
:100310008CF0ED1205BCA3AA82AB8380D175A72017
:10032000A2C875A70022AA82AB837C007D00C3EC23
:100330009AED9B50477E00BE04005039C002C003B6
:10034000C004C005C00612031DE433D006D005D09A
:1003500004D003D0026001227582FAC002C003C03B
:1003600004C005C006120199D006D005D004D00300
:10037000D0020E80C20CBC00B50D80B222AA82ABA6
:1003800083ACF0C002C003C004C002C003C0047448
:1003900074C0E07400C0E07480C0E012059BE58189
:1003A00024FAF581C2A09000051201C3D004D00345
:1003B000D0028A828B838CF012026F90003775F026
:1003C000401202E890000A1201C3D2A07437C0E0C4
:1003D0007400C0E07440C0E07480C0E07400C0E00D
:1003E0007480C0E012059BE58124FAF5812290011A
:1003F000F41201C3748FC0E07400C0E07480C0E0E8
:1004000012059B158115811581902580E4F5F01268
:1004100001FE90009F75F08012037D9000AD75F095
:100420008012037D9000B675F08012037D9000C0AD
:1004300075F08012037D9000CA75F08012037D90E4
:1004400000D475F08012037D9000DD75F0801203FA
:100450007D9000E775F08012037D74F1C0E07400B8
:10046000C0E07480C0E012059B1581158115817A6A
:10047000007B0020B74B8A048B050ABA00010BC031
:1004800002C003C004C0057420C0E07401C0E07461
:1004900080C0E07437C0E07400C0E07440C0E01277
:1004A0000624E58124F8F58190003775F0401202AA
:1004B0006F75822E12066A9000C8120326D003D0F0
:1004C00002C002C00312031DE433D003D00260A3B4
:1004D00090003775F040C002C0031202E87437C0C4
:1004E000E07400C0E07440C0E07430C0E07401C04B
:1004F000E07480C0E012059BE58124FAF581D00309
:10050000D00202047320F71430F6148883A88220E6
:10051000F507E6A88375830022E280F7E49322E0E2
:1005200022FB7A20E4FCFDFEFFE5822582F582E5D0
:100530008333F583E5F033F5F0EB33FB4017DAE96D
:100540008042E5822582F582E58333F583E5F03349
:10055000F5F0EB33FBEC33FCED33FDEE33FEEF3324
:10056000FFEC9511ED9512EE9513EF95144013ECF9
:100570009511FCED9512FDEE9513FEEF9514FF43DA
:100580008201DABEEB2202066A85823085833185DC
:10059000F032851033900586020708C0088581086F
:1005A000E50824FBF533E50824FBF886300886319E
:1005B000088632900586120708D0082220F71030EE
:1005C000F6118883A88220F507F6A8837583002298
:1005D000F280F7F022AA82AB09AC0AAD0B8B828CB9
:1005E000838DF0EA1205BC0509E4B50902050A226B
:1005F00085820985830A85F00B850C30850D318550
:100600000E32850F339005D5120708AA82AB83AC52
:1006100009AD0AAE0B8C828D838EF0E41205BC8A84
:10062000828B8322C008858108E50824F8F533E52C
:100630000824FBF8860908860A08860BE50824F8D2
:10064000F886300886310886329005D5120708AA48
:1006500082AB83AC09AD0AAE0B8C828D838EF0E445
:100660001205BC8A828B83D00822AA82BA0A08109B
:10067000990280FB75990D10990280FB8A9922AA34
:10068000827490C0E07406C0E0C022C0238A822237
:100690000529E4B52902052A22AA8274302AFA24FF
:1006A000C6500A74072AFA3000034302208A8202E5
:1006B000067FE582FAC4540FF582C002120699D073
:1006C00002740F5AF582020699AA24AB25AC26AD16
:1006D00027AE28752F20EE2EFEED235401FF420693
:1006E000EA2AFAEB33FBEC33FCED33FDC3EE952B3A
:1006F0004008EEC3952BFE430201D52FD98A248BE7
:10070000258C268D278E2822858222858323E4F559
:1007100029F52AAA30AB31AC328A828B838CF01255
:100720000505FD74012AF530E43BF5318C32EDFA14
:100730007003020C98BA25028003020C90C204C216
:1007400005C206C207C208C209C20AC20BC201C260
:1007500002C203752B00752C00752DFFAB30AC3138
:10076000AD328B828C838DF0120505FAA3AB82AC7F
:10077000838B308C318D32BA25078A8212067F80B6
:10078000928A06BE3000402E8A06EE24C6402774A8
:10079000FFB52D13E52C75F00AA4FEEA24D02EF542
:1007A0002C70BFD20580BBE52D75F00AA4FEEA24AB
:1007B000D02EF52D80ACBA2E0A74FFB52DA4752D60
:1007C00000809F8A06BE6100400E8A06EE248540A6
:1007D000075302DFD2008002C200BA20028075BA3D
:1007E0002303020863BA2A03020868BA2B02805F57
:1007F000BA2D028055BA4202805FBA43030208ADA7
:10080000BA44030209E8BA4503020A02BA460302DF
:1008100009FEBA4703020A06BA49030209E8BA4CBC
:1008200002803BBA4E03020A0ABA4F030209EFBA2A
:100830005003020981BA53030208D1BA55030209D1
:10084000F4BA58030209F9020A34D204020762D248
:1008500006020762D207020762D209020762D20AC1
:10086000020762D20B02076274FFB52D2030090B1C
:10087000E53314F88833862C020762E53324FEF84A
:1008800088338606088607188E2C02076230090B0B
:10089000E53314F88833862D020762E53324FEF829
:1008A00088338606088607188E2D02076230090AEB
:1008B000E53314F888338602800FE53324FEF88888
:1008C000338603088604188B028A8212067F020A86
:1008D00039E53324FDF88833860308860408860545
:1008E00018188B248C258D268B828C838DF0120C0E
:1008F0009FAB82AC838B2E74FFB52D03852E2D20EC
:10090000041DC3E52E952C5016E52CC3952EF52C11
:10091000AB2C152CEB600875822012067F80F185C8
:1009200024828525838526F0120505FBFA6029AB14
:100930002D152DC3E464808BF063F08095F0501882
:100940008A8212067FAB24AC25AD260BBB00010CBE
:100950008B248C258D2680C7200403020A39C3E529
:100960002E952C4003020A39E52CC3952EF52CABAD
:100970002C152CEB7003020A3975822012067F8039
:10098000EEE53324FDF888338603088604088605DF
:1009900018188B248C258D26E526FB30E7047A4336
:1009A0008013EB546060047A50800AEB30E6047ADE
:1009B0004980027A588A82C00212067F75823A12F2
:1009C000067F75823012067F75827812067FD0020C
:1009D000BA4902800BBA500280068525821206B2FF
:1009E0008524821206B28051D208752B0A804A757E
:1009F0002B088045752B0A8040752B10803BD20157
:100A00008037D2028033D203802FE53324FDF8886B
:100A100033860308860408860518188B248C258DD8
:100A2000268B828C838DF0E5291205BCA3E52A1262
:100A300005BC80058A8212067F2001062002033051
:100A4000035AE53324FCF8883386030886040886B5
:100A5000050886061818188B248C258D268E277578
:100A6000243975250175268085243485253585260C
:100A70003674012534FEE43535FFAB368E248F25E0
:100A80008B268534828535838536F0120505FBFA81
:100A900070030207138A8212067F80CCE52B700355
:100AA0000207137B5030092BE53314F88833E6FC3A
:100AB0003395E0FDFEFF8C248D258E268F272008A0
:100AC0005EAC247D007E007F008C248D258E268FD9
:100AD00027804C300A1FE53324FCF888338604084D
:100AE00086050886060886071818188C248D258E1A
:100AF000268F27802AE53324FEF88833860408866B
:100B00000518ED3395E0FEFF8C248D258E268F276A
:100B100020080CAC24AD257E007F008E268F273068
:100B20000B43E52445254526452760397408B52B38
:100B30000C758230C00312067FD00380287410B574
:100B40002B23758230C00312067FD00330000C7552
:100B50008278C00312067FD003800A758258C003D2
:100B600012067FD003300825AC24AD25AE26E5273C
:100B7000FF30E717C3E49CFCE49DFDE49EFEE49F88
:100B8000FF8C248D258E268F278002C208752E00AB
:100B9000D20C8B00752800C0001206C9D000200CB2
:100BA0000DE528C4FCE6FD4CF61888038002A62853
:100BB000052EB20CE52445254526452770D6880329
:100BC000E52C7003752C0120051A200417E52E046E
:100BD000FCC3952C500E758220C00312067FD003F3
:100BE000152C80E930080E75822DC00312067FD0C7
:100BF00003152C8024E52E602030060E75822BC054
:100C00000312067FD003152C800F30070C7582204D
:100C1000C00312067FD003152C20041EAC2C152C0B
:100C2000C3E52E9C50273005047C3080027C208C4C
:100C300082C00312067FD00380E2C3E52E952C50BC
:100C400009E52CC3952EF52C8003752C008B00AB89
:100C50002E152EEB6022B20C200C0A08E6C4540FAD
:100C6000FB8B2880078603740F5BF528852882C0DC
:100C700000120699D00080D7200403020713AB2C82
:100C8000152CEB700302071375822012067F80EE8D
:100C90008A8212067F020713852982852A8322AA67
:100CA00082AB83ACF07D007E008A828B838CF01255
:100CB0000505FFA3AA82AB83EF60070DBD00EA0E16
:100CC00080E78D828E83220000000000000000007B
:00000001FF
