:10000000020003758157120152E582600302006FFE
:10001000780079007A007B007C007D00EC4D601C4C
:1000200088828983E493A3A882A9838A828B83F040
:10003000A3AA82AB831CBCFFE31D80E07582007520
:1000400083007C007D00EC4D600AE4F0A31CBCFF43
:10005000F51D80F27582007583007C007D00EC4DFB
:10006000600AE4F0A31CBCFFF51D80F212015112DE
:1000700005F480FE436F6D6D616E643A2025730058
:10008000526573706F6E73653A2025730D0A000D0B
:100090000A4A44592D343020746573740D0A0041A6
:1000A000542B44564944393934340D0A0041542BF9
:1000B0005645520D0A0041542B424155440D0A0049
:1000C00041542B524649440D0A0041542B44564991
:1000D000440D0A0041542B5246430D0A0041542B53
:1000E000504F57450D0A0041542B434C53530D0AB2
:1000F000000D507265737320616E6420686F6C64CC
:100100002074686520424F4F5420627574746F6E7E
:1001100020746F207472616E736D69742E0D0A0005
:10012000783A2025342E32660D0A00793A2025349B
:100130002E32660D0A004A445934302074657374B7
:100140002025640D0A00467265713A2025730D0A58
:10015000002275A7007597DE7597AD75FF8075EF66
:100160000675A71075C12075A70075A90075A900AF
:10017000E5A930E7FB75A90375A903E5A930E7FBFD
:1001800043A41143A60175E10175E20075E34175D1
:100190009810758DE6858D8B53890F438920D28EFB
:1001A000D2997582002275A700C2EF75B28075BC26
:1001B0002075B91E75E80075DF3F75B300D2EF22D8
:1001C000AA82438E407592B87593FF859294859369
:1001D000957591047B00C3EB9A500BE59130E7FBDA
:1001E00053917F0B80F0759100225389F043890170
:1001F000C28C22AA82AB837C007D00C3EC9AED9B6B
:10020000502B7E00BE0400501D7582FAC002C00350
:10021000C004C005C0061201C0D006D005D004D06D
:1002200003D0020E80DE0CBC00D10D80CE22AA824B
:100230008516F005F07401800225E0D5F0FBFB7512
:10024000A720BA0002800ABA0102800FBA021E80FB
:1002500014EBF4FA52F1EB42D48012EBF4FA52F2BE
:10026000EB42D58008EBF4FA52F3EB42CC75A700D1
:10027000228582BBC2EDD2EC30EDFD85BD8285BE0C
:100280008322C2EDD2EC30EDFD85BD8285BE832296
:10029000120271120808AA82AB83ACF0FDC002C042
:1002A00003C004C00590333375F09B7440120814EA
:1002B000AA82AB83ACF0FDE58124FCF581E4C0E0CB
:1002C00074FCC0E0747FC0E07446C0E08A828B8317
:1002D0008CF0ED1209B0AA82AB83ACF0FDE581246D
:1002E000FCF5818A828B838CF0ED22AA82AB83ACF1
:1002F000F0FD75A72075930C75C8107594008A16CB
:100300008B178C188D1990A20075F04A740412078F
:10031000A3AA82AB83ACF0FD751618E4F517F518A7
:10032000F5198A828B838CF0ED1207A3AA82AB8326
:10033000ACF0FDE4C39AFAE49BFB74019CE49D8A53
:10034000958B96D2C943944075A70022AA8275A7BF
:100350002010C90280FB8A9275A70022AA82AB8373
:10036000ACF08A828B838CF0120787FD60188D8237
:10037000C002C003C00412034CD004D003D0020A50
:10038000BA00DF0B80DC2275A72010C80280FB5367
:10039000C83F85928275A7002275A7207A007B004E
:1003A00020C82675A700758214C002C0031201C0C0
:1003B000D003D00275A7200ABA00010BBAA8E1BB8E
:1003C00061DE75A70075820A22C2C853C83F8592B4
:1003D0008275A70022AA82AB83ACF0C002C003C022
:1003E00004120399AD82D004D003D002BD0A0A8A58
:1003F000828B838CF0E40208ED8A828B838CF0ED93
:100400001208EDA3AA82AB8380D175A720A2C8757C
:10041000A70022AA82AB837C007D00C3EC9AED9BEF
:1004200050477E00BE04005039C002C003C004C063
:1004300005C00612040AE433D006D005D004D00368
:10044000D0026001227582FAC002C003C004C00558
:10045000C0061201C0D006D005D004D003D0020ED1
:1004600080C20CBC00B50D80B222AA82AB83ACF076
:10047000C002C003C004C002C003C0047474C0E062
:100480007400C0E07480C0E01208CCE58124FAF565
:1004900081C2B09000051201F3D004D003D0028ACB
:1004A000828B838CF012035C90003475F040120351
:1004B000D590000A1201F3D2B07434C0E07400C0C9
:1004C000E07440C0E07480C0E07400C0E07480C09C
:1004D000E01208CCE58124FAF58122D2A0758228A9
:1004E0001201C0C2A022AA828AE0A2E79290A2E6EC
:1004F0009291A2E59292A2E49293C0021204DB755B
:1005000082281201C0D0028AE0A2E39290A2E29275
:1005100091A2E19292A2E092930204DBAA82D29786
:100520008A821204E69000020201F3AA82C2978A2C
:10053000821204E69000050201F3C2A0900014129A
:1005400001F375823312052B75823312052B7582E8
:100550003212052B75822812052B75820C12052B81
:1005600075820112052B9000140201F3AA82AB835D
:10057000ACF07402B509047DC080027D808D82C01C
:1005800002C003C00412052B9000051201F3D00431
:10059000D003D0027D007E00ED2AFFEE3BF88C01F7
:1005A0008F82888389F0120787FF60208F82C002C4
:1005B000C003C004C005C00612051CD006D005D07B
:1005C00004D003D0020DBD00CF0E80CC3000248DAE
:1005D000028E03C3EA9410EB6480948050157582F8
:1005E00020C002C00312051CD003D0020ABA00E3E7
:1005F0000B80E0221201A69001F41201F3748FC067
:10060000E07400C0E07480C0E01208CC1581158150
:100610001581902580E4F5F01202EB7516047582C1
:100620000212022E75160575820212022E90009F8C
:1006300075F08012046A9000AD75F08012046A9023
:1006400000B675F08012046A9000C075F080120444
:100650006A9000CA75F08012046A9000D475F08028
:1006600012046A9000DD75F08012046A9000E7754C
:10067000F08012046A74F1C0E07400C0E07480C0BD
:10068000E01208CC1581158115817A007B007582F6
:100690000AC002C00312029085820A85830B85F08E
:1006A0000CF50D75820B120290AC82AD83AEF0FF9B
:1006B000C004C005C006C007C00AC00BC00CC00DF6
:1006C0007420C0E07401C0E07480C0E01208CCE582
:1006D0008124F9F581742BC0E07401C0E07480C0FE
:1006E000E01208CCE58124F9F5819001F41201F3C0
:1006F000D003D00220B74B8A048B050ABA00010B45
:10070000C002C003C004C0057436C0E07401C0E07C
:100710007480C0E07434C0E07400C0E07440C0E095
:10072000120955E58124F8F58190003475F04012E6
:10073000035C75822E12099B9000C8120413D0032B
:10074000D002C002C00312040AD003D00240030248
:10075000068E90003475F040C002C0031203D574B9
:1007600034C0E07400C0E07440C0E07446C0E0747F
:1007700001C0E07480C0E01208CCE58124FAF58164
:10078000D003D00202068E20F71430F6148883A816
:100790008220F507E6A88375830022E280F7E493C0
:1007A00022E022FB7A20E4FCFDFEFFE5822582F5B3
:1007B00082E58333F583E5F033F5F0EB33FB401747
:1007C000DAE98042E5822582F582E58333F583E527
:1007D000F033F5F0EB33FBEC33FCED33FDEE33FEA1
:1007E000EF33FFEC9516ED9517EE9518EF95194040
:1007F00013EC9516FCED9517FDEE9518FEEF951987
:10080000FF438201DABEEB22E4AC83AB82FAF974D7
:100810008E020AD8120B64BC0003020B03EF60FACD
:1008200030D502B2D1E583B4FF03020B19E582B4DF
:10083000FF03020B19258340072482400B020B03A0
:100840002483145003020B19F582EA8DF0A4A8F05A
:10085000EA8EF0A428F8E435F0F9EB8DF0A428E94D
:1008600035F0F9E433CA8FF0A429F9EA35F0FAEB50
:10087000F88EF0A429F9EA35F0FAE433FBEC8DF0B8
:10088000A429F9EA35F0FAE43BFBE88FF0A42AFA50
:10089000EB35F0FBE433CCFD8EF0A42AFAEB35F017
:1008A000FBE43CFCED8FF0A42BFBEC35F0FC20E7E7
:1008B00003120B31020AE202099B858230858331E3
:1008C00085F0328515339008B7020F71C008858115
:1008D00008E50824FBF533E50824FBF88630088694
:1008E000310886329008B7120F71D0082220F71015
:1008F00030F6118883A88220F507F6A88375830057
:1009000022F280F7F022AA82AB0EAC0FAD108B82E0
:100910008C838DF0EA1208ED050EE4B50E02050F8A
:100920002285820E85830F85F01085113085123166
:10093000851332851433900906120F71AA82AB8396
:10094000AC0EAD0FAE108C828D838EF0E41208EDEC
:100950008A828B8322C008858108E50824F8F53354
:10096000E50824FBF8860E08860F088610E50824A3
:10097000F8F88630088631088632900906120F7121
:10098000AA82AB83AC0EAD0FAE108C828D838EF03D
:10099000E41208ED8A828B83D00822AA82BA0A0860
:1009A00010990280FB75990D10990280FB8A99229B
:1009B000120B6430D502B2D1BF0009BC0003020B98
:1009C00026020B19BC0003020B03E583B4FF0BE501
:1009D00082B4FF03020B26020B03E582B4FF03027D
:1009E0000B19C395835007247F400B020B0324800F
:1009F000145003020B19C0E0E4CCCBCAF98D168E5B
:100A0000178F18EF54F0C4F5197583068519F0EBAC
:100A100084F582E9C4F9EAC4FAEBC4FBEC540FC4D0
:100A20007803D6FC18EBD6FB18EAD6FA8582F0EDEF
:100A3000A4A8F0FD8582F0EEA428FEE435F0F88548
:100A400082F0EFA428FFE435F0F8E99DF9EA9EFA78
:100A5000EB9FFBEC98FCAD16AE17AF1830E7101506
:100A600082E92DF9EA3EFAEB3FFBE43CFC80EDC065
:100A700082D58398C3E933F9EA33FAEB33FBEC33DD
:100A8000FCC3E99DEA9EEB9FEC9400B3E413F9D01C
:100A900002D0E0C44AFAD003D0E0C44BFBD004D06B
:100AA000E0F5F0540FC44CFCD082158230F40FD323
:100AB000EC13FCEB13FBEA13FAE913F90582E930B6
:100AC000E70A74012AFAE43BFBE43CFC020AFAFC64
:100AD000ABF0AA83A982749EC2D1F582120B3102B7
:100AE0000AE2B98003EA13B34010EA2401FAE43BB6
:100AF000FBE43CFC50047C800582BC000EBB000B78
:100B0000BA0008E4F5F0F583F58222A2D1E582135C
:100B10008CF092F78B838A8222E4F583F58275F05C
:100B200080F4A2D11322E4F583F58275F0C0747FBE
:100B3000227804EC7011E58224F8500AF582E4C9A9
:100B4000CACBFCD8EF22EC7820058220E713D582AF
:100B50000122C3E933F9EA33FAEB33FBEC33FCD877
:100B6000EA158222AA82AB83A2F73392D16002D225
:100B7000F7F582ACF0E58124F9F8E6FD08E6FE0819
:100B800086F008E6A2F73392D56002D2F7F583AF7C
:100B9000F022AA8274A3C0E0740BC0E0C022C0237C
:100BA0008A82220529E4B52902052A22AA82743004
:100BB0002AFA24C6500A74072AFA30010343022095
:100BC0008A82020B92E582FAC4540FF582C00212A7
:100BD0000BACD002740F5AF582020BACAA24AB25E1
:100BE000AC26AD27AE28752F20EE2EFEED23540146
:100BF000FF4206EA2AFAEB33FBEC33FCED33FDC38C
:100C0000EE952B4008EEC3952BFE430201D52FD95C
:100C10008A248B258C268D278E28227854E624D092
:100C200075F00AA4FA7855E624D02AFA7853860398
:100C3000BB2D04C3E49AFA752B01C3E464808AF0E7
:100C400063F08095F05029752F038A0374F6252FE1
:100C5000401C052BE52F142448F8E52F2448F9877C
:100C600004A604772E1BEBFA6004052F80DE8B02AE
:100C7000EA30E70D78498603784AA6037849762E4C
:100C80000AE52D600AE52D04FB252BF52B800530A8
:100C90000C02052B78488603E4BB2D0104FB70068B
:100CA000200703300802052B300503020D623006D1
:100CB00057EB600C75822DC002120B92D002801C83
:100CC00030070C75822BC002120B92D002800D30BF
:100CD000080A758220C002120B92D002784986045D
:100CE000BC2E0C758230C002120B92D002152CACB7
:100CF0002C152CC3E52B9C4003020DA6758230C039
:100D000002120B92D00280E7AC2C152CC3E52B9C71
:100D1000500C758220C002120B92D00280EA7848F3
:100D20008604BC2D0C75822DC002120B92D002805D
:100D30001C30070C75822BC002120B92D002800D62
:100D400030080A758220C002120B92D002784986C0
:100D500004BC2E52758230C002120B92D002152CA8
:100D60008044EB600E75822DC002120B92D00215EA
:100D70002C802030070E75822BC002120B92D002FD
:100D8000152C800F30080C758220C002120B92D0F7
:100D900002152C78498603BB2E0C758230C00212D6
:100DA0000B92D002152C752F01C20EE52F2448F8A6
:100DB0008603BB4503020E63BB2E348A03C3E4647F
:100DC000808BF063F08095F0500F758230C0031275
:100DD0000B92D0031B8B0280E48B02D20EE52D70A8
:100DE00038200C03020E6375822E120B9280743031
:100DF0000E278A03EB30E71FC3E46480852DF06380
:100E0000F08095F0500C758230C003120B92D00325
:100E1000152D0B8B0280DD8B02300E0EC3E4648037
:100E2000852DF063F08095F05021E52F2448F88659
:100E3000038B82C002120B92D002300E0EE52F24DB
:100E400048F88603BB2E028002152D152CC3E464DE
:100E500080852DF063F08095F04003200E05052F6E
:100E6000020DABC3E46480852DF063F08095F050F3
:100E70000A758230120B92152D80E830050FAA2CCE
:100E8000152CEA6008758220120B9280F122E52D64
:100E90007003300C0D7407252DFAE52CC39AF52C40
:100EA0008006E52C24FAF52C752F0078488602BAC6
:100EB0002B0F20070C78487620200805752F010598
:100EC0002C200519AA2CC3E464808AF063F0809575
:100ED000F0500A758220120B92152C80E7C20EE5A5
:100EE0002F2448F88602BA00028069BA451F3001F3
:100EF000027665C3E46480852DF063F08095F05040
:100F00000A758230120B92152D80E8D20EC3E52FA0
:100F10009402E433FA7014EA700EC3E46480852D01
:100F2000F063F08095F04003300E16E52F2448F86A
:100F300086028A82120B92E52F24FD5012152D8015
:100F40000E7402B52F09300C0675822E120B920515
:100F50002F020EDF300519AA2CC3E464808AF063E7
:100F6000F08095F0500A758220120B92152C80E7C4
:100F700022858222858323E4F529F52AAA30AB3124
:100F8000AC328A828B838CF0120787FD74012AF5BC
:100F900030E43BF5318C32EDFA7003021517BA25B7
:100FA00002800302150FC205C206C207C208C209A9
:100FB000C20AC20BC20CC202C203C204752B007566
:100FC0002C00752DFFAB30AC31AD328B828C838D14
:100FD000F0120787FAA3AB82AC838B308C318D3251
:100FE000BA25078A82120B9280928A06BE30004090
:100FF0002E8A06EE24C6402774FFB52D13E52C7506
:10100000F00AA4FEEA24D02EF52C70BFD20680BBD5
:10101000E52D75F00AA4FEEA24D02EF52D80ACBA99
:101020002E0A74FFB52DA4752D00809F8A06BE611F
:1010300000400E8A06EE248540075302DFD201806D
:1010400002C201BA20028075BA23030210CCBA2A68
:10105000030210D1BA2B02805FBA2D028055BA422A
:1010600002805FBA4303021116BA4403021251BA56
:10107000450302126BBA4603021267BA4703021213
:101080006FBA4903021251BA4C02803BBA4E0302B6
:101090001273BA4F03021258BA50030211EABA533C
:1010A0000302113ABA550302125DBA5803021262E2
:1010B00002129DD205020FCBD207020FCBD208023B
:1010C0000FCBD20A020FCBD20B020FCBD20C020FE6
:1010D000CB74FFB52D20300A0BE53314F888338626
:1010E0002C020FCBE53324FEF888338606088607EA
:1010F000188E2C020FCB300A0BE53314F888338698
:101100002D020FCBE53324FEF888338606088607C8
:10111000188E2D020FCB300A0AE53314F888338677
:1011200002800FE53324FEF888338603088604180E
:101130008B028A82120B920212A2E53324FDF888F8
:1011400033860308860408860518188B248C258DA1
:10115000268B828C838DF012163DAB82AC838B2E56
:1011600074FFB52D03852E2D20051DC3E52E952C6E
:101170005016E52CC3952EF52CAB2C152CEB6008E6
:10118000758220120B9280F1852482852583852625
:10119000F0120787FBFA6029AB2D152DC3E464809C
:1011A0008BF063F08095F050188A82120B92AB247A
:1011B000AC25AD260BBB00010C8B248C258D268025
:1011C000C72005030212A2C3E52E952C400302128C
:1011D000A2E52CC3952EF52CAB2C152CEB7003023D
:1011E00012A2758220120B9280EEE53324FDF8885E
:1011F00033860308860408860518188B248C258DF1
:1012000026E526FB30E7047A438013EB5460600444
:101210007A50800AEB30E6047A4980027A588A8252
:10122000C002120B9275823A120B92758230120B29
:1012300092758278120B92D002BA4902800BBA5092
:10124000028006852582120BC5852482120BC5807B
:1012500051D209752B0A804A752B088045752B0AD7
:101260008040752B10803BD2028037D2038033D26E
:1012700004802FE53324FDF88833860308860408AC
:10128000860518188B248C258D268B828C838DF0F7
:10129000E5291208EDA3E52A1208ED80058A8212DD
:1012A0000B92200206200303300470E53324FCF87F
:1012B00088338603088604088605088606181818E9
:1012C0008B248C258D268E27E524E525E526E5272C
:1012D0008B828C838DF0EE12151E74FFB52D037575
:1012E0002D06300427747F5527FB8B28E528EB2B30
:1012F000FB8B28E52630E70674014528F528E5280C
:1013000024684006749925284002D203300306124F
:101310000E8E020F7C120C1B020F7CE52B70030259
:101320000F7C7B4D300A2BE53314F88833E6FC3311
:1013300095E0FDFEFF8C248D258E268F2720095EEB
:10134000AC247D007E007F008C248D258E268F2787
:10135000804C300B1FE53324FCF888338604088664
:10136000050886060886071818188C248D258E26F1
:101370008F27802AE53324FEF88833860408860503
:1013800018ED3395E0FEFF8C248D258E268F2720C7
:10139000090CAC24AD257E007F008E268F27300CF3
:1013A00043E52445254526452760397408B52B0CAF
:1013B000758230C003120B92D00380287410B52BB5
:1013C00023758230C003120B92D00330010C75825A
:1013D00078C003120B92D003800A758258C00312A2
:1013E0000B92D003300925AC24AD25AE26E527FFAE
:1013F00030E717C3E49CFCE49DFDE49EFEE49FFF00
:101400008C248D258E268F278002C209752E00D24E
:101410000D8B00752800C000120BDCD000200D0DD4
:10142000E528C4FCE6FD4CF61888038002A62805D2
:101430002EB20DE52445254526452770D68803E5BF
:101440002C7003752C0120061A200517E52E04FCCC
:10145000C3952C500E758220C003120B92D0031539
:101460002C80E930090E75822DC003120B92D00337
:10147000152C8024E52E602030070E75822BC003CA
:10148000120B92D003152C800F30080C758220C0EF
:1014900003120B92D003152C20051EAC2C152CC367
:1014A000E52E9C50273006047C3080027C208C8204
:1014B000C003120B92D00380E2C3E52E952C500995
:1014C000E52CC3952EF52C8003752C008B00AB2EDC
:1014D000152EEB6022B20D200D0A08E6C4540FFB56
:1014E0008B2880078603740F5BF528852882C0004F
:1014F000120BACD00080D7200503020F7CAB2C155B
:101500002CEB7003020F7C758220120B9280EE8A06
:1015100082120B92020F7C852982852A8322C0E0E9
:10152000F84582458345F07009F5F0FBFCFDFE02AD
:1015300015ECE823A2F792E0F8A982AA83D2F7ABD0
:10154000F07C007E07C3749798404074FF2EFE74B1
:101550000A89F0A4F985F082740A8AF0A4FA85F069
:1015600083740A8BF0A4FB740529F9EA3582FAEB3F
:101570003583FB740035F0FCC3EC13FCEB13FBEA82
:1015800013FAE913F908EC70EF80BAE8C3947FF816
:101590008B838EF0E4FBFCFDFEFF08C3E933F9EA20
:1015A00033FAE58333F583EB3BD4FBEC3CD4FCED21
:1015B0003DD4FDEE3ED4FEEF3FD4FF602D05F07428
:1015C000052BD4FBE43CD4FCE43DD4FDE43ED4FE46
:1015D000E43FD4FF758204C3EF13FFEE13FEED1357
:1015E000FDEC13FCEB13FBD582EDD8AF7848D0E0CF
:1015F00020E704762B8002762D087906E7C4540F85
:101600004430F608B90603762E08E7540F4430F646
:101610000819B902E7764508E5F020E704762B8043
:1016200004762DF4040875F00A844430F608E5F0D9
:101630004430F608E4F690004875F04022AA82ABE8
:1016400083ACF07D007E008A828B838CF01207874A
:10165000FFA3AA82AB83EF60070DBD00EA0E80E70F
:101660008D828E8322000000000000000000000038
:00000001FF
