:10000000020003758169120155E582600302006FE9
:10001000780079007A007B007C007D00EC4D601C4C
:1000200088828983E493A3A882A9838A828B83F040
:10003000A3AA82AB831CBCFFE31D80E07582007520
:1000400083007C007D00EC4D600AE4F0A31CBCFF43
:10005000F51D80F27582007583007C007D00EC4DFB
:10006000600AE4F0A31CBCFFF51D80F212015412DB
:10007000061580FE436F6D6D616E643A2025730036
:10008000526573706F6E73653A2025730D0A000D0B
:100090000A4A44592D343020746573740D0A0041A6
:1000A000542B44564944393934340D0A0041542BF9
:1000B0005645520D0A0041542B424155440D0A0049
:1000C00041542B524649440D0A0041542B44564991
:1000D000440D0A0041542B5246430D0A0041542B53
:1000E000504F57450D0A0041542B434C53530D0AB2
:1000F000000D0A507265737320616E6420686F6C26
:10010000642074686520424F4F5420627574746F88
:100110006E20746F207472616E736D69742E0D0A97
:100120000025662025660D0A004A445934302074A3
:100130006573742025640D0A00467265713A2025A6
:100140002E32660D0A005374656E6774683A202576
:100150002E3166002275A7007597DE7597AD75FF85
:100160008075EF0675A71075C12075A70075A900E9
:1001700075A900E5A930E7FB75A90375A903E5A9F1
:1001800030E7FB43A41143A60175E10175E2007558
:10019000E341759810758DE6858D8B53890F4389E2
:1001A00020D28ED2997582002275A700C2EF75B257
:1001B0008075BC2075B91E75E80075DF3F75B3000A
:1001C000D2EF22AA82438E407592B87593FF859232
:1001D000948593957591047B00C3EB9A500BE59140
:1001E00030E7FB53917F0B80F0759100225389F02B
:1001F000438901C28C2275C800438E1075CAEE7502
:10020000CBF675CEFF75CFFFD2ADD2CAD2AF22C228
:10021000CFB2B322AA82AB837C007D00C3EC9AEDFF
:100220009B502B7E00BE0400501D7582FAC002C098
:1002300003C004C005C0061201C3D006D005D00417
:10024000D003D0020E80DE0CBC00D10D80CE22AADD
:10025000828542F005F07401800225E0D5F0FBFBB9
:1002600075A720BA0002800ABA0102800FBA021EE6
:100270008014EBF4FA52F1EB42D48012EBF4FA5210
:10028000F2EB42D58008EBF4FA52F3EB42CC75A7BF
:1002900000228582BBC2EDD2EC30EDFD85BD8285AA
:1002A000BE8322C2EDD2EC30EDFD85BD8285BE83DA
:1002B000221202921208B4AA82AB83ACF0FDC002F3
:1002C000C003C004C00590333375F09B744012081E
:1002D000F0AA82AB83ACF0FDE58124FCF581E4C09B
:1002E000E074FCC0E0747FC0E07446C0E08A828B9A
:1002F000838CF0ED120CB0AA82AB83ACF0FDE581EB
:1003000024FCF5818A828B838CF0ED22AA82AB8358
:10031000ACF0FD75A72075930C75C8107594008A14
:10032000428B438C448D4590A20075F04A740412B0
:10033000084FAA82AB83ACF0FD754218E4F543F593
:1003400044F5458A828B838CF0ED12084FAA82AB6C
:1003500083ACF0FDE4C39AFAE49BFB74019CE49D3A
:100360008A958B96D2C943944075A70022AA8275BC
:10037000A72010C90280FB8A9275A70022AA82AB2F
:1003800083ACF08A828B838CF0120833FD60188D69
:1003900082C002C003C00412036DD004D003D00297
:1003A0000ABA00DF0B80DC2275A72010C80280FB90
:1003B00053C83F85928275A7002275A7207A007BDB
:1003C0000020C82675A700758214C002C003120160
:1003D000C3D003D00275A7200ABA00010BBAA8E166
:1003E000BB61DE75A70075820A22C2C853C83F856B
:1003F000928275A70022AA82AB83ACF0C002C00330
:10040000C0041203BAAD82D004D003D002BD0A0AE0
:100410008A828B838CF0E4020BED8A828B838CF0D2
:10042000ED120BEDA3AA82AB8380D175A720A2C8E1
:1004300075A70022AA82AB837C007D00C3EC9AEDF5
:100440009B50477E00BE04005039C002C003C00468
:10045000C005C00612042BE433D006D005D004D06A
:1004600003D0026001227582FAC002C003C004C03A
:1004700005C0061201C3D006D005D004D003D002B7
:100480000E80C20CBC00B50D80B222AA82AB83AC38
:10049000F0C002C003C004C002C003C0047474C032
:1004A000E07400C0E07480C0E0120BCCE58124FA57
:1004B000F581C2B0900005120214D004D003D0021E
:1004C0008A828B838CF012037D90004675F0401277
:1004D00003F690000A120214D2B07446C0E0740011
:1004E000C0E07440C0E07480C0E07400C0E074807C
:1004F000C0E0120BCCE58124FAF58122D2A07582EE
:10050000281201C3C2A022AA828AE0A2E79290A286
:10051000E69291A2E59292A2E49293C0021204FCA8
:100520007582281201C3D0028AE0A2E39290A2E26F
:100530009291A2E19292A2E092930204FCAA82D24A
:10054000978A82120507900002020214AA82C297BB
:100550008A82120507900005020214C2A0900014BE
:1005600012021475823312054C75823312054C75D4
:10057000823212054C75822812054C75820C1205C8
:100580004C75820112054C900014020214AA82AB31
:1005900083ACF07402B509047DC080027D808D8239
:1005A000C002C003C00412054C900005120214D012
:1005B00004D003D0027D007E00ED2AFFEE3BF88CD4
:1005C000018F82888389F0120833FF60208F82C0F8
:1005D00002C003C004C005C00612053DD006D00508
:1005E000D004D003D0020DBD00CF0E80CC3000244B
:1005F0008D028E03C3EA9410EB64809480501575CD
:100600008220C002C00312053DD003D0020ABA0006
:10061000E30B80E0221201A99001F4120214748FFE
:10062000C0E07400C0E07480C0E0120BCC158115EE
:10063000811581902580E4F5F012030C7542047554
:10064000820212024F75420575820212024F120594
:100650005B90009F75F08012048B9000AD75F08068
:1006600012048B9000B675F08012048B9000C07558
:10067000F08012048B9000CA75F08012048B9000F9
:10068000D475F08012048B9000DD75F08012048B1D
:100690009000E775F08012048B74F1C0E07400C024
:1006A000E07480C0E0120BCC1581158115817A00B1
:1006B0007B0075820AC002C0031202B185820A85DE
:1006C000830B85F00CF50D75820B1202B1AC82AD77
:1006D00083AEF0FFC004C005C006C007C00AC00B4F
:1006E000C00CC00D7421C0E07401C0E07480C0E093
:1006F0007446C0E07400C0E07440C0E0120C55E5E0
:100700008124F2F58190004675F04012037D90003F
:10071000C8120434D003D00220B74B8A048B050AD8
:10072000BA00010BC002C003C004C0057429C0E0B8
:100730007401C0E07480C0E07446C0E07400C0E0A2
:100740007440C0E0120C55E58124F8F58190004614
:1007500075F04012037D75822E120C9B9000C8121A
:100760000434D003D002C002C00312042BD003D043
:100770000240030206B290004675F040C002C0037A
:100780001203F690004675F040120993AC82AD83D7
:10079000AEF0FFC004C005C006C007C004C005C05D
:1007A00006C0077439C0E07401C0E07480C0E01274
:1007B0000BCCE58124F9F581D007D006D005D00413
:1007C000C004C005C006C007C004C005C006C007FD
:1007D0007446C0E07401C0E07480C0E0740EC0E0F4
:1007E0007400C0E07440C0E0120C55E58124F6F5B9
:1007F00081750901D20090000E75F04012058DD070
:1008000007D006D005D004E4C0E07440C0E0741CFA
:10081000C0E07445C0E08C828D838EF0EF1208C07A
:10082000AC82E58124FCF581D003D002EC600302A8
:1008300006B22220F71430F6148883A88220F50728
:10084000E6A88375830022E280F7E49322E022FB8E
:100850007A20E4FCFDFEFFE5822582F582E5833304
:10086000F583E5F033F5F0EB33FB4017DAE980422E
:10087000E5822582F582E58333F583E5F033F5F0F3
:10088000EB33FBEC33FCED33FDEE33FEEF33FFECEB
:100890009542ED9543EE9544EF95454013EC954216
:1008A000FCED9543FDEE9544FEEF9545FF43820137
:1008B000DABEEB22E4AC83AB82FAF9748E020DD877
:1008C000FFA8811818120E00D2D133E6400730E796
:1008D0000B7582002220E70675820122C2D1120D1B
:1008E000E2E97003F5822220D101B3E433F58222DC
:1008F000120EADBC0003020E4CEF60FA30D502B20E
:10090000D1E583B4FF03020E62E582B4FF03020E59
:1009100062258340072482400B020E4C248314502E
:1009200003020E62F582EA8DF0A4A8F0EA8EF0A42C
:1009300028F8E435F0F9EB8DF0A428E935F0F9E476
:1009400033CA8FF0A429F9EA35F0FAEBF88EF0A457
:1009500029F9EA35F0FAE433FBEC8DF0A429F9EA41
:1009600035F0FAE43BFBE88FF0A42AFAEB35F0FB14
:10097000E433CCFD8EF0A42AFAEB35F0FBE43CFC2A
:10098000ED8FF0A42BFBEC35F0FC20E703120E7A80
:10099000020E2BAA82AB83ACF0754000754100C2F9
:1009A000038A058B068C078D828E838FF0120833A5
:1009B000F8B820028003B809070DBD00EA0E80E7F1
:1009C0008D028E038F04B82D0DD20174012DFAE42F
:1009D0003EFB8F04800EC201B82B0974012DFAE48E
:1009E0003EFB8F04753C00753D00753E00753F0071
:1009F0008A058B068C078D828E838FF0120833F860
:100A0000F9B930004005E824C650128D828E838FDC
:100A1000F0120833F8B82E028003020AC88D828EC5
:100A2000838FF0120833F9B92E05D203020AC0C031
:100A300005C006C007C005C006C007C001C03CC055
:100A40003DC03EC03F90000075F02074411208F098
:100A500085823C85833D85F03EF53FE58124FCF5AC
:100A600081D001D007D006D005E93395E0FDE92417
:100A7000D0F582ED34FFF583120F34AD82AE83AF33
:100A8000F0F9C005C006C007C005C006C007C00118
:100A9000853C82853D83853EF0E53F120EDB8582F5
:100AA0003C85833D85F03EF53FE58124FCF581D012
:100AB00007D006D005D007D006D005300302154078
:100AC0000DBD00010E0209F65300DF8D828E838F6B
:100AD000F0E8120BEDB8456274012DFAE43EFB8F8D
:100AE000048A828B838CF0120833FDBD2D09D2025B
:100AF0000ABA000D0B800AC202BD2B050ABA00011A
:100B00000B7541008A828B838CF0120833FDFEBE88
:100B10003000401D8D06EE24C64016E54175F00AF2
:100B2000A4F541ED24D02541F5410ABA00D60B8049
:100B3000D3300206C3E49541F541E5402541F54136
:100B4000E5416055E54130E728C03CC03DC03EC0AE
:100B50003F90CCCD75F0CC743D1208F085823C8579
:100B6000833D85F03EF53FE58124FCF5810541801C
:100B7000CFC03CC03DC03EC03F90000075F0207427
:100B8000411208F085823C85833D85F03EF53FE5C6
:100B90008124FCF581154180A730010F853C3C85FF
:100BA0003D3D853E3EE53FB2E7F53F853C82853DD4
:100BB00083853EF0E53F22020C9B85823885833990
:100BC00085F03A851F3B900BB7021320C008858142
:100BD00008E50824FBF53BE50824FBF88638088681
:100BE0003908863A900BB7121320D0082220F7104C
:100BF00030F6118883A88220F507F6A88375830054
:100C000022F280F7F022AA82AB23AC24AD258B829E
:100C10008C838DF0EA120BED0523E4B52302052445
:100C20002285822385832485F025852638852739EA
:100C300085283A85293B900C06121320AA82AB83A3
:100C4000AC23AD24AE258C828D838EF0E4120BEDA7
:100C50008A828B8322C008858108E50824F8F53B49
:100C6000E50824FBF88623088624088625E5082461
:100C7000F8F8863808863908863A900C0612132050
:100C8000AA82AB83AC23AD24AE258C828D838EF0FB
:100C9000E4120BED8A828B83D00822AA82BA0A085A
:100CA00010990280FB75990D10990280FB8A992298
:100CB000120EAD30D502B2D1BF0009BC0003020E46
:100CC0006F020E62BC0003020E4CE583B4FF0BE51D
:100CD00082B4FF03020E6F020E4CE582B4FF0302E2
:100CE0000E62C395835007247F400B020E4C248074
:100CF000145003020E62C0E0E4CCCBCAF98D428EE0
:100D0000438F44EF54F0C4F5457583068545F0EBF9
:100D100084F582E9C4F9EAC4FAEBC4FBEC540FC4CD
:100D20007803D6FC18EBD6FB18EAD6FA8582F0EDEC
:100D3000A4A8F0FD8582F0EEA428FEE435F0F88545
:100D400082F0EFA428FFE435F0F8E99DF9EA9EFA75
:100D5000EB9FFBEC98FCAD42AE43AF4430E710157F
:100D600082E92DF9EA3EFAEB3FFBE43CFC80EDC062
:100D700082D58398C3E933F9EA33FAEB33FBEC33DA
:100D8000FCC3E99DEA9EEB9FEC9400B3E413F9D019
:100D900002D0E0C44AFAD003D0E0C44BFBD004D068
:100DA000E0F5F0540FC44CFCD082158230F40FD320
:100DB000EC13FCEB13FBEA13FAE913F90582E930B3
:100DC000E70A74012AFAE43BFBE43CFC020E43FC14
:100DD000ABF0AA83A982749EC2D1F582120E7A0268
:100DE0000E2B7901AA82E68F82B5821318E6B5F040
:100DF0000E18E6B5830918E68A82B58202790022C8
:100E0000B4800FE5F0700AE5837006E58270027F1A
:100E100000EFB6801518B6001018B6000B18B60013
:100E20000608080876002208080822B98003EA1399
:100E3000B34010EA2401FAE43BFBE43CFC50047CA0
:100E4000800582BC000EBB000BBA0008E4F5F0F58B
:100E500083F58222A2D1E582138CF092F78B838AEC
:100E60008222E4F583F58275F080F4A2D11322E4A6
:100E7000F583F58275F0C0747F227804EC7011E57B
:100E80008224F8500AF582E4C9CACBFCD8EF22ECE0
:100E90007820058220E713D5820122C3E933F9EADD
:100EA00033FAEB33FBEC33FCD8EA158222AA82AB8F
:100EB00083A2F73392D16002D2F7F582ACF0E581DC
:100EC00024F9F8E6FD08E6FE0886F008E6A2F73306
:100ED00092D56002D2F7F583AFF022120EAD790001
:100EE000E583B58202800D50031218CDE583C395CA
:100EF000821218E7E5D0C465D020E117EA2DFAEB9D
:100F00003EFBEC3FFC500974011218E7EC4480FCF6
:100F1000020E2BC3EA9DFAEB9EFBEC9FFC500FC325
:100F2000E499F9E49AFAE49BFBE49CFCB2D1120E3A
:100F30007A020E2BAC83AB827A007900748E021990
:100F400033AA827452C0E0740FC0E0C02AC02B8A5A
:100F500082220531E4B53102053222AA8274302A98
:100F6000FA24C6500A74072AFA3004034302208A7E
:100F700082020F41E582FAC4540FF582C002120FBB
:100F80005BD002740F5AF582020F5BAA2CAB2DAC1A
:100F90002EAD2FAE30753720EE2EFEED235401FF1F
:100FA0004206EA2AFAEB33FBEC33FCED33FDC3EEE9
:100FB00095334008EEC39533FE430201D537D98AF5
:100FC0002C8B2D8C2E8D2F8E30227866E624D075BA
:100FD000F00AA4FA7867E624D02AFA78658603BB7B
:100FE0002D04C3E49AFA753301C3E464808AF06384
:100FF000F08095F050297537038A0374F625374041
:101000001C0533E53714245AF8E537245AF98704C8
:10101000A604772E1BEBFA6004053780DE8B02EA0C
:1010200030E70D785B8603785CA603785B762E0A42
:10103000E535600AE53504FB2533F5338005300FCF
:10104000020533785A8603E4BB2D0104FB700620A9
:101050000A03300B0205333008030211113009571F
:10106000EB600C75822DC002120F41D002801C3043
:101070000A0C75822BC002120F41D002800D300B7A
:101080000A758220C002120F41D002785B8604BC30
:101090002E0C758230C002120F41D0021534AC34D0
:1010A0001534C3E5339C4003021155758230C002EC
:1010B000120F41D00280E7AC341534C3E5339C50A5
:1010C0000C758220C002120F41D00280EA785A8645
:1010D00004BC2D0C75822DC002120F41D002801C61
:1010E000300A0C75822BC002120F41D002800D30E5
:1010F0000B0A758220C002120F41D002785B860471
:10110000BC2E52758230C002120F41D002153480BD
:1011100044EB600E75822DC002120F41D0021534CF
:101120008020300A0E75822BC002120F41D00215AA
:1011300034800F300B0C758220C002120F41D00298
:101140001534785B8603BB2E0C758230C002120FFB
:1011500041D0021534753701C211E537245AF8869B
:1011600003BB4503021212BB2E348A03C3E464801E
:101170008BF063F08095F0500F758230C003120F32
:1011800041D0031B8B0280E48B02D211E53570380D
:10119000200F0302121275822E120F41807430113B
:1011A000278A03EB30E71FC3E464808535F063F0E2
:1011B0008095F0500C758230C003120F41D003159A
:1011C000350B8B0280DD8B0230110EC3E464808509
:1011D00035F063F08095F05021E537245AF8860306
:1011E0008B82C002120F41D00230110EE537245A13
:1011F000F88603BB2E02800215351534C3E46480E3
:101200008535F063F08095F0400320110505370225
:10121000115AC3E464808535F063F08095F0500A7C
:10122000758230120F41153580E830080FAA341549
:1012300034EA6008758220120F4180F122E5357092
:1012400003300F0D74072535FAE534C39AF5348061
:1012500006E53424FAF534753700785A8602BA2B3D
:101260000F200A0C785A7620200B057537010534BB
:10127000200819AA34C3E464808AF063F08095F0F2
:10128000500A758220120F41153480E7C211E537EC
:10129000245AF88602BA00028069BA451F30040257
:1012A0007665C3E464808535F063F08095F0500A7C
:1012B000758230120F41153580E8D211C3E537949D
:1012C00002E433FA7014EA700EC3E464808535F0EA
:1012D00063F08095F04003301116E537245AF88604
:1012E000028A82120F41E53724FD50121535800E17
:1012F0007402B53709300F0675822E120F4105377B
:1013000002128E300819AA34C3E464808AF063F0B4
:101310008095F0500A758220120F41153480E72223
:1013200085822A85832BE4F531F532AA38AB39ACB6
:101330003A8A828B838CF0120833FD74012AF538C7
:10134000E43BF5398C3AEDFA70030218C6BA25026F
:1013500080030218BEC208C209C20AC20BC20CC274
:101360000DC20EC20FC205C206C207753300753426
:10137000007535FFAB38AC39AD3A8B828C838DF07C
:10138000120833FAA3AB82AC838B388C398D3ABA0E
:1013900025078A82120F4180928A06BE3000402EB5
:1013A0008A06EE24C6402774FFB53513E53475F080
:1013B0000AA4FEEA24D02EF53470BFD20980BBE522
:1013C0003575F00AA4FEEA24D02EF53580ACBA2E8D
:1013D0000A74FFB535A4753500809F8A06BE61008A
:1013E000400E8A06EE248540075302DFD2048002B5
:1013F000C204BA20028075BA230302147BBA2A03FE
:10140000021480BA2B02805FBA2D028055BA4202C4
:10141000805FBA43030214C5BA4403021600BA45FA
:101420000302161ABA4603021616BA470302161E1C
:10143000BA4903021600BA4C02803BBA4E030216A8
:1014400022BA4F03021607BA5003021599BA530382
:101450000214E9BA550302160CBA58030216110217
:10146000164CD20802137AD20A02137AD20B021354
:101470007AD20D02137AD20E02137AD20F02137AA5
:1014800074FFB53520300D0BE53B14F8883B8634EE
:1014900002137AE53B24FEF8883B86060886071887
:1014A0008E3402137A300D0BE53B14F8883B8635F9
:1014B00002137AE53B24FEF8883B86060886071867
:1014C0008E3502137A300D0AE53B14F8883B86020C
:1014D000800FE53B24FEF8883B8603088604188BC2
:1014E000028A82120F41021651E53B24FDF8883B27
:1014F000860308860408860518188B2C8C2D8D2EE3
:101500008B828C838DF0121A76AB82AC838B36740F
:10151000FFB5350385363520081DC3E536953450B3
:1015200016E534C39536F534AB341534EB600875E5
:101530008220120F4180F1852C82852D83852EF02B
:10154000120833FBFA6029AB351535C3E464808B90
:10155000F063F08095F050188A82120F41AB2CACEA
:101560002DAD2E0BBB00010C8B2C8C2D8D2E80C72E
:10157000200803021651C3E5369534400302165184
:10158000E534C39536F534AB341534EB70030216ED
:1015900051758220120F4180EEE53B24FDF8883B17
:1015A000860308860408860518188B2C8C2D8D2E32
:1015B000E52EFB30E7047A438013EB546060047A35
:1015C00050800AEB30E6047A4980027A588A82C059
:1015D00002120F4175823A120F41758230120F418B
:1015E000758278120F41D002BA4902800BBA5002BC
:1015F0008006852D82120F74852C82120F74805103
:10160000D20C75330A804A753308804575330A80D9
:1016100040753310803BD2058037D2068033D20725
:10162000802FE53B24FDF8883B8603088604088666
:101630000518188B2C8C2D8D2E8B828C838DF0E5CC
:1016400031120BEDA3E532120BED80058A82120FE9
:1016500041200506200603300770E53B24FCF8888E
:101660003B86030886040886050886061818188B2A
:101670002C8C2D8D2E8E2FE52CE52DE52EE52F8B38
:10168000828C838DF0EE12195774FFB535037535D2
:1016900006300727747F552FFB8B30E530EB2BFB93
:1016A0008B30E52E30E70674014530F530E5302407
:1016B000684006749925304002D2063006061212A0
:1016C0003D02132B120FCA02132BE53370030213D2
:1016D0002B7B5F300D2BE53B14F8883BE6FC339504
:1016E000E0FDFEFF8C2C8D2D8E2E8F2F200C5EACFE
:1016F0002C7D007E007F008C2C8D2D8E2E8F2F80D8
:101700004C300E1FE53B24FCF8883B860408860518
:101710000886060886071818188C2C8D2D8E2E8F9B
:101720002F802AE53B24FEF8883B860408860518AE
:10173000ED3395E0FEFF8C2C8D2D8E2E8F2F200CFF
:101740000CAC2CAD2D7E007F008E2E8F2F300F43E2
:10175000E52C452D452E452F60397408B5330C75A1
:101760008230C003120F41D00380287410B5332398
:10177000758230C003120F41D00330040C7582789B
:10178000C003120F41D003800A758258C003120FA4
:1017900041D003300C25AC2CAD2DAE2EE52FFF3003
:1017A000E717C3E49CFCE49DFDE49EFEE49FFF8CF0
:1017B0002C8D2D8E2E8F2F8002C20C753600D210EC
:1017C0008B00753000C000120F8BD00020100DE58B
:1017D00030C4FCE6FD4CF61888038002A6300536BE
:1017E000B210E52C452D452E452F70D68803E534E3
:1017F000700375340120091A200817E53604FCC36C
:101800009534500E758220C003120F41D003153459
:1018100080E9300C0E75822DC003120F41D00315E4
:10182000348024E5366020300A0E75822BC0031206
:101830000F41D0031534800F300B0C758220C0038C
:10184000120F41D003153420081EAC341534C3E503
:10185000369C50273009047C3080027C208C82C06A
:1018600003120F41D00380E2C3E53695345009E5F9
:1018700034C39536F53480037534008B00AB3615D0
:1018800036EB6022B21020100A08E6C4540FFB8B1E
:101890003080078603740F5BF530853082C00012FC
:1018A0000F5BD00080D720080302132BAB34153414
:1018B000EB700302132B758220120F4180EE8A8297
:1018C000120F4102132B85318285328322E582C5B6
:1018D00083F582A2D133A2D592D11392D5ECCFFC5D
:1018E000EBCEFBEACDFA226040F82582500274FF6D
:1018F000F582E824F8501ECCCBCAF9E4CC24F85089
:1019000014CBCAF9E4CB24F8500BCAF9E4CA24F882
:10191000500379002224086010F8C3EC13FCEB1389
:10192000FBEA13FAE913F9D8F122FCABF0AA83A978
:1019300082749EF582C2D1EC30E716D2D1E9F4244C
:1019400001F9EAF43400FAEBF43400FBECF434006F
:10195000FC120E7A020E2BC0E0F84582458345F05A
:101960007009F5F0FBFCFDFE021A25E823A2F792B0
:10197000E0F8A982AA83D2F7ABF07C007E07C3749B
:101980009798404074FF2EFE740A89F0A4F985F000
:1019900082740A8AF0A4FA85F083740A8BF0A4FB9F
:1019A000740529F9EA3582FAEB3583FB740035F0CA
:1019B000FCC3EC13FCEB13FBEA13FAE913F908EC94
:1019C00070EF80BAE8C3947FF88B838EF0E4FBFC61
:1019D000FDFEFF08C3E933F9EA33FAE58333F58303
:1019E000EB3BD4FBEC3CD4FCED3DD4FDEE3ED4FE11
:1019F000EF3FD4FF602D05F074052BD4FBE43CD4FD
:101A0000FCE43DD4FDE43ED4FEE43FD4FF75820403
:101A1000C3EF13FFEE13FEED13FDEC13FCEB13FB12
:101A2000D582EDD8AF785AD0E020E704762B80023B
:101A3000762D087906E7C4540F4430F608B906033A
:101A4000762E08E7540F4430F60819B902E77645B8
:101A500008E5F020E704762B8004762DF404087561
:101A6000F00A844430F608E5F04430F608E4F690D5
:101A7000005A75F04022AA82AB83ACF07D007E0054
:101A80008A828B838CF0120833FFA3AA82AB83EF88
:101A900060070DBD00EA0E80E78D828E8322000074
:00000001FF
