:10000000020003758149120137E582600302006F27
:10001000780079007A007B007C007D00EC4D601C4C
:1000200088828983E493A3A882A9838A828B83F040
:10003000A3AA82AB831CBCFFE31D80E07582007520
:1000400083007C007D00EC4D600AE4F0A31CBCFF43
:10005000F51D80F27582007583007C007D00EC4DFB
:10006000600AE4F0A31CBCFFF51D80F212013612F9
:1000700005D980FE436F6D6D616E643A2025730073
:10008000526573706F6E73653A2025730D0A000D0B
:100090000A4A44592D343020746573740D0A0041A6
:1000A000542B44564944393934340D0A0041542BF9
:1000B0005645520D0A0041542B424155440D0A0049
:1000C00041542B524649440D0A0041542B44564991
:1000D000440D0A0041542B5246430D0A0041542B53
:1000E000504F57450D0A0041542B434C53530D0AB2
:1000F000000D507265737320616E6420686F6C64CC
:100100002074686520424F4F5420627574746F6E7E
:1001100020746F207472616E736D69742E0D0A0005
:10012000783A2025342E32660D0A00793A2025349B
:100130002E32660D0A002275A7007597DE7597AD01
:1001400075FF8075EF0675A71075C12075A700753E
:10015000A90075A900E5A930E7FB75A90375A903F6
:10016000E5A930E7FB43A41143A60175E10175E25F
:100170000075E341759810758DE6858D8B53890F59
:10018000438920D28ED2997582002275A700C2EFD2
:1001900075B28075BC2075B91E75E80075DF3F75B6
:1001A000B300D2EF22AA82438E407592B87593FFB6
:1001B0008592948593957591047B00C3EB9A500BBF
:1001C000E59130E7FB53917F0B80F075910022534E
:1001D00089F0438901C28C22AA82AB837C007D0016
:1001E000C3EC9AED9B502B7E00BE0400501D75821F
:1001F000FAC002C003C004C005C0061201A5D006A3
:10020000D005D004D003D0020E80DE0CBC00D10D8E
:1002100080CE22AA828522F005F07401800225E0BA
:10022000D5F0FBFB75A720BA0002800ABA01028054
:100230000FBA021E8014EBF4FA52F1EB42D4801292
:10024000EBF4FA52F2EB42D58008EBF4FA52F3EBFE
:1002500042CC75A700228582BBC2EDD2EC30EDFD09
:1002600085BD8285BE8322C2EDD2EC30EDFD85BD19
:100270008285BE832212025612075DAA82AB83AC2E
:10028000F0FDC002C003C004C00590333375F09B7D
:100290007440120769AA82AB83ACF0FDE58124FCAF
:1002A000F581E4C0E074FCC0E0747FC0E07446C037
:1002B000E08A828B838CF0ED12085BAA82AB83AC60
:1002C000F0FDE58124FCF5818A828B838CF0ED22A0
:1002D000AA82AB83ACF0FD75A72075930C75C8108E
:1002E0007594008A228B238C248D2590A20075F0B2
:1002F0004A74041206F8AA82AB83ACF0FD7522188A
:10030000E4F523F524F5258A828B838CF0ED120623
:10031000F8AA82AB83ACF0FDE4C39AFAE49BFB74C9
:10032000019CE49D8A958B96D2C943944075A700A1
:1003300022AA8275A72010C90280FB8A9275A700A5
:1003400022AA82AB83ACF08A828B838CF01206DC0B
:10035000FD60188D82C002C003C004120331D004B6
:10036000D003D0020ABA00DF0B80DC2275A7201070
:10037000C80280FB53C83F85928275A7002275A7EB
:10038000207A007B0020C82675A700758214C00261
:10039000C0031201A5D003D00275A7200ABA00013C
:1003A0000BBAA8E1BB61DE75A70075820A22C2C83C
:1003B00053C83F85928275A70022AA82AB83ACF016
:1003C000C002C003C00412037EAD82D004D003D0AB
:1003D00002BD0A0A8A828B838CF0E40208428A8278
:1003E0008B838CF0ED120842A3AA82AB8380D17577
:1003F000A720A2C875A70022AA82AB837C007D003B
:10040000C3EC9AED9B50477E00BE04005039C002F9
:10041000C003C004C005C0061203EFE433D006D009
:1004200005D004D003D0026001227582FAC002C058
:1004300003C004C005C0061201A5D006D005D00433
:10044000D003D0020E80C20CBC00B50D80B222AA2F
:1004500082AB83ACF0C002C003C004C002C003C0C2
:10046000047474C0E07400C0E07480C0E01208211D
:10047000E58124FAF581C2B09000051201D8D004BC
:10048000D003D0028A828B838CF012034190002625
:1004900075F0401203BA90000A1201D8D2B0742647
:1004A000C0E07400C0E07440C0E07480C0E074003C
:1004B000C0E07480C0E0120821E58124FAF58122B1
:1004C000D2A07582281201A5C2A022AA828AE0A227
:1004D000E79290A2E69291A2E59292A2E49293C052
:1004E000021204C07582281201A5D0028AE0A2E39C
:1004F0009290A2E29291A2E19292A2E092930204DF
:10050000C0AA82D2978A821204CB9000020201D83C
:10051000AA82C2978A821204CB9000050201D8C237
:10052000A09000141201D875823312051075823321
:100530001205107582321205107582281205107589
:10054000820C120510758201120510900014020130
:10055000D8AA82AB83ACF07402B509047DC08002D6
:100560007D808D82C002C003C0041205109000057A
:100570001201D8D004D003D0027D007E00ED2AFF06
:10058000EE3BF88C018F82888389F01206DCFF60D5
:10059000208F82C002C003C004C005C0061205013E
:1005A000D006D005D004D003D0020DBD00CF0E8000
:1005B000CC3000248D028E03C3EA9410EB64809447
:1005C000805015758220C002C003120501D003D0EF
:1005D000020ABA00E30B80E02212018B9001F412B0
:1005E00001D8748FC0E07400C0E07480C0E01208CD
:1005F00021158115811581902580E4F5F01202D036
:100600007522047582021202137522057582021288
:10061000021390009F75F08012044F9000AD75F0AA
:100620008012044F9000B675F08012044F9000C005
:1006300075F08012044F9000CA75F08012044F903C
:1006400000D475F08012044F9000DD75F080120424
:100650004F9000E775F08012044F74F1C0E0740011
:10066000C0E07480C0E012082115811581158175E4
:100670008212120275AA82AB83ACF0FD758211C0A2
:1006800002C003C004C005120275AE82AF83A8F099
:10069000F9D005D004D003D002C006C007C000C006
:1006A00001C002C003C004C0057420C0E07401C0D2
:1006B000E07480C0E0120821E58124F9F581742BF3
:1006C000C0E07401C0E07480C0E0120821E581241C
:1006D000F9F5819001F41201D802066F20F7143069
:1006E000F6148883A88220F507E6A8837583002284
:1006F000E280F7E49322E022FB7A20E4FCFDFEFF97
:10070000E5822582F582E58333F583E5F033F5F064
:10071000EB33FB4017DAE98042E5822582F582E57A
:100720008333F583E5F033F5F0EB33FBEC33FCED8D
:1007300033FDEE33FEEF33FFEC9522ED9523EE957E
:1007400024EF95254013EC9522FCED9523FDEE95C5
:1007500024FEEF9525FF438201DABEEB22E4AC8351
:10076000AB82FAF9748E020983120A0FBC000302ED
:1007700009AEEF60FA30D502B2D1E583B4FF0302CF
:1007800009C4E582B4FF030209C42583400724821B
:10079000400B0209AE24831450030209C4F582EA17
:1007A0008DF0A4A8F0EA8EF0A428F8E435F0F9EB77
:1007B0008DF0A428E935F0F9E433CA8FF0A429F9C3
:1007C000EA35F0FAEBF88EF0A429F9EA35F0FAE40C
:1007D00033FBEC8DF0A429F9EA35F0FAE43BFBE8B1
:1007E0008FF0A42AFAEB35F0FBE433CCFD8EF0A4B5
:1007F0002AFAEB35F0FBE43CFCED8FF0A42BFBEC8C
:1008000035F0FC20E7031209DC02098D0213C985CB
:10081000821985831A85F01B850A1C90080C020E2C
:100820001CC008858108E50824FBF51CE50824FBAD
:10083000F8861908861A08861B90080C120E1CD020
:10084000082220F71030F6118883A88220F507F6D9
:10085000A88375830022F280F7F022120A0F30D5A8
:1008600002B2D1BF0009BC00030209D10209C4BC15
:1008700000030209AEE583B4FF0BE582B4FF030277
:1008800009D10209AEE582B4FF030209C4C395830E
:100890005007247F400B0209AE2480145003020944
:1008A000C4C0E0E4CCCBCAF98D228E238F24EF5450
:1008B000F0C4F5257583068525F0EB84F582E9C43F
:1008C000F9EAC4FAEBC4FBEC540FC47803D6FC1865
:1008D000EBD6FB18EAD6FA8582F0EDA4A8F0FD85E8
:1008E00082F0EEA428FEE435F0F88582F0EFA4282B
:1008F000FFE435F0F8E99DF9EA9EFAEB9FFBEC98EE
:10090000FCAD22AE23AF2430E7101582E92DF9EAC1
:100910003EFAEB3FFBE43CFC80EDC082D58398C3FC
:10092000E933F9EA33FAEB33FBEC33FCC3E99DEA34
:100930009EEB9FEC9400B3E413F9D002D0E0C44ADC
:10094000FAD003D0E0C44BFBD004D0E0F5F0540F54
:10095000C44CFCD082158230F40FD3EC13FCEB13A3
:10096000FBEA13FAE913F90582E930E70A74012A70
:10097000FAE43BFBE43CFC0209A5FCABF0AA83A92A
:1009800082749EC2D1F5821209DC02098DB98003FE
:10099000EA13B34010EA2401FAE43BFBE43CFC50C8
:1009A000047C800582BC000EBB000BBA0008E4F595
:1009B000F0F583F58222A2D1E582138CF092F78BB9
:1009C000838A8222E4F583F58275F080F4A2D11344
:1009D00022E4F583F58275F0C0747F227804EC7010
:1009E00011E58224F8500AF582E4C9CACBFCD8EF9D
:1009F00022EC7820058220E713D5820122C3E93357
:100A0000F9EA33FAEB33FBEC33FCD8EA158222AA7D
:100A100082AB83A2F73392D16002D2F7F582ACF0B9
:100A2000E58124F9F8E6FD08E6FE0886F008E6A26E
:100A3000F73392D56002D2F7F583AFF022AA827421
:100A40004EC0E0740AC0E0C00BC00C8A82220512BE
:100A5000E4B51202051322AA8274302AFA24C65081
:100A60000A74072AFA3001034302208A82020A3DEF
:100A7000E582FAC4540FF582C002120A57D00274FC
:100A80000F5AF582020A57AA0DAB0EAC0FAD10AE8D
:100A900011751820EE2EFEED235401FF4206EA2ABE
:100AA000FAEB33FBEC33FCED33FDC3EE9514400859
:100AB000EEC39514FE430201D518D98A0D8B0E8C16
:100AC0000F8D108E11227846E624D075F00AA4FA14
:100AD0007847E624D02AFA78458603BB2D04C3E480
:100AE0009AFA751401C3E464808AF063F08095F08B
:100AF00050297518038A0374F62518401C0514E55F
:100B00001814243AF8E518243AF98704A604772E35
:100B10001BEBFA6004051880DE8B02EA30E70D78E3
:100B20003B8603783CA603783B762E0AE516600ADE
:100B3000E51604FB2514F5148005300C0205147825
:100B40003A8603E4BB2D0104FB700620070330083E
:100B5000020514300503020C0D300657EB600C75CE
:100B6000822DC002120A3DD002801C30070C758213
:100B70002BC002120A3DD002800D30080A75822077
:100B8000C002120A3DD002783B8604BC2E0C75824E
:100B900030C002120A3DD0021515AC151515C3E57B
:100BA000149C4003020C51758230C002120A3DD0E1
:100BB0000280E7AC151515C3E5149C500C75822016
:100BC000C002120A3DD00280EA783A8604BC2D0C9D
:100BD00075822DC002120A3DD002801C30070C75B0
:100BE000822BC002120A3DD002800D30080A7582A5
:100BF00020C002120A3DD002783B8604BC2E5275FA
:100C00008230C002120A3DD00215158044EB600EFE
:100C100075822DC002120A3DD002151580203007C2
:100C20000E75822BC002120A3DD0021515800F30BE
:100C3000080C758220C002120A3DD0021515783BBF
:100C40008603BB2E0C758230C002120A3DD00215FD
:100C500015751801C20EE518243AF88603BB450342
:100C6000020D0EBB2E348A03C3E464808BF063F064
:100C70008095F0500F758230C003120A3DD0031BDF
:100C80008B0280E48B02D20EE5167038200C030232
:100C90000D0E75822E120A3D8074300E278A03EBEA
:100CA00030E71FC3E464808516F063F08095F05050
:100CB0000C758230C003120A3DD00315160B8B024F
:100CC00080DD8B02300E0EC3E464808516F063F085
:100CD0008095F05021E518243AF886038B82C002F3
:100CE000120A3DD002300E0EE518243AF88603BBF6
:100CF0002E02800215161515C3E464808516F06374
:100D0000F08095F04003200E050518020C56C3E450
:100D100064808516F063F08095F0500A7582301279
:100D20000A3D151680E830050FAA151515EA60086A
:100D3000758220120A3D80F122E5167003300C0DF9
:100D400074072516FAE515C39AF5158006E51524EE
:100D5000FAF515751800783A8602BA2B0F20070CA1
:100D6000783A76202008057518010515200519AA7E
:100D700015C3E464808AF063F08095F0500A7582B0
:100D800020120A3D151580E7C20EE518243AF886B0
:100D900002BA00028069BA451F3001027665C3E4D9
:100DA00064808516F063F08095F0500A75823012E9
:100DB0000A3D151680E8D20EC3E5189402E433FA12
:100DC0007014EA700EC3E464808516F063F08095B9
:100DD000F04003300E16E518243AF886028A821293
:100DE0000A3DE51824FD50121516800E7402B51840
:100DF00009300C0675822E120A3D0518020D8A3044
:100E00000519AA15C3E464808AF063F08095F05058
:100E10000A758220120A3D151580E72285820B850E
:100E2000830CE4F512F513AA19AB1AAC1B8A828B5A
:100E3000838CF01206DCFD74012AF519E43BF51AE7
:100E40008C1BEDFA70030213C2BA25028003021351
:100E5000BAC205C206C207C208C209C20AC20BC290
:100E60000CC202C203C2047514007515007516FF8A
:100E7000AB19AC1AAD1B8B828C838DF01206DCFA99
:100E8000A3AB82AC838B198C1A8D1BBA25078A827F
:100E9000120A3D80928A06BE3000402E8A06EE2459
:100EA000C6402774FFB51613E51575F00AA4FEEACF
:100EB00024D02EF51570BFD20680BBE51675F00A5A
:100EC000A4FEEA24D02EF51680ACBA2E0A74FFB523
:100ED00016A4751600809F8A06BE6100400E8A0621
:100EE000EE248540075302DFD2018002C201BA20FE
:100EF000028075BA2303020F77BA2A03020F7CBA65
:100F00002B02805FBA2D028055BA4202805FBA433D
:100F100003020FC1BA44030210FCBA4503021116C2
:100F2000BA4603021112BA470302111ABA49030260
:100F300010FCBA4C02803BBA4E0302111EBA4F039A
:100F4000021103BA5003021095BA5303020FE5BA17
:100F50005503021108BA580302110D021148D205B7
:100F6000020E76D207020E76D208020E76D20A025E
:100F70000E76D20B020E76D20C020E7674FFB516E8
:100F800020300A0BE51C14F8881C8615020E76E545
:100F90001C24FEF8881C8606088607188E15020E8B
:100FA00076300A0BE51C14F8881C8616020E76E5CE
:100FB0001C24FEF8881C8606088607188E16020E6A
:100FC00076300A0AE51C14F8881C8602800FE51C9E
:100FD00024FEF8881C8603088604188B028A821275
:100FE0000A3D02114DE51C24FDF8881C8603088685
:100FF0000408860518188B0D8C0E8D0F8B828C8340
:101000008DF01214FDAB82AC838B1774FFB5160301
:1010100085171620051DC3E51795155016E515C350
:101020009517F515AB151515EB6008758220120A9A
:101030003D80F1850D82850E83850FF01206DCFB65
:10104000FA6029AB161516C3E464808BF063F08058
:1010500095F050188A82120A3DAB0DAC0EAD0F0B05
:10106000BB00010C8B0D8C0E8D0F80C72005030279
:10107000114DC3E5179515400302114DE515C395B4
:1010800017F515AB151515EB700302114D75822080
:10109000120A3D80EEE51C24FDF8881C86030886B4
:1010A0000408860518188B0D8C0E8D0FE50FFB308C
:1010B000E7047A438013EB546060047A50800AEBB3
:1010C00030E6047A4980027A588A82C002120A3DC8
:1010D00075823A120A3D758230120A3D7582781285
:1010E0000A3DD002BA4902800BBA50028006850E32
:1010F00082120A70850D82120A708051D20975140D
:101100000A804A751408804575140A8040751410C9
:10111000803BD2028037D2038033D204802FE51C7B
:1011200024FDF8881C860308860408860518188B99
:101130000D8C0E8D0F8B828C838DF0E51212084280
:10114000A3E51312084280058A82120A3D20020696
:10115000200303300470E51C24FCF8881C86030877
:1011600086040886050886061818188B0D8C0E8DC7
:101170000F8E10E50DE50EE50FE5108B828C838D4B
:10118000F0EE1213DE74FFB5160375160630042751
:10119000747F5510FB8B11E511EB2BFB8B11E50FC9
:1011A00030E70674014511F511E511246840067415
:1011B0009925114002D203300306120D39020E2781
:1011C000120AC6020E27E5147003020E277B3F3079
:1011D0000A2BE51C14F8881CE6FC3395E0FDFEFFA5
:1011E0008C0D8D0E8E0F8F1020095EAC0D7D007E54
:1011F000007F008C0D8D0E8E0F8F10804C300B1FDA
:10120000E51C24FCF8881C86040886050886060868
:1012100086071818188C0D8D0E8E0F8F10802AE5FA
:101220001C24FEF8881C860408860518ED3395E01A
:10123000FEFF8C0D8D0E8E0F8F1020090CAC0DADA6
:101240000E7E007F008E0F8F10300C43E50D450E93
:10125000450F451060397408B5140C758230C00311
:10126000120A3DD00380287410B51423758230C053
:1012700003120A3DD00330010C758278C003120AB4
:101280003DD003800A758258C003120A3DD0033056
:101290000925AC0DAD0EAE0FE510FF30E717C3E426
:1012A0009CFCE49DFDE49EFEE49FFF8C0D8D0E8E64
:1012B0000F8F108002C209751700D20D8B007511B7
:1012C00000C000120A87D000200D0DE511C4FCE615
:1012D000FD4CF61888038002A6110517B20DE50D26
:1012E000450E450F451070D68803E515700375153A
:1012F0000120061A200517E51704FCC39515500EAA
:10130000758220C003120A3DD003151580E930090B
:101310000E75822DC003120A3DD00315158024E5F9
:1013200017602030070E75822BC003120A3DD003D0
:101330001515800F30080C758220C003120A3DD0AD
:1013400003151520051EAC151515C3E5179C502770
:101350003006047C3080027C208C82C003120A3D5F
:10136000D00380E2C3E51795155009E515C395171D
:10137000F51580037515008B00AB171517EB602270
:10138000B20D200D0A08E6C4540FFB8B11800786AE
:1013900003740F5BF511851182C000120A57D0004B
:1013A00080D7200503020E27AB151515EB7003023D
:1013B0000E27758220120A3D80EE8A82120A3D02B3
:1013C0000E2785128285138322AA82BA0A081099F1
:1013D0000280FB75990D10990280FB8A9922C0E06A
:1013E000F84582458345F07009F5F0FBFCFDFE02EF
:1013F00014ACE823A2F792E0F8A982AA83D2F7AB53
:10140000F07C007E07C3749798404074FF2EFE74F2
:101410000A89F0A4F985F082740A8AF0A4FA85F0AA
:1014200083740A8BF0A4FB740529F9EA3582FAEB80
:101430003583FB740035F0FCC3EC13FCEB13FBEAC3
:1014400013FAE913F908EC70EF80BAE8C3947FF857
:101450008B838EF0E4FBFCFDFEFF08C3E933F9EA61
:1014600033FAE58333F583EB3BD4FBEC3CD4FCED62
:101470003DD4FDEE3ED4FEEF3FD4FF602D05F07469
:10148000052BD4FBE43CD4FCE43DD4FDE43ED4FE87
:10149000E43FD4FF758204C3EF13FFEE13FEED1398
:1014A000FDEC13FCEB13FBD582EDD8AF783AD0E01E
:1014B00020E704762B8002762D087906E7C4540FC6
:1014C0004430F608B90603762E08E7540F4430F688
:1014D0000819B902E7764508E5F020E704762B8085
:1014E00004762DF4040875F00A844430F608E5F01B
:1014F0004430F608E4F690003A75F04022AA82AB38
:1015000083ACF07D007E008A828B838CF01206DC37
:10151000FFA3AA82AB83EF60070DBD00EA0E80E750
:101520008D828E8322000000000000000000000079
:00000001FF
