:1000000002002E220000000000000000000000009E
:1000200000000000000000000000000200FD7581DB
:100030000712009FE582600302009A780079007A37
:10004000007B007C007D00EC4D601C88828983E48D
:1000500093A3A882A9838A828B83F0A3AA82AB830D
:100060001CBCFFE31D80E07582007583007C007D71
:1000700000EC4D600AE4F0A31CBCFFF51D80F27596
:1000800082007583007C007D00EC4D600AE4F0A3E3
:100090001CBCFFF51D80F212000312020280FE75E7
:1000A000A7007597DE7597AD75FF8075EF0675A78C
:1000B0001075C12075A70075A90075A900E5A930C4
:1000C000E7FB75A90375A903E5A930E7FB43A4C2C3
:1000D000E5A575A5FF43A60175E10075E20075E38E
:1000E0004075C800438E1075CA2075CBD175CEFF00
:1000F00075CFFFD2ADD2CAD2AF7582002275A700EC
:10010000C2CFB29632AA82AB83ACF0FDC3EA94F4BC
:10011000EB9401EC9400ED94004019EA94BCEB944C
:1001200002EC9400ED9400500BC2CA75CA6075CB06
:1001300073D2CA22C3EA94BCEB9402EC9400ED940F
:10014000004019EA9420EB9403EC9400ED940050E5
:100150000BC2CA75CAB075CBB9D2CA22C3EA942001
:10016000EB9403EC9400ED94004019EA9484EB9432
:1001700003EC9400ED9400500BC2CA75CA2075CBF5
:10018000D1D2CA22C3EA9484EB9403EC9400ED9498
:10019000004019EA94E8EB9403EC9400ED940050CD
:1001A0000BC2CA75CAD875CBDCD2CA22C3EA94E89E
:1001B000EB9403EC9400ED94004019EA944CEB941A
:1001C00004EC9400ED9400500BC2CA75CAE075CBE4
:1001D000E3D2CA22C3EA944CEB9404EC9400ED946D
:1001E00000400AC2CA75CA9075CBE8D2CA22AA8258
:1001F000AB831ABAFF011BEA4B60067C64DCFE800D
:10020000F1227A587B027C007D00C3EA94F4EB94DF
:1002100001EC9400ED94004028EA94BCEB9402ECCD
:100220009400ED9400501AC2CA75CA6075CB73D29F
:10023000CA90C3501201EE7AEE7B027C007D0080F2
:10024000C9C3EA94BCEB9402EC9400ED94004028FE
:10025000EA9420EB9403EC9400ED9400501AC2CA87
:1002600075CAB075CBB9D2CA90C3501201EE7A529A
:100270007B037C007D008092C3EA9420EB9403EC26
:100280009400ED9400401BEA9484EB9403EC9400FA
:10029000ED9400500DC2CA75CA2075CBD1D2CA02E6
:1002A000020AC3EA9484EB9403EC9400ED940040BA
:1002B0001BEA94E8EB9403EC9400ED9400500DC21B
:1002C000CA75CAD875CBDCD2CA02020AC3EA94E85E
:1002D000EB9403EC9400ED9400401BEA944CEB94F7
:1002E00004EC9400ED9400500DC2CA75CAE075CBC1
:1002F000E3D2CA02020AC3EA944CEB9404EC9400E1
:10030000ED9400400DC2CA75CA9075CBE8D2CA02FE
:10031000020A90C350C002C003C004C0051201EE1F
:10032000D005D004D003D00202020A000000000071
:00000001FF
