:1000000002002E220000000000000000000000009E
:1000200000000000000000000000000200FD7581DB
:100030000712009FE582600302009A780079007A37
:10004000007B007C007D00EC4D601C88828983E48D
:1000500093A3A882A9838A828B83F0A3AA82AB830D
:100060001CBCFFE31D80E07582007583007C007D71
:1000700000EC4D600AE4F0A31CBCFFF51D80F27596
:1000800082007583007C007D00EC4D600AE4F0A3E3
:100090001CBCFFF51D80F212000312010580FE75E5
:1000A000A7007597DE7597AD75FF8075EF0675A78C
:1000B0001075C12075A70075A90075A900E5A930C4
:1000C000E7FB75A90375A903E5A930E7FB43A4C2C3
:1000D000E5A575A5FF43A60175E10075E20075E38E
:1000E0004075C800438E1075CA2075CBD175CEFF00
:1000F00075CFFFD2ADD2CAD2AF7582002275A700EC
:10010000C2CFB29632B2967AE87B031ABAFF011BCD
:10011000EA4B70F780EF00000000000000000000D4
:00000001FF
